:020000040800F2
:1000000000000220592D0008312B0008392B000870
:10001000412B0008492B0008512B0008000000006C
:1000200000000000000000000000000041AC0008DB
:10003000592B00080000000091AE0008672B000853
:10004000A92D0008A92D0008A92D0008A92D000838
:10005000A92D0008A92D0008A92D0008A92D000828
:10006000A92D0008A92D0008A92D0008A92D000818
:10007000A92D0008A92D0008A92D0008A92D000808
:10008000A92D0008A92D0008A92D0008A92D0008F8
:10009000A92D0008A92D0008A92D0008A92D0008E8
:1000A000A92D0008A92D0008A92D0008A92D0008D8
:1000B000A92D0008A92D0008812B0008A92D0008F2
:1000C000A92D0008A92D0008A92D0008A92D0008B8
:1000D000A92D0008A92D0008A92D0008952B0008BE
:1000E000A92D0008A92D0008A92D0008A92D000898
:1000F000A92D0008A92D0008A92D0008A92D000888
:10010000A92D0008A92D0008A92D0008A92D000877
:10011000A92D0008A92D0008A92D0008A92D000867
:10012000A92D0008A92D0008A92D0008A92D000857
:10013000A92D0008A92D0008A92D0008A92D000847
:10014000A92D0008A92D0008A92D0008A92D000837
:10015000A92D0008A92D0008A92D0008A92D000827
:10016000A92D0008A92D0008A92D0008A92D000817
:10017000A92D0008A92D0008A92D000800000000E5
:08018000A92D0008A92D0008BB
:1001900010B5054C237833B9044B13B10448AFF3C1
:1001A00000800123237010BDF0010020000000003A
:1001B00014E5000808B5034B1BB103490348AFF32E
:1001C000008008BD00000000F401002014E50008D4
:1001D00001F0FF01102A2BDB10F0070F08D010F8F8
:1001E000013B013A8B422DD010F0070F42B3F6D1FC
:1001F000F0B441EA012141EA014122F007047FF015
:1002000000070023F0E80256083C85EA010586EA6B
:10021000010685FA47F5A3FA87F586FA47F6A5FAA7
:1002200087F68EB9EED1F0BC01F0FF0102F00702B3
:1002300032B110F8013B013A83EA010313B1F8D15E
:100240000020704701387047002D06BF354603383F
:10025000073815F0010F07D1013015F4807F02BF78
:10026000013015F4C03F0130F0BC0138704700BFC9
:10027000034613F8012B002AFBD1181A01387047E6
:1002800081F0004102E000BF83F0004330B54FEA47
:1002900041044FEA430594EA050F08BF90EA020FB4
:1002A0001FBF54EA000C55EA020C7FEA645C7FEA47
:1002B000655C00F0E2804FEA5454D4EB5555B8BF6A
:1002C0006D420CDD2C4480EA020281EA030382EADB
:1002D000000083EA010180EA020281EA0303362D6D
:1002E00088BF30BD11F0004F4FEA01314FF4801C40
:1002F0004CEA113102D0404261EB410113F0004F52
:100300004FEA03334CEA133302D0524263EB430308
:1003100094EA050F00F0A780A4F10104D5F1200EA6
:100320000DDB02FA0EFC22FA05F2801841F1000101
:1003300003FA0EF2801843FA05F359410EE0A5F1D5
:1003400020050EF1200E012A03FA0EFC28BF4CF006
:10035000020C43FA05F3C01851EBE37101F00045BC
:1003600007D54FF0000EDCF1000C7EEB00006EEBC9
:100370000101B1F5801F1BD3B1F5001F0CD3490853
:100380005FEA30004FEA3C0C04F101044FEA4452AA
:1003900012F5800F80F09A80BCF1004F08BF5FEA31
:1003A000500C50F1000041EB045141EA050130BD11
:1003B0005FEA4C0C404141EB0101013C28BFB1F523
:1003C000801FE9D291F0000F04BF01460020B1FA6E
:1003D00081F308BF2033A3F10B03B3F120020CDA41
:1003E0000C3208DD02F1140CC2F10C0201FA0CF01F
:1003F00021FA02F10CE002F11402D8BFC2F1200C84
:1004000001FA02F120FA0CFCDCBF41EA0C01904039
:10041000E41AA2BF01EB0451294330BD6FEA040482
:100420001F3C1CDA0C340EDC04F11404C4F120026D
:1004300020FA04F001FA02F340EA030021FA04F37F
:1004400045EA030130BDC4F10C04C4F1200220FAD6
:1004500002F001FA04F340EA0300294630BD21FA14
:1004600004F0294630BD94F0000F83F4801306BFDA
:1004700081F480110134013D4EE77FEA645C18BFCE
:100480007FEA655C29D094EA050F08BF90EA020F65
:1004900005D054EA000C04BF1946104630BD91EA5D
:1004A000030F1EBF0021002030BD5FEA545C05D160
:1004B0004000494128BF41F0004130BD14F580049F
:1004C0003CBF01F5801130BD01F0004545F0FE4113
:1004D00041F470014FF0000030BD7FEA645C1ABF48
:1004E000194610467FEA655C1CBF0B46024650EA7F
:1004F000013406BF52EA033591EA030F41F40021AB
:1005000030BD00BF90F0000F04BF0021704730B530
:100510004FF4806404F132044FF000054FF0000105
:1005200050E700BF90F0000F04BF0021704730B5C6
:100530004FF4806404F1320410F0004548BF40429B
:100540004FF000013EE700BF42004FEAE2014FEAF0
:1005500031014FEA02701FBF12F07F4393F07F4FCB
:1005600081F06051704732F07F4208BF704793F0CE
:100570007F4F04BF41F40021704730B54FF46074E1
:1005800001F0004521F000411CE700BF50EA0102E4
:1005900008BF704730B54FF000050AE050EA01028D
:1005A00008BF704730B511F0004502D5404261EBFD
:1005B00041014FF4806404F132045FEA915C3FF43E
:1005C000D8AE4FF003025FEADC0C18BF03325FEADB
:1005D000DC0C18BF033202EBDC02C2F1200300FA8C
:1005E00003FC20FA02F001FA03FE40EA0E0021FAB1
:1005F00002F11444BDE600BF70B54FF0FF0C4CF49F
:10060000E06C1CEA11541DBF1CEA135594EA0C0F50
:1006100095EA0C0F00F0DEF82C4481EA030621EA8B
:100620004C5123EA4C5350EA013518BF52EA0335C6
:1006300041F4801143F4801338D0A0FB02CE4FF078
:100640000005E1FB02E506F00042E0FB03E54FF0A8
:100650000006E1FB03569CF0000F18BF4EF0010EA0
:10066000A4F1FF04B6F5007F64F5407404D25FEA9C
:100670004E0E6D4146EB060642EAC62141EA55514F
:100680004FEAC52040EA5E504FEACE2EB4F1FD0C91
:1006900088BFBCF5E06F1ED8BEF1004F08BF5FEA0F
:1006A000500E50F1000041EB045170BD06F00046C1
:1006B00046EA010140EA020081EA0301B4EB5C046E
:1006C000C2BFD4EB0C0541EA045170BD41F4801166
:1006D0004FF0000E013C00F3AB8014F1360FDEBF8B
:1006E000002001F0004170BDC4F10004203C35DA67
:1006F0000C341BDC04F11404C4F1200500FA05F3EA
:1007000020FA04F001FA05F240EA020001F000428A
:1007100021F0004110EBD37021FA04F642EB060100
:100720005EEA430E08BF20EAD37070BDC4F10C042A
:10073000C4F1200500FA04F320FA05F001FA04F2EE
:1007400040EA020001F0004110EBD37041F10001DA
:100750005EEA430E08BF20EAD37070BDC4F12005E5
:1007600000FA05F24EEA020E20FA04F301FA05F24D
:1007700043EA020321FA04F001F0004121FA04F2F5
:1007800020EA020000EBD3705EEA430E08BF20EAC5
:10079000D37070BD94F0000F0FD101F000464000FF
:1007A00041EB010111F4801F08BF013CF7D041EA81
:1007B000060195F0000F18BF704703F00046520085
:1007C00043EB030313F4801F08BF013DF7D043EA56
:1007D0000603704794EA0C0F0CEA135518BF95EA0C
:1007E0000C0F0CD050EA410618BF52EA4306D1D193
:1007F00081EA030101F000414FF0000070BD50EAB2
:10080000410606BF1046194652EA430619D094EA3B
:100810000C0F02D150EA013613D195EA0C0F05D125
:1008200052EA03361CBF104619460AD181EA030179
:1008300001F0004141F0FE4141F470014FF0000031
:1008400070BD41F0FE4141F4780170BD70B54FF0CC
:10085000FF0C4CF4E06C1CEA11541DBF1CEA13554C
:1008600094EA0C0F95EA0C0F00F0A7F8A4EB05042E
:1008700081EA030E52EA03354FEA013100F0888025
:100880004FEA03334FF0805545EA131343EA1263EE
:100890004FEA022245EA111545EA10654FEA0026A3
:1008A0000EF000419D4208BF964244F1FD0404F55C
:1008B000407402D25B084FEA3202B61A65EB0305B8
:1008C0005B084FEA32024FF480104FF4002CB6EB75
:1008D000020E75EB030E22BFB61A754640EA0C00F5
:1008E0005B084FEA3202B6EB020E75EB030E22BF35
:1008F000B61A754640EA5C005B084FEA3202B6EB76
:10090000020E75EB030E22BFB61A754640EA9C0034
:100910005B084FEA3202B6EB020E75EB030E22BF04
:10092000B61A754640EADC0055EA060E18D04FEAC2
:10093000051545EA16754FEA06164FEAC30343EA62
:1009400052734FEAC2025FEA1C1CC0D111F4801F2F
:100950000BD141EA00014FF000004FF0004CB6E728
:1009600011F4801F04BF01430020B4F1FD0C88BFC7
:10097000BCF5E06F3FF6AFAEB5EB030C04BFB6EBD2
:10098000020C5FEA500C50F1000041EB045170BDC5
:100990000EF0004E4EEA113114EB5C04C2BFD4EBF2
:1009A0000C0541EA045170BD41F480114FF0000E76
:1009B000013C90E645EA060E8DE60CEA135594EAF2
:1009C0000C0F08BF95EA0C0F3FF43BAF94EA0C0FF5
:1009D0000AD150EA01347FF434AF95EA0C0F7FF46A
:1009E00025AF104619462CE795EA0C0F06D152EABE
:1009F00003353FF4FDAE1046194622E750EA4106A2
:100A000018BF52EA43067FF4C5AE50EA41047FF4B2
:100A10000DAF52EA43057FF4EBAE12E74FF0FF3C17
:100A200006E000BF4FF0010C02E000BF4FF0010CE8
:100A30004DF804CD4FEA410C7FEA6C5C4FEA430C61
:100A400018BF7FEA6C5C1BD001B050EA410C0CBFB0
:100A500052EA430C91EA030F02BF90EA020F002012
:100A6000704710F1000F91EA030F58BF994208BF79
:100A700090422CBFD8176FEAE37040F00100704736
:100A80004FEA410C7FEA6C5C02D150EA013C07D18D
:100A90004FEA430C7FEA6C5CD6D152EA033CD3D0D8
:100AA0005DF8040B704700BF8446104662468C46D2
:100AB0001946634600E000BF01B5FFF7B7FF002805
:100AC00048BF10F1000F01BD4DF808EDFFF7F4FF2E
:100AD0000CBF012000205DF808FB00BF4DF808EDB9
:100AE000FFF7EAFF34BF012000205DF808FB00BFDC
:100AF0004DF808EDFFF7E0FF94BF012000205DF8FE
:100B000008FB00BF4DF808EDFFF7CEFF94BF0120B2
:100B100000205DF808FB00BF4DF808EDFFF7C4FFAB
:100B200034BF012000205DF808FB00BF4FEA410CF4
:100B30007FEA6C5C02D150EA013C0AD14FEA430CD7
:100B40007FEA6C5C02D152EA033C02D14FF0000014
:100B500070474FF0010070474FEA410212F5001252
:100B600015D211D56FF47873B3EB625212D94FEAF4
:100B7000C12343F0004343EA505311F0004F23FADE
:100B800002F018BF404270474FF00000704750EA33
:100B9000013005D111F0004008BF6FF000407047F0
:100BA0004FF00000704700BF4A0011D212F500124A
:100BB00011D20DD56FF47873B3EB62520ED44FEAB5
:100BC000C12343F0004343EA505323FA02F0704735
:100BD0004FF00000704750EA013002D14FF0FF3073
:100BE00070474FF0000070474FEA4102B2F1E04316
:100BF00024BFB3F5001CDCF1FE5C0DD901F0004C04
:100C00004FEAC0024CEA5070B2F1004F40EB830053
:100C100008BF20F00100704711F0804F21D113F17F
:100C20003872BCBF01F00040704741F480114FEAB8
:100C30005252C2F11802C2F1200C10FA0CF320FA41
:100C400002F018BF40F001004FEAC1234FEAD3235E
:100C500003FA0CFC40EA0C0023FA02F34FEA4303C8
:100C6000CCE77FEA625307D150EA01331EBF4FF051
:100C7000FE4040F44000704701F0004040F0FE406C
:100C800040F40000704700BF53B94AB9002908BFBB
:100C900000281CBF4FF0FF314FF0FF3000F06AB961
:100CA000ADF1080C6DE904CE00F006F8DDF804E0C3
:100CB000DDE9022304B070472DE9F047089D0C469A
:100CC000002B4ED194468C458646B2FA82F262D908
:100CD0004AB1C2F12003914020FA03F30CFA02FC5E
:100CE000194300FA02FE4FEA1C471FFA8CF6B1FBCB
:100CF000F7F44FEA1E4307FB141143EA014304FBD8
:100D000006F199420AD91CEB030304F1FF3080F08D
:100D10001281994240F20F81023C6344591A1FFA32
:100D20008EF3B1FBF7F007FB101143EA014300FB20
:100D300006F69E420AD91CEB030300F1FF3180F056
:100D4000FC809E4240F2F980634402389B1B40EADB
:100D5000044000211DB1D3400022C5E90032BDE8A6
:100D6000F0878B4205D90DB1C5E900010021084685
:100D7000F5E7B3FA83F1002946D1A34202D39042AA
:100D8000C0F0F080861A64EB03030120002DE6D04A
:100D9000C5E90063E3E7002A40F09080A1EB0C0472
:100DA0004FEA1C481FFA8CF70121B4FBF8F64FEA12
:100DB0001E4308FB164443EA044307FB06F098422F
:100DC00008D91CEB030306F1FF3402D2984200F26B
:100DD000CD8026461C1A1FFA8EF3B4FBF8F008FBF0
:100DE000104443EA044300FB07F79F4208D91CEB79
:100DF000030300F1FF3402D29F4200F2B08020468C
:100E0000DB1B40EA0640A5E7C1F120068B4022FA31
:100E100006F71F4320FA06FC04FA01F343EA0C0329
:100E2000F44000FA01F8380C4FEA1349B4FBF0FE25
:100E30001FFA87FC00FB1E4449EA04440EFB0CF930
:100E4000A14502FA01F20AD93C190EF1FF3A80F0ED
:100E50008480A14540F28180AEF1020E3C44A4EBB7
:100E600009041FFA83F9B4FBF0F300FB134449EAC9
:100E7000044403FB0CFCA44507D93C1903F1FF30E3
:100E800067D2A44565D9023B3C4443EA0E40A0FB2F
:100E90000293A4EB0C049C42CE469C4651D34ED008
:100EA00055B1B8EB0E0364EB0C0404FA06F6CB4024
:100EB0001E43CC40C5E90064002150E7C2F1200385
:100EC00020FA03F10CFA02FC24FA03F394400C43D9
:100ED0004FEA1C4800FA02FE1FFA8CF7B3FBF8F049
:100EE00008FB1031230C43EA014300FB07F1994250
:100EF00008D91CEB030300F1FF362CD299422AD902
:100F0000023863445B1AA4B2B3FBF8F108FB113357
:100F100044EA034401FB07F3A34208D91CEB040491
:100F200001F1FF3613D2A34211D902396444E41A05
:100F300041EA004139E70446F0E6084606E7C845BD
:100F4000AED2B9EB020E63EB070C0138A8E73146CD
:100F5000EDE7034699E73046D4E7D6467FE763449A
:100F600002384DE70646234608460FE7023E634433
:100F700030E700BF704700BF80B582B000AF786037
:100F80007B68002B14BF01230023DBB21A46082123
:100F9000134802F0F9FE7B68002B0CBF01230023ED
:100FA000DBB21A4604210E4802F0EEFE7B68002BED
:100FB0000CBF01230023DBB21A462021084802F0AF
:100FC000E3FE7B68002B14BF01230023DBB21A462B
:100FD0001021034802F0D8FE00BF0837BD4680BD8F
:100FE0000000024080B483B000AF0346FB80094B91
:100FF0001B6800225A6200BF064B1B685A6AFB88B6
:101000009A42F9D300BF00BF0C37BD465DF8047BA0
:10101000704700BF3404002080B483B000AF87ED78
:10102000010AC7ED000A104B93ED007AD7ED017A63
:1010300037EE277A0D4BD3ED007A37EE677AD7ED8E
:10104000007A67EE277A084BC3ED007A074A7B687F
:101050001360054B1B6807EE903AB0EE670A0C3739
:10106000BD465DF8047B70470C0200201002002092
:1010700080B483B000AF0346FB71FB79B42B01D978
:10108000B423FB71FB79C3F1F003084A1360FB79C9
:10109000074A1360054B1A68064B1B681A6400BFA9
:1010A0000C37BD465DF8047B704700BF0800002088
:1010B000600500201403002080B58CB000AF87EDE0
:1010C000010AC7ED000A3868FFF73EFA734BD3E90F
:1010D0000023FFF7D9F802460B4610461946FFF7E2
:1010E00083FD0346FB627868FFF72EFA6C4BD3E969
:1010F0000023FFF7C9F802460B4610461946FFF7D2
:1011000073FD0346BB62674BD3ED007A97ED0B7A14
:1011100067EE277AC7ED097A624BD3ED007A97ED37
:101120000A7A67EE277AC7ED087A5F4B93ED007A6B
:10113000D7ED0B7A77EE277A5B4BC3ED007A5B4BEA
:1011400093ED007AD7ED0A7A77EE277A574BC3ED05
:10115000007A574B93ED007A534BD3ED007A67EE4C
:10116000277AC7ED077A524B93ED007A4F4BD3EDB8
:10117000007A67EE277AC7ED067A4E4BD3ED007AF8
:1011800097ED0B7A37EE677A4B4BD3ED007A67EE2B
:10119000277AC7ED057A494BD3ED007A97ED0A7AA5
:1011A00037EE677A444BD3ED007A67EE277AC7EDC6
:1011B000047A97ED097AD7ED077A77EE277A97EDDB
:1011C000057A77EE277AC7ED037A97ED087AD7ED9F
:1011D000067A77EE277A97ED047A77EE277AC7EDCD
:1011E000027A374B1B6807EE903AB8EEE77AD7EDF4
:1011F000037A77EE277AFDEEE77A17EE903A1BB284
:101200001A462F4B1A602F4B1B6807EE903AB8EE28
:10121000E77AD7ED027A77EE277AFDEEE77A17EED6
:10122000903A1BB21A46274B1A60254B1B68B3F540
:101230007A6F03DD224B4FF47A621A60204B1B68F1
:10124000B3F5FA6F03DA1E4B4FF4FA621A601D4BC6
:101250001B68B3F57A6F03DD1A4B4FF47A621A609C
:10126000184B1B68B3F5FA6F03DA164B4FF4FA62AA
:101270001A60134B1A68144B1B685A63114B1A6897
:10128000114B1B689A630B4AFB6A13600B4ABB6ADB
:10129000136000BF3037BD4680BD00BF3805002059
:1012A000400500200C000020740500207805002077
:1012B000100000206C0500201400002070050020A4
:1012C00054050020580500207C04002080B500AFA4
:1012D00001F06CFD00F0A4F800F092FC00F066FC58
:1012E00000F0C0FA00F082FB00F0CAF900F0B4FB95
:1012F00000F098F900F062FA00F008FB00F0EEF858
:1013000000F03EF90AF01EFA0023032200212A48C9
:1013100007F073F8C82001F0BBFDFA22032126482C
:1013200007F00AFA254804F057FA0021244804F08F
:1013300037FC04222349244806F013F807F0D8FAB2
:10134000224A0021224807F01DFB0346214A136070
:10135000214A0021214807F015FB0346204A13606B
:10136000204A0021204807F00DFB03461F4A136066
:101370001F4A00211F4807F005FB03461E4A136061
:101380001E4A00211E4807F0FDFA03461D4A13605D
:101390001D4A00211D4807F0F5FA03461C4A136058
:1013A0001C4A00211C4807F0EDFA03461B4A136053
:1013B00007F0C2FA00BFFDE7C0020020340400209D
:1013C000EC03002064050020C404002084E600082B
:1013D000212000080C050020A8E600084120000894
:1013E00010050020CCE600080921000814050020A3
:1013F000F0E60008512100081805002014E7000855
:10140000B52200081C05002038E700086123000809
:10141000200500205CE700088D2500082405002039
:1014200080B594B000AF07F12003302200211846A8
:101430000AF0A5FF07F10C0300221A605A609A60B7
:10144000DA601A610023BB60224B1B6C214A43F017
:10145000805313641F4B1B6C03F08053BB60BB684D
:1014600000237B601C4B1B681B4A43F480431360C2
:10147000194B1B6803F480437B607B6802233B624B
:101480000123FB6210233B630023BB6307F12003AE
:10149000184603F0F9FC0346002B01D001F083F855
:1014A0000F23FB6000233B6100237B610023BB61B2
:1014B0000023FB6107F10C030021184603F05CFFD9
:1014C0000346002B01D001F06EF800BF5037BD4637
:1014D00080BD00BF003802400070004080B584B07D
:1014E00000AF3B4600221A605A609A60DA60214BD6
:1014F000214A1A601F4B00225A601E4B00229A603C
:101500001C4B00221A611B4B00221A76194B002239
:1015100083F82020174B0022DA62164B174A9A6292
:10152000144B0022DA60134B0122DA61114B0022C6
:1015300083F830200F4B01225A610E4801F0CCFC99
:101540000346002B01D001F02EF800233B6001235D
:101550007B600023BB603B461946064801F09EFEB7
:101560000346002B01D001F01EF800BF1037BD4626
:1015700080BD00BF30020020002001400100000FAC
:1015800080B584B000AF3B4600221A605A609A6072
:10159000DA60214B214A1A601F4B00225A601E4B11
:1015A00000229A601C4B00221A611B4B00221A7603
:1015B000194B002283F82020174B0022DA62164BC9
:1015C000174A9A62144B0022DA60134B0122DA6147
:1015D000114B002283F830200F4B01225A610E4834
:1015E00001F07AFC0346002B01D000F0DCFF012360
:1015F0003B6001237B600023BB603B4619460648E5
:1016000001F04CFE0346002B01D000F0CCFF00BFE0
:101610001037BD4680BD00BF780200200021014088
:101620000100000F80B500AF124B134A1A60114B36
:10163000124A5A600F4B00229A600E4B0022DA6069
:101640000C4B4FF480421A610A4B00225A61094B3D
:1016500000229A61074B0022DA61064B00221A62CF
:10166000044802F0C5FB0346002B01D000F09BFFAD
:1016700000BF80BDC002002000540040A0860100D1
:1016800080B596B000AF07F1480300221A605A6097
:101690009A60DA6007F1400300221A605A6007F18D
:1016A000240300221A605A609A60DA601A615A6153
:1016B0009A613B1D2022002118460AF060FE3D4B36
:1016C0003D4A1A603B4BA0225A603A4B00229A6076
:1016D000384B4FF6FF72DA60364B00221A61354BF9
:1016E00000225A61334B00229A61324804F024F8F8
:1016F0000346002B01D000F056FF4FF48053BB642B
:1017000007F1480319462B4804F0F4FE0346002B6A
:1017100001D000F048FF274804F0C6F80346002B2C
:1017200001D000F040FF00233B6400237B6407F1FD
:10173000400319461F4805F057FC0346002B01D013
:1017400000F031FF60237B620023BB620023FB6259
:1017500000237B630023BB630023FB6307F12403A7
:101760000C221946134804F003FE0346002B01D057
:1017700000F019FF00237B600023BB600023FB60A7
:1017800000233B6100237B614FF40053BB610023C6
:101790003B623B1D1946074805F0A2FC0346002B9F
:1017A00001D000F000FF034801F038F900BF5837BE
:1017B000BD4680BD140300200000014080B58CB000
:1017C00000AF07F10C032422002118460AF0D7FDD0
:1017D0003B1D00221A605A60214B4FF080421A6074
:1017E0001F4B00225A601E4B00229A601C4B4FF682
:1017F000FF72DA601A4B00221A61194B00229A61BB
:101800000323FB6000233B6101237B610023BB6159
:101810000A23FB6100233B6201237B620023BB623E
:101820000A23FB6207F10C0319460D4804F0E0FAA5
:101830000346002B01D000F0B6FE00237B6000239E
:10184000BB603B1D1946064805F0CEFB0346002B46
:1018500001D000F0A8FE00BF3037BD4680BD00BFFC
:101860005C03002080B58CB000AF07F10C0324228C
:10187000002118460AF083FD3B1D00221A605A60C1
:10188000204B214A1A601F4B00225A601D4B002238
:101890009A601C4B4FF6FF72DA601A4B00221A61F5
:1018A000184B00229A610323FB6000233B61012354
:1018B0007B610023BB610A23FB6100233B620123A0
:1018C0007B620023BB620A23FB6207F10C0319460B
:1018D0000C4804F08DFA0346002B01D000F063FEA3
:1018E00000237B600023BB603B1D1946054805F0C3
:1018F0007BFB0346002B01D000F055FE00BF3037C4
:10190000BD4680BDA40300200004004080B58AB01D
:1019100000AF07F1180300221A605A609A60DA607B
:1019200007F1100300221A605A603B4600221A6039
:101930005A609A60DA602B4B2B4A1A60294B0F22AF
:101940005A60284B00229A60264B4FF6FF72DA60ED
:10195000244B00221A61234B00229A61214803F094
:10196000EBFE0346002B01D000F01DFE4FF4805328
:10197000BB6107F1180319461A4804F0BBFD034682
:10198000002B01D000F00FFE164804F0AFF803461C
:10199000002B01D000F007FE00233B6100237B6198
:1019A00007F1100319460F4805F01EFB0346002BF4
:1019B00001D000F0F8FD0A233B6001237B60002387
:1019C000BB600023FB603B4600221946054804F03B
:1019D00033FC0346002B01D000F0E5FD00BF2837A3
:1019E000BD4680BDEC0300200008004080B582B0F9
:1019F00000AF3B4600221A605A60154B154A1A6028
:101A0000134B0F225A60124B00229A60104B4FF674
:101A1000FF72DA600E4B00229A610D4803F08CFED3
:101A20000346002B01D000F0BEFD00233B600023E5
:101A30007B603B461946064805F0D6FA0346002B64
:101A400001D000F0B0FD00BF0837BD4680BD00BF2B
:101A5000340400200010004080B596B000AF07F1BC
:101A6000480300221A605A609A60DA6007F1400366
:101A700000221A605A6007F1240300221A605A609B
:101A80009A60DA601A615A619A613B1D2022002136
:101A900018460AF074FC434B434A1A60414B00223B
:101AA0005A60404B00229A603E4B41F61F42DA607A
:101AB0003C4B00221A613B4B00225A61394B0022F9
:101AC0009A61384803F038FE0346002B01D000F03D
:101AD0006AFD4FF48053BB6407F14803194631484F
:101AE00004F008FD0346002B01D000F05CFD2D48FA
:101AF00003F0DAFE0346002B01D000F054FD002372
:101B00003B6400237B6407F140031946254805F038
:101B10006BFA0346002B01D000F045FD60237B6289
:101B20000023BB620023FB6200233B6300237B6333
:101B30000023BB630023FB6307F124030022194643
:101B4000184804F015FC0346002B01D000F02BFDD3
:101B500007F1240304221946124804F009FC034645
:101B6000002B01D000F01FFD00237B600023BB6031
:101B70000023FB6000233B6100237B614FF4005393
:101B8000BB6100233B623B1D1946064805F0A8FADD
:101B90000346002B01D000F006FD00BF5837BD46BC
:101BA00080BD00BF7C0400200004014080B500AF70
:101BB000114B124A1A60104B4FF4E1325A600E4B2F
:101BC00000229A600C4B0022DA600B4B00221A6153
:101BD000094B0C225A61084B00229A61064B0022E5
:101BE000DA61054805F0E2FA0346002B01D000F067
:101BF000DAFC00BF80BD00BFC404002000480040E4
:101C000080B58AB000AF07F1140300221A605A6051
:101C10009A60DA601A6100233B613E4B1B6B3D4AC0
:101C200043F0100313633B4B1B6B03F010033B614A
:101C30003B690023FB60374B1B6B364A43F00103C3
:101C40001363344B1B6B03F00103FB60FB68002341
:101C5000BB60304B1B6B2F4A43F0080313632D4BC3
:101C60001B6B03F00803BB60BB6800237B60294B40
:101C70001B6B284A43F004031363264B1B6B03F0D2
:101C800004037B607B6800233B60224B1B6B214A73
:101C900043F0020313631F4B1B6B03F002033B6013
:101CA0003B6800224FF4FC611B4802F06DF80022F3
:101CB0003C211A4802F068F84FF4FC637B61012371
:101CC000BB610023FB6100233B6207F1140319464B
:101CD000114801F0A5FE3C237B610123BB61002379
:101CE000FB6102233B6207F1140319460B4801F024
:101CF00097FE4FF480737B610023BB610023FB617F
:101D000007F114031946064801F08AFE00BF283780
:101D1000BD4680BD00380240001002400000024075
:101D2000000C024080B582B000AF78604FF6FF73C0
:101D300004220849084805F089FA084B01221A6074
:101D400004220449044805F00CFB00BF0837BD46D7
:101D500080BD00BF64050020C404002024020020D0
:101D600080B582B000AF78607B68374A934261D11A
:101D70004FF48051354801F0EFFF0346012B08D1A5
:101D80000021314804F07EFC03461A46304B1A60AD
:101D90001EE000212C4804F075FC03461A462D4B2A
:101DA0001A602C4B1A682A4B1B689A4207DD294B94
:101DB0001A68274B1B68D31A274A136008E0244B84
:101DC0001B68C3F58032234B1B681344224A1360FF
:101DD000204B1A681E4B1B689A4208DD1D4B1A687F
:101DE0001B4B1B68D31A1846FEF79CFB0AE0184BE6
:101DF0001B68C3F57F43FF33164A12681344184625
:101E0000FEF790FB0EA3D3E90023FEF7F5FB024695
:101E10000B46104619464FF000024FF08043FEF784
:101E200015FD02460B4610461946FEF7DDFE034639
:101E30000A4A136000BF0837BD4680BDAFF300807B
:101E40009CC420B07268A13FEC030020000C02404B
:101E5000280500202C050020300500203405002036
:101E600080B500AF1E4801F07BF80A211C4801F044
:101E70007CF91B4801F004FA03469AB2194B1A8008
:101E8000174801F03FF9174B1B881846FEF74AFB2D
:101E90000FA3D3E90023FEF7AFFB02460B46104623
:101EA0001946FEF759FE03461846FEF73BFB0AA308
:101EB000D3E90023FEF7EAF902460B46104619461D
:101EC000FEF772FE03469AB2064B1A8000BF80BD31
:101ED000F25D4A5D328E71BFA4703D0AD7E3354092
:101EE000780200206805002080B500AF1E4801F090
:101EF00037F80A211C4801F038F91B4801F0C0F9F5
:101F000003469AB2194B1A80174801F0FBF8174B99
:101F10001B881846FEF706FB0FA3D3E90023FEF744
:101F20006BFB02460B4610461946FEF715FE0346AC
:101F30001846FEF7F7FA0AA3D3E90023FEF7A6F93D
:101F400002460B4610461946FEF72EFE03469AB28D
:101F5000064B1A8000BF80BDF25D4A5D328E71BFB4
:101F6000A4703D0AD7E33540300200206A05002006
:101F700080B500AF0120FEF7FFFF0020FFF778F8E3
:101F80004FF47A7006F090FDF7EE000AB2EE040A04
:101F9000FFF792F800BF80BD80B500AF0E4B4FF049
:101FA00000021A605F20FFF763F80C4B00221A60F2
:101FB0000B4B00221A60094B1A680A4B1B685A63C4
:101FC000074B1A68074B1B689A63074B1B68013362
:101FD000054A136000BF80BD5C0500205405002049
:101FE000580500207C0400200400002080B500AFCC
:101FF0000120FEF7C1FFF1EE040AB1EE040AFFF77B
:102000005BF800BF80BD80B500AF0020FEF7B4FFD5
:10201000F1EE040AB1EE040AFFF74EF800BF80BDEE
:1020200080B582B000AF78604FF48061034801F062
:10203000C4FE962006F038FD00BFF5E70010024010
:1020400080B588B002AF78600023BB6007F10C0355
:1020500000221A605A609A60234B1B6807F108003F
:10206000224A10210AF014F907F108031A46282120
:102070000A2009F035FB1E4B032200211D4806F003
:1020800043FA1D4B1B681846FEF75EFA02460B46E4
:1020900007F10800CDE90023184A10210AF0F8F8EA
:1020A00007F108031A461E210A2009F019FB09F05E
:1020B000A3F9134B1B681846FEF746FA02460B4677
:1020C00007F10800CDE900230E4A10210AF0E0F8DC
:1020D00007F108031A460A210A2009F001FBC8206B
:1020E00006F0E2FC00BFB7E72002002040E600084F
:1020F00048050020C00200205C05002048E60008DA
:102100001802002058E6000880B582B000AF786061
:1021100000224FF400710D4801F036FE01224FF409
:1021200000710A4801F030FE0A20FEF75BFF002232
:102130004FF40071054801F027FE0A2006F0B4FCB8
:10214000C82006F0B1FC00BFE2E700BF001002406B
:1021500080B584B000AF78600C214C4803F0FEFBE2
:102160004B4B4FF000021A60C82006F09DFC00F0B7
:1021700083FE0346474A136000F07EFE0346464A4C
:102180001360454B1A68434B1B68D31A07EE903A0D
:10219000B8EE677ADFED416AC7EE267A404BC3EDB1
:1021A000007A00F069FE03463B4A13603A4B1A6816
:1021B000384B1B68D31A07EE903AB8EE677ADFED1A
:1021C000376AC7EE267A364BC3ED007A354BD3ED2E
:1021D000027A354B93ED007AF0EE470AB0EE670ACB
:1021E000FEF71AFF87ED030A2D4B93ED007AD7ED2A
:1021F000037A27EE277A264BD3ED007A77EE277AFB
:10220000234BC3ED007A224BD3ED007AFDEEE77A43
:1022100017EE903AC3F15F03244A1360244B1B6806
:10222000002B13D1214B1B685F2B03DD6420FEF7CD
:102230001FFF22E01D4B1B685E2B03DC5A20FEF7BC
:1022400017FF1AE05F20FEF713FF16E0184B1B681C
:10225000012B12D1154B1B685E2B03DC6420FEF7AB
:1022600007FF0AE0114B1B685F2B03DD5A20FEF7C6
:10227000FFFE02E05F20FEF7FBFE00F0FDFD0346DF
:10228000044A1360962006F00FFC8AE7140300202E
:102290005C050020280200202C02002000007A4467
:1022A0001C02002048050020000000202002002021
:1022B0000400002080B582B000AF78600021224881
:1022C00003F04CFB0421204803F048FB00BF4FF40F
:1022D00080711E4801F040FD0346012BF7D05F20BE
:1022E000FEF7C6FE1A4BC8221A601A4B1B68022B57
:1022F00008D1194B1B68AE2B02DCFFF739FE01E059
:10230000FFF74AFE124B1B6807EE903AB8EEE77AE9
:10231000124BD3ED007AB4EEE77AF1EE10FA0CDD51
:102320000C4B1B68002B01D1FFF760FE094B1B68AB
:10233000012B04D1FFF767FE01E0FFF72DFE3220ED
:1023400006F0B2FBD1E700BF7C040020000C024085
:1023500014020020040000202002002018020020A7
:1023600080B58AB000AF78603C21814803F0E6FD7B
:102370003C21804803F0E2FD7D4B1B685B6AFB84D7
:102380007C4B1B685B6A7B8400F076FDF86100F093
:1023900073FD0246FB69D31A0A2B40F2E180744BAD
:1023A0001B685B6A7B83734B1B685B6A3B83704B68
:1023B0001B681B6803F01003102B14D1B7F91A2007
:1023C000B7F926309A4205DAFA8C7B8BD31A9BB286
:1023D0001BB206E0FA8C7B8BD31A9BB2013B9BB2FB
:1023E0001BB2BB8413E0B7F91A20B7F926309A4222
:1023F00005DD7A8BFB8CD31A9BB21BB206E07A8B7D
:10240000FB8CD31A9BB2013B9BB21BB2BB84594BD2
:102410001B681B6803F01003102B14D1B7F91820A8
:10242000B7F922309A4205DA7A8C3B8BD31A9BB2E9
:102430001BB206E07A8C3B8BD31A9BB2013B9BB25A
:102440001BB23B8413E0B7F91820B7F922309A4247
:1024500005DD3A8B7B8CD31A9BB21BB206E03A8B1C
:102460007B8CD31A9BB2013B9BB21BB23B84B7F966
:10247000243007EE903AF8EEE77A9FED3F7AC7EE08
:10248000876A16EE900AFEF75FF802460B463B4954
:10249000C1E90023B7F9203007EE903AF8EEE77A69
:1024A0009FED357AC7EE876A16EE900AFEF74CF874
:1024B00002460B463249C1E90023304BD3E9000103
:1024C00029A3D3E90023FEF797F802460B461046EE
:1024D00019464FF000022B4BFEF78EF802460B46D2
:1024E00010461946FEF780FB03467B61244BD3E977
:1024F00000011DA3D3E90023FEF77EF802460B4638
:10250000104619464FF000021E4BFEF775F80246C2
:102510000B4610461946FEF767FB03463B6197EDF5
:10252000057AD7ED047A37EE277AF0EE006AC7EE27
:10253000267AC7ED037A144B93ED007AD7ED037A30
:1025400077EE277A104BC3ED007A094B1B685B6A64
:10255000FB84084B1B685B6A7B8400F08DFCF86190
:10256000962006F0A1FA12E7EA2E4454FB21094016
:102570005C030020A40300200000A54438050020CF
:102580004005002000001A401802002080B582B0EB
:1025900000AF7860FFF764FCFFF7A6FC962006F01A
:1025A00083FA00BFF6E780B400AF72B600BF00BF89
:1025B000FDE7000080B582B000AF00237B60124BC6
:1025C0005B6C114A43F4804353640F4B5B6C03F420
:1025D00080437B607B6800233B600B4B1B6C0A4A8B
:1025E00043F080531364084B1B6C03F080533B6033
:1025F0003B6800220F216FF0010001F048F900BF95
:102600000837BD4680BD00BF0038024080B58CB0A1
:1026100000AF786007F11C0300221A605A609A60CC
:10262000DA601A617B681B682E4A934228D1002326
:10263000BB612D4B5B6C2C4A43F4807353642A4B73
:102640005B6C03F48073BB61BB6900237B61264B29
:102650001B6B254A43F001031363234B1B6B03F0F1
:1026600001037B617B690123FB6103233B62002340
:102670007B6207F11C0319461C4801F0D1F92CE0DC
:102680007B681B681A4A934227D100233B61164B93
:102690005B6C154A43F400735364134B5B6C03F497
:1026A00000733B613B690023FB600F4B1B6B0E4AC1
:1026B00043F0010313630C4B1B6B03F00103FB603E
:1026C000FB680223FB6103233B6200237B6207F16B
:1026D0001C031946054801F0A3F900BF3037BD4679
:1026E00080BD00BF002001400038024000000240D1
:1026F0000021014080B58AB000AF786007F1140373
:1027000000221A605A609A60DA601A617B681B685E
:10271000194A93422CD100233B61184B1B6B174A7B
:1027200043F002031363154B1B6B03F002033B6181
:102730003B694FF440737B611223BB610023FB6153
:1027400003233B6204237B6207F1140319460C4800
:1027500001F066F90023FB60084B1B6C074A43F449
:1027600000131364054B1B6C03F40013FB60FB6840
:1027700000BF2837BD4680BD0054004000380240ED
:102780000004024080B58EB000AF786007F12403EA
:1027900000221A605A609A60DA601A617B681B68CE
:1027A0004A4A93420ED100233B62494B5B6C484A34
:1027B00043F001035364464B5B6C03F001033B623F
:1027C0003B6A7FE07B681B68424A934235D1002315
:1027D000FB613F4B1B6C3E4A43F0040313643C4BCC
:1027E0001B6C03F00403FB61FB690023BB61384BE6
:1027F0001B6B374A43F008031363354B1B6B03F025
:102800000803BB61BB694FF480537B620223BB6248
:102810000023FB6200233B6302237B6307F1240355
:1028200019462D4801F0FCF8002205211E2001F078
:102830002EF81E2001F047F844E07B681B68274A09
:1028400093420ED100237B61214B1B6C204A43F045
:10285000100313641E4B1B6C03F010037B617B6938
:1028600030E07B681B681E4A93422BD100233B61FA
:10287000174B5B6C164A43F002035364144B5B6CBA
:1028800003F002033B613B690023FB60104B1B6BB1
:102890000F4A43F0040313630D4B1B6B03F0040357
:1028A000FB60FB68C0237B620223BB620023FB62E8
:1028B00000233B6303237B6307F124031946094884
:1028C00001F0AEF800BF3837BD4680BD00000140C2
:1028D0000038024000080040000C02400010004098
:1028E000000401400008024080B58CB000AF786061
:1028F00007F11C0300221A605A609A60DA601A61BC
:102900007B681B68B3F1804F4BD10023BB613F4B09
:102910001B6C3E4A43F0010313643C4B1B6C03F0F9
:102920000103BB61BB6900237B61384B1B6B374ADA
:1029300043F001031363354B1B6B03F001037B6111
:102940007B6900233B61314B1B6B304A43F0020330
:1029500013632E4B1B6B03F002033B613B694FF487
:102960000043FB6102233B6200237B620023BB62C6
:102970000123FB6207F11C031946254801F050F8BA
:102980000823FB6102233B6200237B620023BB62BE
:102990000123FB6207F11C0319461E4801F040F8B1
:1029A00030E07B681B681C4A93422BD10023FB60FC
:1029B000164B1B6C154A43F002031364134B1B6C3C
:1029C00003F00203FB60FB680023BB600F4B1B6B33
:1029D0000E4A43F0010313630C4B1B6B03F001031E
:1029E000BB60BB68C023FB6102233B6200237B62A8
:1029F0000023BB620223FB6207F11C031946044853
:102A000001F00EF800BF3037BD4680BD00380240EF
:102A100000000240000402400004004080B588B07D
:102A200000AF786007F10C0300221A605A609A60C8
:102A3000DA601A617B681B68124A93421ED1002338
:102A4000BB60114B1B6B104A43F0100313630E4B1A
:102A50001B6B03F01003BB60BB684FF48043FB604B
:102A600002233B6100237B610023BB610123FB61E7
:102A700007F10C031946054800F0D2FF00BF2037CC
:102A8000BD4680BD000001400038024000100240F9
:102A900080B58AB000AF786007F1140300221A6095
:102AA0005A609A60DA601A617B681B681D4A93421B
:102AB00034D100233B611C4B1B6C1B4A43F4802325
:102AC0001364194B1B6C03F480233B613B690023A7
:102AD000FB60154B1B6B144A43F004031363124B4A
:102AE0001B6B03F00403FB60FB684FF440637B61E6
:102AF0000223BB610023FB6103233B6207237B624C
:102B000007F114031946094800F08AFF0022052145
:102B1000272000F0BCFE272000F0D5FE00BF28379C
:102B2000BD4680BD00480040003802400008024019
:102B300080B400AF00BFFDE780B400AF00BFFDE789
:102B400080B400AF00BFFDE780B400AF00BFFDE779
:102B500080B400AF00BFFDE780B400AF00BFBD464A
:102B60005DF8047B704780B500AF00F071F907F0A5
:102B7000C3FB0346012B01D008F0BEF900BF80BDA6
:102B800080B500AF024803F067FA00BF80BD00BF08
:102B9000EC03002080B500AF024804F007FC00BF42
:102BA00080BD00BFC404002080B400AF01231846DC
:102BB000BD465DF8047B704780B582B000AF786099
:102BC000396009F02FFC034616221A604FF0FF33DC
:102BD00018460837BD4680BD80B582B000AF78602A
:102BE0004FF0FF317868FFF7E7FF00BFFDE780B5E2
:102BF00086B000AFF860B9607A6000237B610AE0BC
:102C0000AFF300800146BB685A1CBA60CAB21A70A2
:102C10007B6901337B617A697B689A42F0DB7B6870
:102C200018461837BD4680BD80B586B000AFF86045
:102C3000B9607A6000237B6109E0BB685A1CBA6006
:102C40001B781846AFF300807B6901337B617A699A
:102C50007B689A42F1DB7B6818461837BD4680BD19
:102C600080B483B000AF78604FF0FF3318460C3764
:102C7000BD465DF8047B704780B483B000AF7860D8
:102C800039603B684FF400525A60002318460C37F5
:102C9000BD465DF8047B704780B483B000AF7860B8
:102CA000012318460C37BD465DF8047B704780B49D
:102CB00085B000AFF860B9607A6000231846143719
:102CC000BD465DF8047B704780B586B000AF786084
:102CD000144A154BD31A7B617B693B61134B1B680C
:102CE000002B02D1114B124A1A60104B1A687B68F4
:102CF00013443A699A4207D209F094FB03460C2226
:102D00001A604FF0FF3309E0084B1B68FB60074B6C
:102D10001A687B681344054A1360FB681846183725
:102D2000BD4680BD00000220000400007C0500209C
:102D30002054002080B400AF064BD3F88830054AF9
:102D400043F47003C2F8883000BFBD465DF8047BD1
:102D5000704700BF00ED00E0DFF834D00D480E49A9
:102D60000E4A002302E0D458C4500433C4188C42E5
:102D7000F9D30B4A0B4C002301E013600432A2424A
:102D8000FBD3FFF7D7FF09F053FBFEF79FFA70471D
:102D90000000022000000020F001002080F5000863
:102DA000F001002020540020FEE7000080B500AFB5
:102DB0000E4B1B680D4A43F4007313600B4B1B68EA
:102DC0000A4A43F480631360084B1B68074A43F4C4
:102DD00080731360032000F04FFD0F2000F008F80F
:102DE000FFF7E8FB0023184680BD00BF003C02400F
:102DF00080B582B000AF7860124B1A68124B1B7816
:102E000019464FF47A73B3FBF1F3B2FBF3F31846B0
:102E100000F067FD0346002B01D001230EE07B6824
:102E20000F2B0AD8002279684FF0FF3000F02FFDF9
:102E3000064A7B681360002300E001231846083728
:102E4000BD4680BD18000020200000201C0000208E
:102E500080B400AF064B1B781A46064B1B68134420
:102E6000044A136000BFBD465DF8047B704700BF95
:102E7000200000208005002080B400AF034B1B68B9
:102E80001846BD465DF8047B704700BF80050020F2
:102E900080B584B000AF7860FFF7EEFFB8607B6864
:102EA000FB60FB68B3F1FF3F05D00A4B1B781A4665
:102EB000FB681344FB6000BFFFF7DEFF0246BB6800
:102EC000D31AFA689A42F7D800BF00BF1037BD4640
:102ED00080BD00BF2000002080B584B000AF7860C6
:102EE0000023FB737B68002B01D1012333E07B6857
:102EF0001B6C002B09D17868FFF788FB7B680022E8
:102F00005A647B68002283F83C207B681B6C03F0CA
:102F10001003002B18D17B681B6C23F4885323F01B
:102F2000020343F002027B681A64786800F0D8FA62
:102F30007B6800225A647B681B6C23F0030343F018
:102F400001027B681A6401E00123FB737B680022A5
:102F500083F83C20FB7B18461037BD4680BD00003F
:102F600080B485B000AF78600023BB607B6893F8C5
:102F70003C30012B01D10223B2E07B68012283F8AF
:102F80003C207B681B689B6803F00103012B18D071
:102F90007B681B689A687B681B6842F001029A6034
:102FA000524B1B68524AA2FB03239A0C13465B0048
:102FB0001344BB6002E0BB68013BBB60BB68002BF5
:102FC000F9D17B681B689B6803F00103012B7AD160
:102FD0007B681B6C23F4E06323F0010343F48072ED
:102FE0007B681A647B681B685B6803F48063002B52
:102FF00007D07B681B6C23F4405343F480527B68FA
:103000001A647B681B6C03F48053B3F5805F06D1B0
:103010007B685B6C23F006027B685A6402E07B6885
:1030200000225A647B68002283F83C20314BFB600D
:103030007B681B686FF022021A60FB685B6803F014
:103040001F03002B2AD17B681B682B4A934215D0A3
:103050007B681B68294A934205D1264B5B6803F0C5
:103060001F03002B0AD07B681B68254A934236D188
:10307000204B5B6803F01003002B30D17B681B688A
:103080009B6803F04053002B29D17B681B689A682A
:103090007B681B6842F080429A6020E07B681B6876
:1030A000154A93421BD17B681B689B6803F0405311
:1030B000002B14D17B681B689A687B681B6842F000
:1030C00080429A600BE07B681B6C43F010027B68C7
:1030D0001A647B685B6C43F001027B685A640023CE
:1030E00018461437BD465DF8047B70471800002071
:1030F00083DE1B43002301400020014000210140EA
:103100000022014080B483B000AF78607B6893F800
:103110003C30012B01D1022321E07B68012283F89E
:103120003C207B681B689A687B681B6822F0010260
:103130009A607B681B689B6803F00103002B09D130
:103140007B681B6C23F4885323F0010343F00102D6
:103150007B681A647B68002283F83C2000231846B1
:103160000C37BD465DF8047B704780B584B000AF76
:10317000786039600023FB607B681B689B6803F400
:103180008063B3F5806F13D17B681B689B6803F481
:103190008073B3F5807F0BD17B681B6C43F02002FA
:1031A0007B681A647B68002283F83C20012363E07B
:1031B000FFF762FEF86021E03B68B3F1FF3F1DD0EE
:1031C0003B68002B07D0FFF757FE0246FB68D31A77
:1031D0003A689A4212D27B681B681B6803F00203AC
:1031E000022B0BD07B681B6C43F004027B681A64D3
:1031F0007B68002283F83C2003233DE07B681B684A
:103200001B6803F00203022BD6D17B681B686FF0AA
:1032100012021A607B681B6C43F400727B681A64AC
:103220007B681B689B6803F04053002B23D17B68AD
:103230001B7E002B1FD17B681B68DB6A03F47003C5
:10324000002B06D07B681B689B6803F48063002B0F
:1032500011D17B681B6C23F480727B681A647B68D5
:103260001B6C03F48053002B05D17B681B6C43F06F
:1032700001027B681A64002318461037BD4680BDE2
:1032800080B483B000AF78607B681B68DB6C184645
:103290000C37BD465DF8047B7047000080B485B0F4
:1032A00000AF786039600023BB607B6893F83C30E6
:1032B000012B01D1022305E17B68012283F83C2028
:1032C0003B681B68092B25D97B681B68D9683B685C
:1032D0001B689BB21A4613465B0013441E3B072231
:1032E00002FA03F3DA437B681B680A40DA607B6802
:1032F0001B68D9683B689A683B681B689BB2184694
:1033000003465B0003441E3B9A407B681B680A43EC
:10331000DA6022E07B681B6819693B681B689BB216
:103320001A4613465B001344072202FA03F3DA43FA
:103330007B681B680A401A617B681B6819693B68D7
:103340009A683B681B689BB2184603465B000344BF
:103350009A407B681B680A431A613B685B68062BCE
:1033600024D87B681B68596B3B685A6813469B00DE
:103370001344053B1F2202FA03F3DA437B681B6800
:103380000A405A637B681B68596B3B681B689BB299
:1033900018463B685A6813469B001344053B00FAE5
:1033A00003F27B681B680A435A634CE03B685B6826
:1033B0000C2B24D87B681B68196B3B685A68134632
:1033C0009B001344233B1F2202FA03F3DA437B687A
:1033D0001B680A401A637B681B68196B3B681B6893
:1033E0009BB218463B685A6813469B001344233B24
:1033F00000FA03F27B681B680A431A6323E07B68C8
:103400001B68D96A3B685A6813469B001344413BCA
:103410001F2202FA03F3DA437B681B680A40DA6270
:103420007B681B68D96A3B681B689BB218463B687F
:103430005A6813469B001344413B00FA03F27B6831
:103440001B680A43DA62224BFB607B681B68214AD7
:10345000934209D13B681B68122B05D1FB685B685E
:1034600043F48002FB685A607B681B68194A9342E8
:1034700023D13B681B68102B03D03B681B68112BC2
:103480001BD1FB685B6843F40002FB685A603B6831
:103490001B68102B11D1104B1B68104AA2FB032391
:1034A0009A0C13469B0013445B00BB6002E0BB68B0
:1034B000013BBB60BB68002BF9D17B68002283F81D
:1034C0003C20002318461437BD465DF8047B704746
:1034D00000230140002001401800002083DE1B4330
:1034E00080B485B000AF7860794BFB60FB685B68A7
:1034F00023F44032FB685A60FB685A687B685B685B
:103500001A43FB685A607B681B685A687B681B68B3
:1035100022F480725A607B681B6859687B681B695B
:103520001A027B681B680A435A607B681B685A68EA
:103530007B681B6822F040725A607B681B68596880
:103540007B689A687B681B680A435A607B681B68C3
:103550009A687B681B6822F400629A607B681B682B
:1035600099687B68DA687B681B680A439A607B68A5
:103570009B6A584A934222D07B681B689A687B6892
:103580001B6822F070629A607B681B6899687B6890
:103590009A6A7B681B680A439A607B681B689A6812
:1035A0007B681B6822F040529A607B681B689968B0
:1035B0007B68DA6A7B681B680A439A600FE07B6865
:1035C0001B689A687B681B6822F070629A607B684F
:1035D0001B689A687B681B6822F040529A607B687F
:1035E0001B689A687B681B6822F002029A607B68FD
:1035F0001B6899687B681B7E5A007B681B680A43BE
:103600009A607B6893F82030002B1BD07B681B6886
:103610005A687B681B6842F400625A607B681B68CA
:103620005A687B681B6822F460425A607B681B689A
:1036300059687B685B6A013B5A037B681B680A43D5
:103640005A6007E07B681B685A687B681B6822F435
:1036500000625A607B681B68DA6A7B681B6822F428
:103660007002DA627B681B68D96A7B68DB69013BA0
:103670001A057B681B680A43DA627B681B689A68D4
:103680007B681B6822F400729A607B681B689968EB
:103690007B6893F830305A027B681B680A439A6053
:1036A0007B681B689A687B681B6822F480629A605A
:1036B0007B681B6899687B685B699A027B681B68FA
:1036C0000A439A6000BF1437BD465DF8047B70471B
:1036D000002301400100000F80B485B000AF786086
:1036E0007B6803F00703FB600C4BDB68BB60BA68C8
:1036F0004FF6FF031340BB60FB681A02BB6813431D
:1037000043F0BF6343F40033BB60044ABB68D3603B
:1037100000BF1437BD465DF8047B704700ED00E044
:1037200080B400AF044BDB681B0A03F007031846A4
:10373000BD465DF8047B704700ED00E080B483B0C7
:1037400000AF0346FB7197F90730002B0BDBFB79C9
:1037500003F01F02074997F907305B09012000FABF
:1037600002F241F8232000BF0C37BD465DF8047B10
:10377000704700BF00E100E080B483B000AF0346B3
:103780003960FB7197F90730002B0ADB3B68DAB22E
:103790000C4997F907301201D2B20B4483F8002389
:1037A0000AE03B68DAB20849FB7903F00F03043BF7
:1037B0001201D2B20B441A7600BF0C37BD465DF839
:1037C000047B704700E100E000ED00E080B489B0C8
:1037D00000AFF860B9607A60FB6803F00703FB6133
:1037E000FB69C3F10703042B28BF0423BB61FB69FA
:1037F0000433062B02D9FB69033B00E000237B6105
:103800004FF0FF32BB6902FA03F3DA43BB681A4098
:103810007B699A404FF0FF317B6901FA03F3D9438A
:103820007B680B40134318462437BD465DF8047B84
:103830007047000080B582B000AF78607B68013BC4
:10384000B3F1807F01D301230FE00A4A7B68013B7B
:1038500053600F214FF0FF30FFF78EFF054B002222
:103860009A60044B07221A60002318460837BD46A9
:1038700080BD00BF10E000E080B582B000AF78608E
:103880007868FFF729FF00BF0837BD4680BD80B5C7
:1038900086B000AF0346B9607A60FB7300237B619A
:1038A000FFF73EFF78617A68B9687869FFF78EFFA5
:1038B000024697F90F3011461846FFF75DFF00BF2B
:1038C0001837BD4680BD80B582B000AF0346FB719E
:1038D00097F907301846FFF731FF00BF0837BD469C
:1038E00080BD80B582B000AF78607868FFF7A2FF36
:1038F000034618460837BD4680BD80B584B000AF8A
:1039000078607B689B6DFB60FFF7B6FAB8607B68F8
:1039100093F83530DBB2022B08D07B6880225A65E1
:103920007B68002283F83420012352E07B681B6807
:103930001A687B681B6822F016021A607B681B6895
:103940005A697B681B6822F080025A617B681B6C95
:10395000002B03D17B689B6C002B07D07B681B6816
:103960001A687B681B6822F008021A607B681B6873
:103970001A687B681B6822F001021A6013E0FFF7E7
:103980007BFA0246BB68D31A052B0CD97B68202230
:103990005A657B68032283F835207B68002283F810
:1039A0003420032315E07B681B681B6803F00103C8
:1039B000002BE4D17B68DB6D3F229A40FB689A6064
:1039C0007B68012283F835207B68002283F834204D
:1039D000002318461037BD4680BD80B483B000AFC9
:1039E00078607B6893F83530DBB2022B04D07B68BB
:1039F00080225A6501230CE07B68052283F835207C
:103A00007B681B681A687B681B6822F001021A60D9
:103A1000002318460C37BD465DF8047B7047000054
:103A200080B489B000AF7860396000237B610023E7
:103A30003B610023BB610023FB616BE10122FB6959
:103A400002FA03F37B613B681B687A6913403B61B0
:103A50003A697B699A4240F05A813B685B6803F09F
:103A60000303012B05D03B685B6803F00303022BC3
:103A700030D17B689B68BB61FB695B00032202FA63
:103A800003F3DB43BA691340BB613B68DA68FB6947
:103A90005B0002FA03F3BA691343BB617B68BA693E
:103AA0009A607B685B68BB610122FB6902FA03F3E1
:103AB000DB43BA691340BB613B685B681B0903F0D9
:103AC0000102FB6902FA03F3BA691343BB617B6825
:103AD000BA695A603B685B6803F00303032B17D095
:103AE0007B68DB68BB61FB695B00032202FA03F3BE
:103AF000DB43BA691340BB613B689A68FB695B00B2
:103B000002FA03F3BA691343BB617B68BA69DA60EE
:103B10003B685B6803F00303022B23D1FB69DA08DF
:103B20007B68083253F82230BB61FB6903F007035E
:103B30009B000F2202FA03F3DB43BA691340BB6117
:103B40003B681A69FB6903F007039B0002FA03F361
:103B5000BA691343BB61FB69DA087B680832B9694B
:103B600043F822107B681B68BB61FB695B00032282
:103B700002FA03F3DB43BA691340BB613B685B683D
:103B800003F00302FB695B0002FA03F3BA69134313
:103B9000BB617B68BA691A603B685B6803F44033B9
:103BA000002B00F0B4800023FB60604B5B6C5F4A2D
:103BB00043F4804353645D4B5B6C03F48043FB60D0
:103BC000FB685B4AFB699B08023352F82330BB61F8
:103BD000FB6903F003039B000F2202FA03F3DB43AC
:103BE000BA691340BB617B68524A93422BD07B6811
:103BF000514A934225D07B68504A93421FD07B683C
:103C00004F4A934219D07B684E4A934213D07B6847
:103C10004D4A93420DD07B684C4A934207D07B6853
:103C20004B4A934201D107230EE008230CE0062300
:103C30000AE0052308E0042306E0032304E002234E
:103C400002E0012300E00023FA6902F0030292007F
:103C50009340BA691343BB613549FB699B08023342
:103C6000BA6941F823203B4B9B68BB613B69DB434E
:103C7000BA691340BB613B685B6803F48013002B97
:103C800003D0BA693B691343BB61324ABB69936095
:103C9000304BDB68BB613B69DB43BA691340BB61F6
:103CA0003B685B6803F40013002B03D0BA693B69DF
:103CB0001343BB61274ABB69D360264B5B68BB617A
:103CC0003B69DB43BA691340BB613B685B6803F443
:103CD0000033002B03D0BA693B691343BB611D4A13
:103CE000BB6953601B4B1B68BB613B69DB43BA6913
:103CF0001340BB613B685B6803F48033002B03D047
:103D0000BA693B691343BB61124ABB691360FB6923
:103D10000133FB61FB690F2B7FF690AE00BF00BF44
:103D20002437BD465DF8047B704700BF0038024071
:103D30000038014000000240000402400008024038
:103D4000000C024000100240001402400018024023
:103D5000001C0240003C014080B485B000AF786098
:103D60000B467B807B681A697B881340002B02D04E
:103D70000123FB7301E00023FB73FB7B1846143720
:103D8000BD465DF8047B704780B483B000AF7860B7
:103D90000B467B8013467B707B78002B03D07A88A0
:103DA0007B689A6103E07B881A047B689A6100BF94
:103DB0000C37BD465DF8047B704780B485B000AF1A
:103DC00078600B467B807B685B69FB607A88FB6868
:103DD00013401A04FB68D9437B880B401A437B6865
:103DE0009A6100BF1437BD465DF8047B7047000040
:103DF00080B584B000AF78607B68002B01D10123CF
:103E00002BE17B6893F83D30DBB2002B06D17B6859
:103E1000002283F83C207868FEF76CFC7B68242243
:103E200083F83D207B681B681A687B681B6822F05A
:103E300001021A607B681B681A687B681B6842F481
:103E400000421A607B681B681A687B681B6822F452
:103E500000421A6001F048FCF8607B685B68814AA8
:103E6000934207D8FB68804A934294BF0123002302
:103E7000DBB206E0FB687D4A934294BF0123002336
:103E8000DBB2002B01D00123E7E0FB68784AA2FBFC
:103E900003239B0CBB607B681B685B6823F03F01BE
:103EA0007B681B68BA680A435A607B681B681B6A98
:103EB00023F03F017B685B686A4A934202D8BB6883
:103EC000013309E0BB684FF4967202FB03F3694AC1
:103ED000A2FB03239B0901337A6812680B43136228
:103EE0007B681B68DB6923F44F4222F0FF027B688A
:103EF0005B685C498B4219D8FB68591E7B685B681C
:103F00005B00B1FBF3F3591C40F6FC730B40002B34
:103F10000AD0FB68591E7B685B685B00B1FBF3F35A
:103F20000133C3F30B0351E004234FE07B689B682C
:103F3000002B11D1FB68581E7B6859680B465B004B
:103F40000B44B0FBF3F30133C3F30B03002B0CBFA3
:103F500001230023DBB212E0FB68581E7B6859681E
:103F60000B469B000B4499000B44B0FBF3F3013369
:103F7000C3F30B03002B0CBF01230023DBB2002B88
:103F800001D0012322E07B689B68002B0ED1FB68E7
:103F9000581E7B6859680B465B000B44B0FBF3F37B
:103FA0000133C3F30B0343F400430FE0FB68581ED7
:103FB0007B6859680B469B000B4499000B44B0FB8F
:103FC000F3F30133C3F30B0343F440437968096807
:103FD0001343CB617B681B681B6823F0C0017B68BF
:103FE000DA697B681B6A1A437B681B680A431A609C
:103FF0007B681B689B6823F4034323F0FF037A6804
:1040000011697A68D26811437A6812680B43936029
:104010007B681B68DB6823F0FF017B685A697B685B
:104020009B691A437B681B680A43DA607B681B68DC
:104030001A687B681B6842F001021A607B680022E4
:104040001A647B68202283F83D207B6800221A6373
:104050007B68002283F83E20002318461037BD46B7
:1040600080BD00BFA08601007F841E00FF083D00C8
:1040700083DE1B43D34D621080B588B002AFF86079
:10408000084611461A4603467B810B463B81134680
:10409000FB80FEF7F1FE7861FB6893F83D30DBB200
:1040A000202B40F0D9807B690093192301226D49B0
:1040B000F86800F08BFC0346002B01D00223CCE013
:1040C000FB6893F83C30012B01D10223C5E0FB686B
:1040D000012283F83C20FB681B681B6803F0010386
:1040E000012B07D0FB681B681A68FB681B6842F04D
:1040F00001021A60FB681B681A68FB681B6822F4DF
:1041000000621A60FB68212283F83D20FB68402290
:1041100083F83E20FB6800221A64FB683A6A5A6200
:10412000FB68BA8C5A85FB685B8D9AB2FB681A856E
:10413000FB684D4ADA62F8883A8979897B6901938C
:10414000BB6A00930346F86800F0C2FA0346002BEE
:1041500052D0012381E07A69B96AF86800F050FD15
:104160000346002B0DD0FB681B6C042B07D1FB68AA
:104170001B681A68FB681B6842F400721A6001230E
:104180006BE0FB685B6A1A78FB681B681A61FB6866
:104190005B6A5A1CFB685A62FB681B8D013B9AB232
:1041A000FB681A85FB685B8D9BB2013B9AB2FB688A
:1041B0005A85FB681B685B6903F00403042B1BD161
:1041C000FB681B8D002B17D0FB685B6A1A78FB68B5
:1041D0001B681A61FB685B6A5A1CFB685A62FB68C1
:1041E0001B8D013B9AB2FB681A85FB685B8D9BB205
:1041F000013B9AB2FB685A85FB681B8D002BAAD144
:104200007A69B96AF86800F043FD0346002B0DD0C7
:10421000FB681B6C042B07D1FB681B681A68FB68E2
:104220001B6842F400721A60012316E0FB681B68E9
:104230001A68FB681B6842F400721A60FB6820224F
:1042400083F83D20FB68002283F83E20FB680022B3
:1042500083F83C20002300E0022318461837BD46AF
:1042600080BD00BF020010000000FFFF80B58CB0D1
:1042700002AFF860084611461A4603467B810B469A
:104280003B811346FB80FEF7F7FD7862FB6893F8ED
:104290003D30DBB2202B40F014827B6A009319235F
:1042A00001227B49F86800F091FB0346002B01D006
:1042B000022307E2FB6893F83C30012B01D1022373
:1042C00000E2FB68012283F83C20FB681B681B6846
:1042D00003F00103012B07D0FB681B681A68FB6819
:1042E0001B6842F001021A60FB681B681A68FB68D1
:1042F0001B6822F400621A60FB68222283F83D20CA
:10430000FB68402283F83E20FB6800221A64FB68A9
:104310003A6B5A62FB68BA8E5A85FB685B8D9AB21B
:10432000FB681A85FB685B4ADA62F8883A89798902
:104330007B6A0193BB6B00930346F86800F05EFA5A
:104340000346002B01D00123BCE1FB681B8D002B31
:1043500013D100233B62FB681B685B693B62FB680F
:104360001B689B693B623B6AFB681B681A68FB68B9
:104370001B6842F400721A6090E1FB681B8D012BF0
:104380001BD1FB681B681A68FB681B6822F48062FB
:104390001A600023FB61FB681B685B69FB61FB68BB
:1043A0001B689B69FB61FB69FB681B681A68FB68FB
:1043B0001B6842F400721A6070E1FB681B8D022BCF
:1043C0001BD1FB681B681A68FB681B6822F48062BB
:1043D0001A60FB681B681A68FB681B6842F400627D
:1043E0001A600023BB61FB681B685B69BB61FB68EB
:1043F0001B689B69BB61BB6950E100237B61FB6863
:104400001B685B697B61FB681B689B697B617B69DF
:1044100044E1FB681B8D032B00F2F180FB681B8DD0
:10442000012B23D17A6AB96BF86800F079FC034656
:10443000002B01D0012345E1FB681B681A69FB686A
:104440005B6AD2B21A70FB685B6A5A1CFB685A62DC
:10445000FB681B8D013B9AB2FB681A85FB685B8D7C
:104460009BB2013B9AB2FB685A8517E1FB681B8D32
:10447000022B4ED17B6A0093BB6B00220649F86881
:1044800000F0A4FA0346002B08D001231AE100BF74
:10449000020010000000FFFF04000100FB681B6821
:1044A0001A68FB681B6842F400721A60FB681B689C
:1044B0001A69FB685B6AD2B21A70FB685B6A5A1CA5
:1044C000FB685A62FB681B8D013B9AB2FB681A8538
:1044D000FB685B8D9BB2013B9AB2FB685A85FB6817
:1044E0001B681A69FB685B6AD2B21A70FB685B6A68
:1044F0005A1CFB685A62FB681B8D013B9AB2FB6831
:104500001A85FB685B8D9BB2013B9AB2FB685A85AA
:10451000C4E07B6A0093BB6B00226C49F86800F032
:1045200055FA0346002B01D00123CBE0FB681B6842
:104530001A68FB681B6822F480621A60FB681B68BB
:104540001A69FB685B6AD2B21A70FB685B6A5A1C14
:10455000FB685A62FB681B8D013B9AB2FB681A85A7
:10456000FB685B8D9BB2013B9AB2FB685A857B6A04
:104570000093BB6B00225549F86800F027FA034608
:10458000002B01D001239DE0FB681B681A68FB68C3
:104590001B6842F400721A60FB681B681A69FB68AA
:1045A0005B6AD2B21A70FB685B6A5A1CFB685A627B
:1045B000FB681B8D013B9AB2FB681A85FB685B8D1B
:1045C0009BB2013B9AB2FB685A85FB681B681A696B
:1045D000FB685B6AD2B21A70FB685B6A5A1CFB68A4
:1045E0005A62FB681B8D013B9AB2FB681A85FB6817
:1045F0005B8D9BB2013B9AB2FB685A854EE07A6AAA
:10460000B96BF86800F08CFB0346002B01D0012346
:1046100058E0FB681B681A69FB685B6AD2B21A70C3
:10462000FB685B6A5A1CFB685A62FB681B8D013B86
:104630009AB2FB681A85FB685B8D9BB2013B9AB20C
:10464000FB685A85FB681B685B6903F00403042B55
:1046500024D1FB681B8D032B07D1FB681B681A68EC
:10466000FB681B6822F480621A60FB681B681A6989
:10467000FB685B6AD2B21A70FB685B6A5A1CFB6803
:104680005A62FB681B8D013B9AB2FB681A85FB6876
:104690005B8D9BB2013B9AB2FB685A85FB681B8D10
:1046A000002B7FF4B6AEFB68202283F83D20FB6828
:1046B000002283F83E20FB68002283F83C20002380
:1046C00000E0022318462837BD4680BD04000100E3
:1046D00080B588B002AFF860084611461A46034616
:1046E0007B810B463B811346FB80FB681B681A6885
:1046F000FB681B6842F480721A607B6A00933B6A15
:1047000000224FF00111F86800F060F90346002B19
:104710000DD0FB681B681B6803F48073B3F5807FC2
:1047200003D1FB684FF400721A6403235FE07B89B6
:10473000DBB21A46FB681B6802F0FE021A617B6A54
:104740003A6A2D49F86800F0BBF90346002B01D006
:1047500001234CE000237B61FB681B685B697B6184
:10476000FB681B689B697B617B697A6A396AF868B8
:1047700000F046FA0346002B0DD0FB681B6C042B9F
:1047800007D1FB681B681A68FB681B6842F400725B
:104790001A6001232BE0FB88012B05D13B89DAB29B
:1047A000FB681B681A6121E03B891B0A9BB2DAB2E5
:1047B000FB681B681A617A6A396AF86800F020FAA7
:1047C0000346002B0DD0FB681B6C042B07D1FB6844
:1047D0001B681A68FB681B6842F400721A600123A8
:1047E00005E03B89DAB2FB681B681A6100231846B2
:1047F0001837BD4680BD00BF0200010080B588B0FB
:1048000002AFF860084611461A4603467B810B4604
:104810003B811346FB80FB681B681A68FB681B68BA
:1048200042F480621A60FB681B681A68FB681B68A8
:1048300042F480721A607B6A00933B6A00224FF058
:104840000111F86800F0C2F80346002B0DD0FB6898
:104850001B681B6803F48073B3F5807F03D1FB688A
:104860004FF400721A640323AAE07B89DBB21A4674
:10487000FB681B6802F0FE021A617B6A3A6A5249C1
:10488000F86800F01DF90346002B01D0012397E0E2
:1048900000237B61FB681B685B697B61FB681B68AD
:1048A0009B697B617B697A6A396AF86800F0A8F9CC
:1048B0000346002B0DD0FB681B6C042B07D1FB6853
:1048C0001B681A68FB681B6842F400721A600123B7
:1048D00076E0FB88012B05D13B89DAB2FB681B68C7
:1048E0001A6121E03B891B0A9BB2DAB2FB681B68A4
:1048F0001A617A6A396AF86800F082F90346002B77
:104900000DD0FB681B6C042B07D1FB681B681A6871
:10491000FB681B6842F400721A60012350E03B8977
:10492000DAB2FB681B681A617A6A396AF86800F0C3
:1049300067F90346002B0DD0FB681B6C042B07D1D5
:10494000FB681B681A68FB681B6842F400721A60F7
:10495000012335E0FB681B681A68FB681B6842F49A
:1049600080721A607B6A00933B6A00224FF001114B
:10497000F86800F02BF80346002B0DD0FB681B688D
:104980001B6803F48073B3F5807F03D1FB684FF499
:1049900000721A64032313E07B89DBB243F0010346
:1049A000DAB2FB681B681A617B6A3A6A0649F868E2
:1049B00000F086F80346002B01D0012300E000231D
:1049C00018461837BD4680BD0200010080B584B08E
:1049D00000AFF860B9603B601346FB7148E03B688C
:1049E000B3F1FF3F44D0FEF747FA0246BB69D31A42
:1049F0003A689A4202D33B68002B39D1BB681B0C42
:104A0000DBB2012B0DD1FB681B685B69DA43BB6825
:104A100013409BB2002B0CBF01230023DBB21A46CC
:104A20000CE0FB681B689B69DA43BB6813409BB2D0
:104A3000002B0CBF01230023DBB21A46FB799A42FC
:104A400016D1FB6800221A63FB68202283F83D2000
:104A5000FB68002283F83E20FB681B6C43F02002B9
:104A6000FB681A64FB68002283F83C20012323E0E2
:104A7000BB681B0CDBB2012B0DD1FB681B685B69AB
:104A8000DA43BB6813409BB2002B0CBF0123002309
:104A9000DBB21A460CE0FB681B689B69DA43BB6813
:104AA00013409BB2002B0CBF01230023DBB21A463C
:104AB000FB799A4293D0002318461037BD4680BD3B
:104AC00080B584B000AFF860B9607A603B6071E097
:104AD000FB681B685B6903F48063B3F5806F23D1C7
:104AE000FB681B681A68FB681B6842F400721A6056
:104AF000FB681B686FF480625A61FB6800221A63CE
:104B0000FB68202283F83D20FB68002283F83E20CA
:104B1000FB681B6C43F00402FB681A64FB6800220C
:104B200083F83C20012367E07B68B3F1FF3F41D06D
:104B3000FEF7A2F902463B68D31A7A689A4202D37A
:104B40007B68002B36D1BB681B0CDBB2012B0CD170
:104B5000FB681B685B69DA43BB6813409BB2002BA0
:104B600014BF01230023DBB20BE0FB681B689B69C9
:104B7000DA43BB6813409BB2002B14BF0123002310
:104B8000DBB2002B16D0FB6800221A63FB682022E0
:104B900083F83D20FB68002283F83E20FB681B6CF5
:104BA00043F02002FB681A64FB68002283F83C2073
:104BB000012321E0BB681B0CDBB2012B0CD1FB688D
:104BC0001B685B69DA43BB6813409BB2002B14BFC0
:104BD00001230023DBB20BE0FB681B689B69DA430F
:104BE000BB6813409BB2002B14BF01230023DBB230
:104BF000002B7FF46DAF002318461037BD4680BDF3
:104C000080B584B000AFF860B9607A6034E0F868CD
:104C100000F0E3F80346002B01D0012334E0BB6829
:104C2000B3F1FF3F28D0FEF727F902467B68D31A7D
:104C3000BA689A4202D3BB68002B1DD1FB681B687F
:104C40005B6903F08003802B16D0FB6800221A6397
:104C5000FB68202283F83D20FB68002283F83E2079
:104C6000FB681B6C43F02002FB681A64FB6800229F
:104C700083F83C20012307E0FB681B685B6903F0B5
:104C80008003802BC3D1002318461037BD4680BD5A
:104C900080B584B000AFF860B9607A6034E0F8683D
:104CA00000F09BF80346002B01D0012334E0BB68E1
:104CB000B3F1FF3F28D0FEF7DFF802467B68D31A36
:104CC000BA689A4202D3BB68002B1DD1FB681B68EF
:104CD0005B6903F00403042B16D0FB6800221A63FF
:104CE000FB68202283F83D20FB68002283F83E20E9
:104CF000FB681B6C43F02002FB681A64FB6800220F
:104D000083F83C20012307E0FB681B685B6903F024
:104D10000403042BC3D1002318461037BD4680BDC1
:104D200080B584B000AFF860B9607A6049E0FB6894
:104D30001B685B6903F01003102B19D1FB681B681B
:104D40006FF010025A61FB6800221A63FB68202290
:104D500083F83D20FB68002283F83E20FB681A6C34
:104D6000FB681A64FB68002283F83C20012330E0D2
:104D7000FEF782F802467B68D31ABA689A4202D3D9
:104D8000BB68002B1DD1FB681B685B6903F0400307
:104D9000402B16D0FB6800221A63FB68202283F8A0
:104DA0003D20FB68002283F83E20FB681B6C43F02B
:104DB0002002FB681A64FB68002283F83C20012370
:104DC00007E0FB681B685B6903F04003402BAED132
:104DD000002318461037BD4680BD80B483B000AFB5
:104DE00078607B681B685B6903F48063B3F5806F50
:104DF0001BD17B681B686FF480625A617B6800225C
:104E00001A637B68202283F83D207B68002283F8A8
:104E10003E207B681B6C43F004027B681A647B684D
:104E2000002283F83C20012300E0002318460C37C1
:104E3000BD465DF8047B704780B483B000AF064B7D
:104E400001221A60054B1B687B607B6800BF0C3732
:104E5000BD465DF8047B704720000E4200700040A4
:104E600080B483B000AF064B00221A60054B1B686C
:104E70007B607B6800BF0C37BD465DF8047B7047E4
:104E800020000E420070004080B586B000AF786010
:104E90007B68002B01D1012367E27B681B6803F06C
:104EA0000103002B75D0884B9B6803F00C03042B87
:104EB0000CD0854B9B6803F00C03082B12D1824B5E
:104EC0005B6803F48003B3F5800F0BD17E4B1B6846
:104ED00003F40033002B5BD07B685B68002B57D159
:104EE000012342E27B685B68B3F5803F06D1764BD5
:104EF0001B68754A43F4803313601DE07B685B6870
:104F0000B3F5A02F0CD1704B1B686F4A43F480237C
:104F100013606D4B1B686C4A43F4803313600BE0E5
:104F2000694B1B68684A23F480331360664B1B6827
:104F3000654A23F4802313607B685B68002B13D0E1
:104F4000FDF79AFF386108E0FDF796FF02463B69DE
:104F5000D31A642B01D9032307E25B4B1B6803F4CC
:104F60000033002BF0D014E0FDF786FF386108E035
:104F7000FDF782FF02463B69D31A642B01D9032354
:104F8000F3E1514B1B6803F40033002BF0D100E038
:104F900000BF7B681B6803F00203002B63D04A4B01
:104FA0009B6803F00C03002B0BD0474B9B6803F06E
:104FB0000C03082B1CD1444B5B6803F48003002BCB
:104FC00016D1414B1B6803F00203002B05D07B6810
:104FD000DB68012B01D00123C7E13B4B1B6823F0A9
:104FE000F8027B681B69DB00374913430B603AE02A
:104FF0007B68DB68002B20D0344B01221A60FDF760
:105000003BFF386108E0FDF737FF02463B69D31AE2
:10501000022B01D90323A8E12B4B1B6803F00203E9
:10502000002BF0D0284B1B6823F0F8027B681B692B
:10503000DB00254913430B6015E0244B00221A6066
:10504000FDF71AFF386108E0FDF716FF02463B69DD
:10505000D31A022B01D9032387E11B4B1B6803F0F2
:105060000203002BF0D17B681B6803F00803002BC0
:1050700036D07B685B69002B16D0154B01221A6075
:10508000FDF7FAFE386108E0FDF7F6FE02463B69DF
:10509000D31A022B01D9032367E10B4B5B6F03F09B
:1050A0000203002BF0D01BE0094B00221A60FDF731
:1050B000E3FE38610EE0FDF7DFFE02463B69D31ADE
:1050C000022B07D9032350E1003802400000474279
:1050D000800E4742884B5B6F03F00203002BEAD13E
:1050E0007B681B6803F00403002B00F0978000230B
:1050F000FB75814B1B6C03F08053002B0FD10023F9
:10510000BB607D4B1B6C7C4A43F0805313647A4B2D
:105110001B6C03F08053BB60BB680123FB75774BAE
:105120001B6803F48073002B18D1744B1B68734AFF
:1051300043F480731360FDF79FFE386108E0FDF7CC
:105140009BFE02463B69D31A022B01D903230CE1D3
:105150006A4B1B6803F48073002BF0D07B689B685C
:10516000012B06D1644B1B6F634A43F001031367A5
:105170001CE07B689B68052B0CD15F4B1B6F5E4A64
:1051800043F0040313675C4B1B6F5B4A43F001035E
:1051900013670BE0584B1B6F574A23F0010313674B
:1051A000554B1B6F544A23F0040313677B689B68BD
:1051B000002B15D0FDF760FE38610AE0FDF75CFEBC
:1051C00002463B69D31A41F28832934201D9032344
:1051D000CBE0494B1B6F03F00203002BEED014E031
:1051E000FDF74AFE38610AE0FDF746FE02463B69DC
:1051F000D31A41F28832934201D90323B5E03E4BE2
:105200001B6F03F00203002BEED1FB7D012B05D1B8
:10521000394B1B6C384A23F0805313647B689B69BD
:10522000002B00F0A180344B9B6803F00C03082B8B
:105230005CD07B689B69022B41D1314B00221A6004
:10524000FDF71AFE386108E0FDF716FE02463B69DD
:10525000D31A022B01D9032387E0274B1B6803F0E5
:105260000073002BF0D17B68DA697B681B6A1A43F4
:105270007B685B6A9B011A437B689B6A5B08013B06
:105280001B041A437B68DB6A1B061B4913434B60F4
:105290001B4B01221A60FDF7EFFD386108E0FDF7B6
:1052A000EBFD02463B69D31A022B01D903235CE0D4
:1052B000114B1B6803F00073002BF0D054E0104B2F
:1052C00000221A60FDF7D8FD386108E0FDF7D4FD33
:1052D00002463B69D31A022B01D9032345E0064B52
:1052E0001B6803F00073002BF0D13DE07B689B69E5
:1052F000012B07D1012338E0003802400070004044
:10530000600047421B4B5B68FB607B689B69012B1D
:1053100028D0FB6803F480027B68DB699A4221D1C4
:10532000FB6803F03F027B681B6A9A421AD1FA6855
:1053300047F6C07313407A68526A9201934211D1C2
:10534000FB6803F440327B689B6A5B08013B1B04EB
:105350009A4207D1FB6803F070627B68DB6A1B0628
:105360009A4201D0012300E0002318461837BD46B9
:1053700080BD00BF0038024080B584B000AF7860C7
:1053800039607B68002B01D10123CCE0684B1B689E
:1053900003F007033A689A420CD9654B3A68D2B2D7
:1053A0001A70634B1B6803F007033A689A4201D0F6
:1053B0000123B8E07B681B6803F00203002B20D0B8
:1053C0007B681B6803F00403002B05D0594B9B68D6
:1053D000584A43F4E05393607B681B6803F008036A
:1053E000002B05D0534B9B68524A43F460439360B3
:1053F000504B9B6823F0F0027B689B684D49134338
:105400008B607B681B6803F00103002B44D07B6832
:105410005B68012B07D1474B1B6803F40033002B5B
:1054200019D101237FE07B685B68022B03D07B6886
:105430005B68032B07D13F4B1B6803F00073002B05
:1054400009D101236FE03B4B1B6803F00203002BE3
:1054500001D1012367E0374B9B6823F003027B688F
:105460005B68344913438B60FDF706FDF8600AE082
:10547000FDF702FD0246FB68D31A41F288329342DF
:1054800001D903234FE02B4B9B6803F00C027B6890
:105490005B689B009A42EBD1254B1B6803F0070326
:1054A0003A689A420CD2224B3A68D2B21A70204B18
:1054B0001B6803F007033A689A4201D0012332E0E7
:1054C0007B681B6803F00403002B08D0194B9B6812
:1054D00023F4E0527B68DB68164913438B607B68DA
:1054E0001B6803F00803002B09D0124B9B6823F4C0
:1054F00060427B681B69DB000E4913438B6000F040
:1055000021F802460B4B9B681B0903F00F030A4965
:10551000CB5C22FA03F3094A1360094B1B68184657
:10552000FDF766FC002318461037BD4680BD00BF5E
:10553000003C02400038024080E7000818000020CC
:105540001C0000202DE9B04F90B000AF00237B631A
:105550000023FB6300233B630023BB63594B9B6821
:1055600003F00C03082B0DD0082B00F2A180002BB8
:1055700002D0042B03D09BE0534BBB639BE0534B07
:10558000BB6398E04F4B5B6803F03F037B634D4B7D
:105590005B6803F48003002B28D04A4B5B689B09AF
:1055A00000223B627A623B6AC3F308000021474B4A
:1055B00003FB01F2002300FB03F31344434AA0FB67
:1055C0000212FA620A46BA62FA6A1344FB627B6B01
:1055D0000022BB61FA61D7E90623D7E90A01FBF78C
:1055E00053FB02460B461346FB6353E0354B5B68A7
:1055F0009B0900223B617A613B69C3F3080A4FF0C3
:10560000000B52465B464FF000004FF0000159017D
:1056100041EAD261500102460B46B2EB0A0863EB45
:105620000B094FF000024FF000034FEA891343EAE1
:1056300098634FEA8812B2EB080463EB09054FF058
:1056400000024FF00003EB0043EA5473E2001446FB
:105650001D4614EB0A033B6045EB0B037B604FF0E8
:1056600000024FF00003D7E9004529468B0221468E
:1056700043EA915321468A02104619467B6B002269
:10568000BB60FA60D7E90223FBF7FEFA02460B463D
:105690001346FB630B4B5B681B0C03F003030133E6
:1056A0005B003B63FA6B3B6BB2FBF3F3BB6302E063
:1056B000054BBB6300BFBB6B18464037BD46BDE81A
:1056C000B08F00BF003802400024F40040787D0114
:1056D00080B400AF034B1B681846BD465DF8047BE1
:1056E000704700BF1800002080B500AFFFF7F0FF43
:1056F0000246054B9B689B0A03F007030349CB5CFA
:1057000022FA03F3184680BD0038024090E70008F3
:1057100080B500AFFFF7DCFF0246054B9B685B0BD3
:1057200003F007030349CB5C22FA03F3184680BD5C
:105730000038024090E7000880B582B000AF786082
:105740007B68002B01D1012341E07B6893F83D3059
:10575000DBB2002B06D17B68002283F83C207868FE
:10576000FDF710F87B68022283F83D207B681A68F9
:105770007B6804331946104600F0F0FF7B68012275
:1057800083F846207B68012283F83E207B68012253
:1057900083F83F207B68012283F840207B68012248
:1057A00083F841207B68012283F842207B68012234
:1057B00083F843207B68012283F844207B68012220
:1057C00083F845207B68012283F83D20002318469A
:1057D0000837BD4680BD000080B485B000AF78605A
:1057E0007B6893F83D30DBB2012B01D0012346E00A
:1057F0007B68022283F83D207B681B68234A934222
:1058000022D07B681B68B3F1804F1DD07B681B687A
:105810001F4A934218D07B681B681E4A934213D0DC
:105820007B681B681C4A93420ED07B681B681B4A2E
:10583000934209D07B681B68194A934204D07B6865
:105840001B68184A934211D17B681B689B6803F060
:105850000703FB60FB68062B10D07B681B681A6887
:105860007B681B6842F001021A6007E07B681B68D6
:105870001A687B681B6842F001021A600023184610
:105880001437BD465DF8047B704700BF000001403F
:105890000004004000080040000C004000040140EB
:1058A000004001400018004080B582B000AF786031
:1058B0007B68002B01D1012341E07B6893F83D30E8
:1058C000DBB2002B06D17B68002283F83C2078688D
:1058D00000F039F87B68022283F83D207B681A6863
:1058E0007B6804331946104600F038FF7B680122BC
:1058F00083F846207B68012283F83E207B680122E2
:1059000083F83F207B68012283F840207B680122D6
:1059100083F841207B68012283F842207B680122C2
:1059200083F843207B68012283F844207B680122AE
:1059300083F845207B68012283F83D200023184628
:105940000837BD4680BD80B483B000AF786000BF2B
:105950000C37BD465DF8047B7047000080B584B00D
:1059600000AF786039603B68002B09D17B6893F801
:105970003E30DBB2012B14BF01230023DBB222E057
:105980003B68042B09D17B6893F83F30DBB2012BD5
:1059900014BF01230023DBB215E03B68082B09D1BB
:1059A0007B6893F84030DBB2012B14BF0123002346
:1059B000DBB208E07B6893F84130DBB2012B14BF07
:1059C00001230023DBB2002B01D001237CE03B68E4
:1059D000002B04D17B68022283F83E2013E03B6851
:1059E000042B04D17B68022283F83F200BE03B6844
:1059F000082B04D17B68022283F8402003E07B68F7
:105A0000022283F841207B681B680122396818460E
:105A100001F0C4FA7B681B682D4A934204D07B686E
:105A20001B682C4A934201D1012300E00023002B84
:105A300007D07B681B685A6C7B681B6842F4004285
:105A40005A647B681B68224A934222D07B681B6899
:105A5000B3F1804F1DD07B681B681F4A934218D05A
:105A60007B681B681D4A934213D07B681B681C4AE5
:105A700093420ED07B681B68164A934209D07B681C
:105A80001B68184A934204D07B681B68164A9342ED
:105A900011D17B681B689B6803F00703FB60FB6800
:105AA000062B10D07B681B681A687B681B6842F065
:105AB00001021A6007E07B681B681A687B681B6834
:105AC00042F001021A60002318461037BD4680BD1F
:105AD00000000140000401400004004000080040B4
