:020000040800F2
:1000000000000220C1400008993E0008A13E0008FF
:10001000A93E0008B13E0008B93E000800000000FB
:1000200000000000000000000000000071C2000895
:10003000C13E000800000000C1C40008CF3E000817
:100040001141000811410008114100081141000848
:100050001141000811410008114100081141000838
:100060001141000811410008114100081141000828
:100070001141000811410008114100081141000818
:100080001141000811410008114100081141000808
:1000900011410008114100081141000811410008F8
:1000A00011410008114100081141000811410008E8
:1000B0001141000811410008E93E00081141000803
:1000C00011410008114100081141000811410008C8
:1000D000114100081141000811410008FD3E0008CF
:1000E00011410008114100081141000811410008A8
:1000F0001141000811410008114100081141000898
:100100001141000811410008114100081141000887
:100110001141000811410008114100081141000877
:100120001141000811410008114100081141000867
:100130001141000811410008114100081141000857
:100140001141000811410008114100081141000847
:100150001141000811410008114100081141000837
:100160001141000811410008114100081141000827
:100170001141000811410008114100080000000071
:080180001141000811410008C3
:1001900010B5054C237833B9044B13B10448AFF3C1
:1001A00000800123237010BD000200200000000029
:1001B0007001010808B5034B1BB103490348AFF3B5
:1001C000008008BD0000000004020020700101084A
:1001D00001F0FF01102A2BDB10F0070F08D010F8F8
:1001E000013B013A8B422DD010F0070F42B3F6D1FC
:1001F000F0B441EA012141EA014122F007047FF015
:1002000000070023F0E80256083C85EA010586EA6B
:10021000010685FA47F5A3FA87F586FA47F6A5FAA7
:1002200087F68EB9EED1F0BC01F0FF0102F00702B3
:1002300032B110F8013B013A83EA010313B1F8D15E
:100240000020704701387047002D06BF354603383F
:10025000073815F0010F07D1013015F4807F02BF78
:10026000013015F4C03F0130F0BC0138704700BFC9
:10027000034613F8012B002AFBD1181A01387047E6
:1002800081F0004102E000BF83F0004330B54FEA47
:1002900041044FEA430594EA050F08BF90EA020FB4
:1002A0001FBF54EA000C55EA020C7FEA645C7FEA47
:1002B000655C00F0E2804FEA5454D4EB5555B8BF6A
:1002C0006D420CDD2C4480EA020281EA030382EADB
:1002D000000083EA010180EA020281EA0303362D6D
:1002E00088BF30BD11F0004F4FEA01314FF4801C40
:1002F0004CEA113102D0404261EB410113F0004F52
:100300004FEA03334CEA133302D0524263EB430308
:1003100094EA050F00F0A780A4F10104D5F1200EA6
:100320000DDB02FA0EFC22FA05F2801841F1000101
:1003300003FA0EF2801843FA05F359410EE0A5F1D5
:1003400020050EF1200E012A03FA0EFC28BF4CF006
:10035000020C43FA05F3C01851EBE37101F00045BC
:1003600007D54FF0000EDCF1000C7EEB00006EEBC9
:100370000101B1F5801F1BD3B1F5001F0CD3490853
:100380005FEA30004FEA3C0C04F101044FEA4452AA
:1003900012F5800F80F09A80BCF1004F08BF5FEA31
:1003A000500C50F1000041EB045141EA050130BD11
:1003B0005FEA4C0C404141EB0101013C28BFB1F523
:1003C000801FE9D291F0000F04BF01460020B1FA6E
:1003D00081F308BF2033A3F10B03B3F120020CDA41
:1003E0000C3208DD02F1140CC2F10C0201FA0CF01F
:1003F00021FA02F10CE002F11402D8BFC2F1200C84
:1004000001FA02F120FA0CFCDCBF41EA0C01904039
:10041000E41AA2BF01EB0451294330BD6FEA040482
:100420001F3C1CDA0C340EDC04F11404C4F120026D
:1004300020FA04F001FA02F340EA030021FA04F37F
:1004400045EA030130BDC4F10C04C4F1200220FAD6
:1004500002F001FA04F340EA0300294630BD21FA14
:1004600004F0294630BD94F0000F83F4801306BFDA
:1004700081F480110134013D4EE77FEA645C18BFCE
:100480007FEA655C29D094EA050F08BF90EA020F65
:1004900005D054EA000C04BF1946104630BD91EA5D
:1004A000030F1EBF0021002030BD5FEA545C05D160
:1004B0004000494128BF41F0004130BD14F580049F
:1004C0003CBF01F5801130BD01F0004545F0FE4113
:1004D00041F470014FF0000030BD7FEA645C1ABF48
:1004E000194610467FEA655C1CBF0B46024650EA7F
:1004F000013406BF52EA033591EA030F41F40021AB
:1005000030BD00BF90F0000F04BF0021704730B530
:100510004FF4806404F132044FF000054FF0000105
:1005200050E700BF90F0000F04BF0021704730B5C6
:100530004FF4806404F1320410F0004548BF40429B
:100540004FF000013EE700BF42004FEAE2014FEAF0
:1005500031014FEA02701FBF12F07F4393F07F4FCB
:1005600081F06051704732F07F4208BF704793F0CE
:100570007F4F04BF41F40021704730B54FF46074E1
:1005800001F0004521F000411CE700BF50EA0102E4
:1005900008BF704730B54FF000050AE050EA01028D
:1005A00008BF704730B511F0004502D5404261EBFD
:1005B00041014FF4806404F132045FEA915C3FF43E
:1005C000D8AE4FF003025FEADC0C18BF03325FEADB
:1005D000DC0C18BF033202EBDC02C2F1200300FA8C
:1005E00003FC20FA02F001FA03FE40EA0E0021FAB1
:1005F00002F11444BDE600BF70B54FF0FF0C4CF49F
:10060000E06C1CEA11541DBF1CEA135594EA0C0F50
:1006100095EA0C0F00F0DEF82C4481EA030621EA8B
:100620004C5123EA4C5350EA013518BF52EA0335C6
:1006300041F4801143F4801338D0A0FB02CE4FF078
:100640000005E1FB02E506F00042E0FB03E54FF0A8
:100650000006E1FB03569CF0000F18BF4EF0010EA0
:10066000A4F1FF04B6F5007F64F5407404D25FEA9C
:100670004E0E6D4146EB060642EAC62141EA55514F
:100680004FEAC52040EA5E504FEACE2EB4F1FD0C91
:1006900088BFBCF5E06F1ED8BEF1004F08BF5FEA0F
:1006A000500E50F1000041EB045170BD06F00046C1
:1006B00046EA010140EA020081EA0301B4EB5C046E
:1006C000C2BFD4EB0C0541EA045170BD41F4801166
:1006D0004FF0000E013C00F3AB8014F1360FDEBF8B
:1006E000002001F0004170BDC4F10004203C35DA67
:1006F0000C341BDC04F11404C4F1200500FA05F3EA
:1007000020FA04F001FA05F240EA020001F000428A
:1007100021F0004110EBD37021FA04F642EB060100
:100720005EEA430E08BF20EAD37070BDC4F10C042A
:10073000C4F1200500FA04F320FA05F001FA04F2EE
:1007400040EA020001F0004110EBD37041F10001DA
:100750005EEA430E08BF20EAD37070BDC4F12005E5
:1007600000FA05F24EEA020E20FA04F301FA05F24D
:1007700043EA020321FA04F001F0004121FA04F2F5
:1007800020EA020000EBD3705EEA430E08BF20EAC5
:10079000D37070BD94F0000F0FD101F000464000FF
:1007A00041EB010111F4801F08BF013CF7D041EA81
:1007B000060195F0000F18BF704703F00046520085
:1007C00043EB030313F4801F08BF013DF7D043EA56
:1007D0000603704794EA0C0F0CEA135518BF95EA0C
:1007E0000C0F0CD050EA410618BF52EA4306D1D193
:1007F00081EA030101F000414FF0000070BD50EAB2
:10080000410606BF1046194652EA430619D094EA3B
:100810000C0F02D150EA013613D195EA0C0F05D125
:1008200052EA03361CBF104619460AD181EA030179
:1008300001F0004141F0FE4141F470014FF0000031
:1008400070BD41F0FE4141F4780170BD70B54FF0CC
:10085000FF0C4CF4E06C1CEA11541DBF1CEA13554C
:1008600094EA0C0F95EA0C0F00F0A7F8A4EB05042E
:1008700081EA030E52EA03354FEA013100F0888025
:100880004FEA03334FF0805545EA131343EA1263EE
:100890004FEA022245EA111545EA10654FEA0026A3
:1008A0000EF000419D4208BF964244F1FD0404F55C
:1008B000407402D25B084FEA3202B61A65EB0305B8
:1008C0005B084FEA32024FF480104FF4002CB6EB75
:1008D000020E75EB030E22BFB61A754640EA0C00F5
:1008E0005B084FEA3202B6EB020E75EB030E22BF35
:1008F000B61A754640EA5C005B084FEA3202B6EB76
:10090000020E75EB030E22BFB61A754640EA9C0034
:100910005B084FEA3202B6EB020E75EB030E22BF04
:10092000B61A754640EADC0055EA060E18D04FEAC2
:10093000051545EA16754FEA06164FEAC30343EA62
:1009400052734FEAC2025FEA1C1CC0D111F4801F2F
:100950000BD141EA00014FF000004FF0004CB6E728
:1009600011F4801F04BF01430020B4F1FD0C88BFC7
:10097000BCF5E06F3FF6AFAEB5EB030C04BFB6EBD2
:10098000020C5FEA500C50F1000041EB045170BDC5
:100990000EF0004E4EEA113114EB5C04C2BFD4EBF2
:1009A0000C0541EA045170BD41F480114FF0000E76
:1009B000013C90E645EA060E8DE60CEA135594EAF2
:1009C0000C0F08BF95EA0C0F3FF43BAF94EA0C0FF5
:1009D0000AD150EA01347FF434AF95EA0C0F7FF46A
:1009E00025AF104619462CE795EA0C0F06D152EABE
:1009F00003353FF4FDAE1046194622E750EA4106A2
:100A000018BF52EA43067FF4C5AE50EA41047FF4B2
:100A10000DAF52EA43057FF4EBAE12E74FF0FF3C17
:100A200006E000BF4FF0010C02E000BF4FF0010CE8
:100A30004DF804CD4FEA410C7FEA6C5C4FEA430C61
:100A400018BF7FEA6C5C1BD001B050EA410C0CBFB0
:100A500052EA430C91EA030F02BF90EA020F002012
:100A6000704710F1000F91EA030F58BF994208BF79
:100A700090422CBFD8176FEAE37040F00100704736
:100A80004FEA410C7FEA6C5C02D150EA013C07D18D
:100A90004FEA430C7FEA6C5CD6D152EA033CD3D0D8
:100AA0005DF8040B704700BF8446104662468C46D2
:100AB0001946634600E000BF01B5FFF7B7FF002805
:100AC00048BF10F1000F01BD4DF808EDFFF7F4FF2E
:100AD0000CBF012000205DF808FB00BF4DF808EDB9
:100AE000FFF7EAFF34BF012000205DF808FB00BFDC
:100AF0004DF808EDFFF7E0FF94BF012000205DF8FE
:100B000008FB00BF4DF808EDFFF7CEFF94BF0120B2
:100B100000205DF808FB00BF4DF808EDFFF7C4FFAB
:100B200034BF012000205DF808FB00BF4FEA410CF4
:100B30007FEA6C5C02D150EA013C0AD14FEA430CD7
:100B40007FEA6C5C02D152EA033C02D14FF0000014
:100B500070474FF0010070474FEA410212F5001252
:100B600015D211D56FF47873B3EB625212D94FEAF4
:100B7000C12343F0004343EA505311F0004F23FADE
:100B800002F018BF404270474FF00000704750EA33
:100B9000013005D111F0004008BF6FF000407047F0
:100BA0004FF00000704700BF4A0011D212F500124A
:100BB00011D20DD56FF47873B3EB62520ED44FEAB5
:100BC000C12343F0004343EA505323FA02F0704735
:100BD0004FF00000704750EA013002D14FF0FF3073
:100BE00070474FF0000070474FEA4102B2F1E04316
:100BF00024BFB3F5001CDCF1FE5C0DD901F0004C04
:100C00004FEAC0024CEA5070B2F1004F40EB830053
:100C100008BF20F00100704711F0804F21D113F17F
:100C20003872BCBF01F00040704741F480114FEAB8
:100C30005252C2F11802C2F1200C10FA0CF320FA41
:100C400002F018BF40F001004FEAC1234FEAD3235E
:100C500003FA0CFC40EA0C0023FA02F34FEA4303C8
:100C6000CCE77FEA625307D150EA01331EBF4FF051
:100C7000FE4040F44000704701F0004040F0FE406C
:100C800040F40000704700BF53B94AB9002908BFBB
:100C900000281CBF4FF0FF314FF0FF3000F06AB961
:100CA000ADF1080C6DE904CE00F006F8DDF804E0C3
:100CB000DDE9022304B070472DE9F047089D0C469A
:100CC000002B4ED194468C458646B2FA82F262D908
:100CD0004AB1C2F12003914020FA03F30CFA02FC5E
:100CE000194300FA02FE4FEA1C471FFA8CF6B1FBCB
:100CF000F7F44FEA1E4307FB141143EA014304FBD8
:100D000006F199420AD91CEB030304F1FF3080F08D
:100D10001281994240F20F81023C6344591A1FFA32
:100D20008EF3B1FBF7F007FB101143EA014300FB20
:100D300006F69E420AD91CEB030300F1FF3180F056
:100D4000FC809E4240F2F980634402389B1B40EADB
:100D5000044000211DB1D3400022C5E90032BDE8A6
:100D6000F0878B4205D90DB1C5E900010021084685
:100D7000F5E7B3FA83F1002946D1A34202D39042AA
:100D8000C0F0F080861A64EB03030120002DE6D04A
:100D9000C5E90063E3E7002A40F09080A1EB0C0472
:100DA0004FEA1C481FFA8CF70121B4FBF8F64FEA12
:100DB0001E4308FB164443EA044307FB06F098422F
:100DC00008D91CEB030306F1FF3402D2984200F26B
:100DD000CD8026461C1A1FFA8EF3B4FBF8F008FBF0
:100DE000104443EA044300FB07F79F4208D91CEB79
:100DF000030300F1FF3402D29F4200F2B08020468C
:100E0000DB1B40EA0640A5E7C1F120068B4022FA31
:100E100006F71F4320FA06FC04FA01F343EA0C0329
:100E2000F44000FA01F8380C4FEA1349B4FBF0FE25
:100E30001FFA87FC00FB1E4449EA04440EFB0CF930
:100E4000A14502FA01F20AD93C190EF1FF3A80F0ED
:100E50008480A14540F28180AEF1020E3C44A4EBB7
:100E600009041FFA83F9B4FBF0F300FB134449EAC9
:100E7000044403FB0CFCA44507D93C1903F1FF30E3
:100E800067D2A44565D9023B3C4443EA0E40A0FB2F
:100E90000293A4EB0C049C42CE469C4651D34ED008
:100EA00055B1B8EB0E0364EB0C0404FA06F6CB4024
:100EB0001E43CC40C5E90064002150E7C2F1200385
:100EC00020FA03F10CFA02FC24FA03F394400C43D9
:100ED0004FEA1C4800FA02FE1FFA8CF7B3FBF8F049
:100EE00008FB1031230C43EA014300FB07F1994250
:100EF00008D91CEB030300F1FF362CD299422AD902
:100F0000023863445B1AA4B2B3FBF8F108FB113357
:100F100044EA034401FB07F3A34208D91CEB040491
:100F200001F1FF3613D2A34211D902396444E41A05
:100F300041EA004139E70446F0E6084606E7C845BD
:100F4000AED2B9EB020E63EB070C0138A8E73146CD
:100F5000EDE7034699E73046D4E7D6467FE763449A
:100F600002384DE70646234608460FE7023E634433
:100F700030E700BF704700BF80B5A2B000AF87ED7B
:100F8000070AC7ED060A87ED051AC7ED041A87EDB3
:100F9000032AC7ED022A87ED013A38603B681B68D7
:100FA0007B673B685B683B673B689B68FB663B68AD
:100FB000DB68BB66D7ED1C7AB1EE677AD7ED047AB1
:100FC00027EE277AD7ED1B6AD7ED037A66EEA77A6C
:100FD00037EE677AD7ED1A6AD7ED027A66EEA77A0E
:100FE00077EE677AB6EE007A67EE877AC7ED217AF8
:100FF00097ED1D7AD7ED047A27EE277AD7ED1B6A95
:10100000D7ED027A66EEA77A37EE277AD7ED1A6A1D
:10101000D7ED037A66EEA77A77EE677AB6EE007AB6
:1010200067EE877AC7ED207A97ED1D7AD7ED037AC0
:1010300027EE277AD7ED1C6AD7ED027A66EEA77AFB
:1010400037EE677AD7ED1A6AD7ED047A66EEA77A9B
:1010500077EE277AB6EE007A67EE877AC7ED1F7AC9
:1010600097ED1D7AD7ED027A27EE277AD7ED1C6A25
:10107000D7ED037A66EEA77A37EE277AD7ED1B6AAB
:10108000D7ED047A66EEA77A77EE677AB6EE007A45
:1010900067EE877AC7ED1E7AD7ED077AF5EE407ACC
:1010A000F1EE10FA0ED1D7ED067AF5EE407AF1EEB8
:1010B00010FA07D1D7ED057AF5EE407AF1EE10FA85
:1010C00000F0BE81D7ED077A27EEA77AD7ED067A32
:1010D00067EEA77A37EE277AD7ED057A67EEA77A1B
:1010E00077EE277AB0EE670A00F09AFA87ED190AD0
:1010F00097ED077AD7ED197A67EE277AC7ED077A69
:1011000097ED067AD7ED197A67EE277AC7ED067A5A
:1011100097ED057AD7ED197A67EE277AC7ED057A4C
:10112000D7ED1D7A77EEA77AC7ED187AD7ED1C7A3E
:1011300077EEA77AC7ED177AD7ED1B7A77EEA77A05
:10114000C7ED167AD7ED1A7A77EEA77AC7ED157A3A
:10115000D7ED1D7AB1EE007A67EE877AC7ED147A83
:10116000D7ED1C7AB1EE007A67EE877AC7ED137A75
:10117000D7ED1B7AB1EE007A67EE877AC7ED127A67
:10118000D7ED1C7AB2EE007A67EE877AC7ED117A56
:10119000D7ED1B7AB2EE007A67EE877AC7ED107A48
:1011A000D7ED1D7A67EEA77AC7ED0F7AD7ED1C7AD7
:1011B00067EEA77AC7ED0E7AD7ED1B7A67EEA77AAE
:1011C000C7ED0D7AD7ED1A7A67EEA77AC7ED0C7ADC
:1011D00097ED147AD7ED0D7A27EE277AD7ED166AB8
:1011E000D7ED077A66EEA77A37EE277AD7ED146A3D
:1011F000D7ED0E7A66EEA77A37EE277AD7ED176A23
:10120000D7ED067A66EEA77A77EE677AC7ED0B7AA6
:1012100097ED137AD7ED0C7A27EE277AD7ED156A7A
:10122000D7ED077A66EEA77A37EE677AD7ED0F7AB1
:10123000F1EE006A67EEA66AD7ED1C7A66EEA77A31
:1012400037EE277AD7ED186AD7ED067A66EEA77AD9
:1012500037EE677AD7ED137A37EE677AD7ED116AF2
:10126000D7ED0E7A66EEA77A37EE277AD7ED116AB8
:10127000D7ED0D7A66EEA77A37EE277AD7ED136AA7
:10128000D7ED057A66EEA77A77EE277AC7ED0A7A68
:10129000D7ED0F7AB1EE007A27EE877AD7ED1B7A79
:1012A00027EE277AD7ED186AD7ED077A66EEA77A88
:1012B00037EE277AD7ED126AD7ED0C7A66EEA77A69
:1012C00037EE277AD7ED156AD7ED067A66EEA77A5C
:1012D00037EE677AD7ED127A37EE677AD7ED106A74
:1012E000D7ED0E7A66EEA77A37EE277AD7ED106A39
:1012F000D7ED0D7A66EEA77A37EE277AD7ED126A28
:10130000D7ED057A66EEA77A77EE277AC7ED097AE8
:10131000D7ED0E7AB1EE007A27EE877AD7ED1A7AFA
:1013200027EE277AD7ED176AD7ED077A66EEA77A08
:1013300037EE677AD7ED0D7AF1EE006A67EEA66AAE
:10134000D7ED1A7A66EEA77A37EE277AD7ED166AC6
:10135000D7ED067A66EEA77A77EE677AC7ED087A58
:10136000D7ED0B7A27EEA77AD7ED0A7A67EEA77A40
:1013700037EE277AD7ED097A67EEA77A37EE277A24
:10138000D7ED087A67EEA77A77EE277AB0EE670A8C
:1013900000F046F987ED190A97ED0B7AD7ED197A27
:1013A00067EE277AC7ED0B7A97ED0A7AD7ED197AAF
:1013B00067EE277AC7ED0A7A97ED097AD7ED197AA1
:1013C00067EE277AC7ED097A97ED087AD7ED197A93
:1013D00067EE277AC7ED087A554B93ED007AD7ED83
:1013E0000B7A67EE277A97ED217A77EE677AC7ED69
:1013F000217A4F4B93ED007AD7ED0A7A67EE277A80
:1014000097ED207A77EE677AC7ED207A484B93ED17
:10141000007AD7ED097A67EE277A97ED1F7A77EE93
:10142000677AC7ED1F7A424B93ED007AD7ED087AC1
:1014300067EE277A97ED1E7A77EE677AC7ED1E7A08
:1014400097ED217AD7ED017A67EE277A97ED1D7A2D
:1014500077EE277AC7ED1D7A97ED207AD7ED017ADE
:1014600067EE277A97ED1C7A77EE277AC7ED1C7A1C
:1014700097ED1F7AD7ED017A67EE277A97ED1B7A01
:1014800077EE277AC7ED1B7A97ED1E7AD7ED017AB2
:1014900067EE277A97ED1A7A77EE277AC7ED1A7AF0
:1014A000D7ED1D7A27EEA77AD7ED1C7A67EEA77ADB
:1014B00037EE277AD7ED1B7A67EEA77A37EE277AD1
:1014C000D7ED1A7A67EEA77A77EE277AB0EE670A39
:1014D00000F0A6F887ED190A97ED1D7AD7ED197A75
:1014E00067EE277A3B68C3ED007A3B68043397EDDB
:1014F0001C7AD7ED197A67EE277AC3ED007A3B683C
:10150000083397ED1B7AD7ED197A67EE277AC3ED8A
:10151000007A3B680C3397ED1A7AD7ED197A67EEAB
:10152000277AC3ED007A00BF8837BD4680BD00BF73
:101530000000002000000000B0B582B000AF78606D
:101540007B68043393ED007A7B680833D3ED007A2F
:1015500027EE277A7B68D3ED006A7B680C33D3EDE6
:10156000007A66EEA77A77EE277A77EEA77A17EEFB
:10157000900AFEF7E9FF04460D467B6893ED007A7A
:101580007B68D3ED007A27EE277A7B680433D3EDAE
:10159000006A7B680433D3ED007A66EEA77A37EEF3
:1015A000277A7B680833D3ED006A7B680833D3ED74
:1015B000007A66EEA77A37EE677A7B680C33D3ED54
:1015C000006A7B680C33D3ED007A66EEA77A77EE7B
:1015D000677A17EE900AFEF7B7FF02460B4643EC18
:1015E000112B45EC104B0EF059FB51EC100B0AA3DC
:1015F000D3E90023FFF700F802460B4610461946D0
:10160000FFF7F2FA034607EE903AB0EE670A0837A2
:10161000BD46B0BDAFF30080E5BF631ADCA54C400A
:1016200080B487B000AF87ED010AD7ED017AB6EE3E
:10163000007A67EE877AC7ED057A7B683B6107F130
:1016400010031B68FB60FB685A10124B9B1AFB606F
:1016500007F10C031B683B6197ED047AD7ED057A1F
:1016600027EE277AD7ED047A67EE277AB7EE087A65
:1016700037EE677AD7ED047A67EE277AC7ED047AFA
:101680003B6907EE903AB0EE670A1C37BD465DF83D
:10169000047B7047DF59375F80B489B000AFF861D1
:1016A00087ED060AC7ED050A87ED041AC7ED031A90
:1016B00087ED022AC7ED012AFB69BA691A60FB6946
:1016C0007A695A60FB693A699A60FB69FA68DA607C
:1016D000FB694FF000021A61FB694FF000029A614A
:1016E000FB69BA68DA61FB697A681A62FB690022F1
:1016F0005A6200BF2437BD465DF8047B7047000086
:1017000080B588B000AF786087ED000A7B685B6ABF
:10171000002B04D102F064FD02467B685A6202F09D
:101720005FFD02467B685B6AD31A07EE903AF8EEDB
:10173000677A9FED4D7A67EE877AC7ED067A7B6808
:1017400093ED037AD7ED007A77EE677AC7ED057AE5
:101750007B68D3ED007A97ED057A67EE277AC7EDBF
:10176000047A7B6893ED047A7B68D3ED016AD7ED48
:10177000057A66EEA76AD7ED067A66EEA77A77EE67
:10178000277A7B68C3ED047A7B6893ED027A7B68E5
:10179000D3ED067AD7ED056A76EEE77A67EE276A2B
:1017A00097ED067AC6EE877AC7ED037A7B6893EDEC
:1017B000047AD7ED047A77EE277A97ED037A77EEFD
:1017C000277AC7ED077A7B68D3ED087A97ED077A19
:1017D000B4EEE77AF1EE10FA16DD7B681B6AFB6166
:1017E0007B6893ED047A7B68D3ED016AD7ED057AC7
:1017F00066EEA76AD7ED067A66EEA77A77EE677A85
:101800007B68C3ED047A1FE07B68D3ED077A97ED20
:10181000077AB4EEE77AF1EE10FA15D57B68DB694A
:10182000FB617B6893ED047A7B68D3ED016AD7EDA9
:10183000057A66EEA76AD7ED067A66EEA77A77EEA6
:10184000677A7B68C3ED047A7B687A699A6102F0F3
:10185000C7FC02467B685A62FB6907EE903AB0EE1D
:10186000670A2037BD4680BD6F12833A80B483B0CB
:1018700000AF78607B684FF00002DA607B684FF061
:1018800000021A617B684FF000029A617B680022B7
:101890005A6200BF0C37BD465DF8047B70470000FC
:1018A00080B582B000AF78607B68002B14BF012345
:1018B0000023DBB21A460821134803F019FC7B68A9
:1018C000002B0CBF01230023DBB21A4604210E4873
:1018D00003F00EFC7B68002B0CBF01230023DBB25E
:1018E0001A462021084803F003FC7B68002B14BF34
:1018F00001230023DBB21A461021034803F0F8FB52
:1019000000BF0837BD4680BD0000024080B483B0F0
:1019100000AF0346FB80094B1B6800225A6200BFE0
:10192000064B1B685A6AFB889A42F9D300BF00BF76
:101930000C37BD465DF8047B704700BF4C040020A7
:1019400080B500AF0D4B4FF07E521A600B4B4FF03D
:1019500000025A60094B4FF000029A60074B4FF0AB
:101960000002DA60064B4FF000021A600548FFF7EC
:101970007DFF0548FFF77AFF00BF80BD0C00002007
:101980008005002084050020AC0500200000000038
:10199000F8B52DED048B00AF02F022FC02464C4B53
:1019A0001B68D31AB3F57A7F05D902F019FC0346F8
:1019B000474A136084E0474B00220021464808F064
:1019C0006FF8464B03220021434807F051FF414B7B
:1019D000D3ED007A9FED427A27EE878A3D4BD3ED17
:1019E000017A9FED3F7A67EE878A3A4BD3ED027A10
:1019F0009FED3B7A27EE879A384B1B681846FEF717
:101A0000A3FD31A3D3E90023FEF7F6FD02460B4602
:101A100010461946FFF7E8F80446304BD3ED017A3B
:101A2000F1EE677A17EE903A1846FEF78DFD26A381
:101A3000D3E90023FEF7E0FD02460B4610461946A7
:101A4000FFF7D2F80546254B9B681846FEF77CFD4C
:101A50001DA3D3E90023FEF7CFFD02460B46104637
:101A60001946FFF7C1F8064602F0BAFB0246184BCA
:101A70001B68D31A07EE903AF8EE677A9FED197A51
:101A800067EE877A1848B0EE673A02EE906A02EE87
:101A9000105A01EE904AB0EE491AF0EE680AB0EE24
:101AA000480AFFF769FA02F09BFB0346084A1360F5
:101AB0000D48FFF741FDF0EE407A0C4BC3ED007A84
:101AC000BD46BDEC048BF8BD849E52A246DF913F1B
:101AD000F405002068050020D802002074050020CD
:101AE000C3F51C416F12833A0C00002080050020D2
:101AF00080B584B000AF78603A4B1B78002B0ED0D5
:101B00007B68002B0BD05F2000F088FC40F2EE20B9
:101B100008F0E6FAFFF714FF324B00221A70FFF7C5
:101B200037FF314B4FF08042DA60304B4FF080424C
:101B3000DA607B6807EE903AF8EEE77AB0EE007A6A
:101B400037EEC77A2A4BD3ED007AB4EEE77AF1EE9E
:101B500010FA03D5642000F061FC13E07B6807EE07
:101B6000903AF8EEE77AB0EE007A37EE877A204BBB
:101B7000D3ED007AB4EEE77AF1EE10FA02DD5A20E6
:101B800000F04CFC1B4BD3E9002310461946FFF72D
:101B90002BF8034600EE103A1348FFF7B1FDF0EEC4
:101BA000407AFDEEE77A17EE903AFB60124BD3E9EC
:101BB000002310461946FFF717F8034600EE103AC7
:101BC0000A48FFF79DFDF0EE407AFDEEE77A17EE4A
:101BD000903ABB60B968F86800F0DAFB00BF1037D4
:101BE000BD4680BD2000002084050020AC050020FB
:101BF00080050020580500206005002080B584B0D5
:101C000000AF78603A4B1B78002B0ED07B68002B1E
:101C10000BD05F2000F002FC40F2EE2008F060FAEA
:101C2000FFF78EFE324B00221A70FFF7B1FE314BE8
:101C30004FF08042DA60304B4FF08042DA607B68D0
:101C400007EE903AF8EEE77AB0EE007A37EEC77A10
:101C50002A4BD3ED007AB4EEE77AF1EE10FA03D511
:101C60005A2000F0DBFB13E07B6807EE903AF8EEB9
:101C7000E77AB0EE007A37EE877A204BD3ED007A20
:101C8000B4EEE77AF1EE10FA02DD642000F0C6FB54
:101C90001B4BD3E9002310461946FEF7A5FF034668
:101CA00000EE103A1348FFF72BFDF0EE407AFDEE00
:101CB000E77A17EE903AFB60124BD3E90023104607
:101CC0001946FEF791FF034600EE103A0A48FFF767
:101CD00017FDF0EE407AFDEEE77A17EE903ABB6022
:101CE000B968F86800F054FB00BF1037BD4680BDEE
:101CF0002100002084050020AC0500208005002084
:101D0000580500206005002080B584B000AF7860E1
:101D1000544B1B78002B0ED07B68002B0BD08C20F3
:101D200000F07CFB40F2EE2008F0DAF9FFF708FE45
:101D30004C4B00221A70FFF72BFE4B4B4B4ADA60DC
:101D40004B4B4FF07E52DA607B6807EE903AF8EE2C
:101D5000E77AB0EE007A37EEC77A464BD3ED007AD9
:101D6000B4EEE77AF1EE10FA24D57B6807EE903AEC
:101D7000F8EEE77AB0EE007A37EE877A3D4BD3ED96
:101D8000007AB4EEE77AF1EE10FA13DD00210020BC
:101D900000F0FEFA3448FFF769FD3548FFF766FDAD
:101DA0005F2000F03BFB2F4B01221A70324B0122C7
:101DB0001A6054E07B6807EE903AF8EEE77AB3EEEB
:101DC000047A37EEC77A2B4BD3ED007AB4EEE77A7C
:101DD000F1EE10FA17D57B6807EE903AF8EEE77A45
:101DE000B3EE047A37EE877A224BD3ED007AB4EE65
:101DF000E77AF1EE10FA06DD1B4B204ADA601C4B45
:101E00004FF07C52DA601E4BD3E90023104619468E
:101E1000FEF7EAFE034600EE103A1348FFF770FCA7
:101E2000F0EE407AFDEEE77A17EE903AFB60154B44
:101E3000D3E9002310461946FEF7D6FE034600EE0E
:101E4000103A0B48FFF75CFCF0EE407AFDEEE77AC3
:101E500017EE903ABB60B968F86800F099FA10374D
:101E6000BD4680BD22000020840500203333333F6F
:101E7000AC05002080050020340200203333B33E3F
:101E8000580500206005002080B584B000AF786060
:101E9000584B1B78002B0ED07B68002B0BD00020FA
:101EA00000F0BCFA40F2EE2008F01AF9FFF748FD06
:101EB000504B00221A70FFF76BFD4F4B4FF07E52D4
:101EC000DA604E4B4E4ADA607B6807EE903AF8EEE5
:101ED000E77AB0EE007A37EEC77A4A4BD3ED007A54
:101EE000B4EEE77AF1EE10FA2CD57B6807EE903A63
:101EF000F8EEE77AB0EE007A37EE877A414BD3ED11
:101F0000007AB4EEE77AF1EE10FA1BDD0021002032
:101F100000F03EFA3848FFF7A9FC3848FFF7A6FC66
:101F20005F2000F07BFA334B01221A70364B0122FE
:101F30001A60364B00221A60354B1B680133344A55
:101F4000136054E07B6807EE903AF8EEE77AB3EE60
:101F5000047A37EEC77A2B4BD3ED007AB4EEE77AEA
:101F6000F1EE10FA17D57B6807EE903AF8EEE77AB3
:101F7000B3EE047A37EE877A224BD3ED007AB4EED3
:101F8000E77AF1EE10FA06DD1B4B4FF07C52DA6077
:101F90001A4B204ADA60204BD3E900231046194639
:101FA000FEF722FE034600EE103A1348FFF7A8FBA7
:101FB000F0EE407AFDEEE77A17EE903AFB60174BB1
:101FC000D3E9002310461946FEF70EFE034600EE45
:101FD000103A0A48FFF794FBF0EE407AFDEEE77AFC
:101FE00017EE903ABB60B968F86800F0D1F9103785
:101FF000BD4680BD2300002084050020AC050020E4
:102000003333333F800500203402002004000020D9
:102010003C0200203333B33E580500206005002009
:1020200080B584B000AF7860544B1B78002B0ED085
:102030007B68002B0BD08C2000F0F0F940F2EE20F2
:1020400008F04EF8FFF77CFC4C4B00221A70FFF7AB
:102050009FFC4B4B4B4ADA604B4B4FF07E52DA60A1
:102060007B6807EE903AF8EEE77AB0EE007A37EE4A
:10207000C77A464BD3ED007AB4EEE77AF1EE10FA68
:1020800024D57B6807EE903AF8EEE77AB0EE007A56
:1020900037EE877A3D4BD3ED007AB4EEE77AF1EE76
:1020A00010FA13DD0021002000F072F93448FFF728
:1020B000DDFB3548FFF7DAFB5F2000F0AFF92F4B6F
:1020C00001221A70324B01221A6054E07B6807EE3D
:1020D000903AF8EEE77AB3EE047A37EEC77A2B4BF4
:1020E000D3ED007AB4EEE77AF1EE10FA17D57B68FB
:1020F00007EE903AF8EEE77AB3EE047A37EE877A95
:10210000224BD3ED007AB4EEE77AF1EE10FA06DD59
:102110001B4B204ADA601C4B4FF07C52DA601E4B9E
:10212000D3E9002310461946FEF75EFD034600EE94
:10213000103A1348FFF7E4FAF0EE407AFDEEE77A42
:1021400017EE903AFB60154BD3E900231046194671
:10215000FEF74AFD034600EE103A0B48FFF7D0FAAF
:10216000F0EE407AFDEEE77A17EE903ABB60B96880
:10217000F86800F00DF91037BD4680BD240000203E
:10218000840500203333333FAC0500208005002058
:10219000340200203333B33E580500206005002090
:1021A00080B584B000AF7860584B1B78002B0ED000
:1021B0007B68002B0BD0002000F030F940F2EE20BD
:1021C00007F08EFFFFF7BCFB504B00221A70FFF7A1
:1021D000DFFB4F4B4FF07E52DA604E4B4E4ADA60D7
:1021E0007B6807EE903AF8EEE77AB0EE007A37EEC9
:1021F000C77A4A4BD3ED007AB4EEE77AF1EE10FAE3
:102200002CD57B6807EE903AF8EEE77AB0EE007ACC
:1022100037EE877A414BD3ED007AB4EEE77AF1EEF0
:1022200010FA1BDD0021002000F0B2F83848FFF75B
:102230001DFB3848FFF71AFB5F2000F0EFF8334B27
:1022400001221A70364B01221A60364B00221A60A6
:10225000354B1B680133344A136054E07B6807EE4A
:10226000903AF8EEE77AB3EE047A37EEC77A2B4B62
:10227000D3ED007AB4EEE77AF1EE10FA17D57B6869
:1022800007EE903AF8EEE77AB3EE047A37EE877A03
:10229000224BD3ED007AB4EEE77AF1EE10FA06DDC8
:1022A0001B4B4FF07C52DA601A4B204ADA60204B0D
:1022B000D3E9002310461946FEF796FC034600EECC
:1022C000103A1348FFF71CFAF0EE407AFDEEE77A79
:1022D00017EE903AFB60174BD3E9002310461946DE
:1022E000FEF782FC034600EE103A0A48FFF708FAB0
:1022F000F0EE407AFDEEE77A17EE903ABB60B968EF
:10230000F86800F045F81037BD4680BD2500002074
:1023100084050020AC0500203333333F80050020C6
:1023200034020020040000203C0200203333B33E7E
:10233000580500206005002080B483B000AF87ED11
:10234000010AC7ED000A104B93ED007AD7ED017A30
:1023500037EE277A0D4BD3ED007A37EE677AD7ED5B
:10236000007A67EE277A084BC3ED007A074A7B684C
:102370001360054B1B6807EE903AB0EE670A0C3706
:10238000BD465DF8047B70471C020020200200203F
:1023900080B483B000AF786039601D4A7B681360F9
:1023A0001C4A3B6813601A4B1B68002B04DA184B5D
:1023B0004FF4FA721A6008E0154B1B68B3F57A6F98
:1023C00003DD134B4FF47A621A60124B1B68002B2B
:1023D00004DA104B4FF4FA721A6008E00C4B1B68D9
:1023E000B3F57A6F03DD0B4B4FF47A621A60084B3A
:1023F0001A68094B1B685A63064B1A68064B1B6820
:102400009A6300BF0C37BD465DF8047B704700BF80
:10241000D4050020D80500209404002080B483B0A7
:1024200000AF0346FB71FB79B42B01D9B423FB71D8
:10243000FB79C3F1F003084A1360FB79074A136084
:10244000054B1A68064B1B681A6400BF0C37BD4663
:102450005DF8047B704700BF1C000020E0050020F1
:102460002C03002080B500AF01F054FE00F0BCF852
:1024700000F0AAFC00F07EFC00F0D8FA00F09AFB15
:1024800000F0E2F900F0CCFB00F0B0F900F07AFACD
:1024900000F020FB00F006F900F056F90AF06AFCA3
:1024A000002303220021354807F05BF9C82001F022
:1024B000A3FEFA220021314807F09EFCFA220321F4
:1024C0002E4807F0F1FB2E4804F03AFB00212D487E
:1024D00004F01AFD04222C492C4806F0F6F8DFED32
:1024E0002C2A9FED2C2ADFED2C1A9FED2B1ADFED05
:1024F0002B0A9FED2B0A2B48FFF7CEF8DFED242A9D
:102500009FED242ADFED241A9FED231ADFED230A25
:102510009FED230A2448FFF7BFF80120FFF7C0F919
:1025200007F002FD214A0021214807F047FD03463C
:10253000204A1360204A0021204807F03FFD03464F
:102540001F4A13601F4A00211F4807F037FD03464A
:102550001E4A13601E4A00211E4807F02FFD034645
:102560001D4A13601D4A00211D4807F027FD034640
:102570001C4A136007F0FCFC00BFFDE7D8020020F6
:102580004C04002004040020E4050020DC040020AA
:1025900000007A4500007AC4000000000080BB44BF
:1025A0000000FA4384050020AC0500201003010858
:1025B000E93100082405002034030108093200082D
:1025C0002805002058030108253300082C050020A9
:1025D0007C0301087933000830050020A0030108BE
:1025E000313600083405002080B594B000AF07F103
:1025F00020033022002118460BF061FA07F10C038A
:1026000000221A605A609A60DA601A610023BB6087
:10261000224B1B6C214A43F0805313641F4B1B6CED
:1026200003F08053BB60BB6800237B601C4B1B68BE
:102630001B4A43F480431360194B1B6803F4804327
:102640007B607B6802233B620123FB6210233B63B8
:102650000023BB6307F12003184603F0C9FD0346BE
:10266000002B01D001F054F90F23FB6000233B61E4
:1026700000237B610023BB610023FB6107F10C0396
:102680000021184604F02CF80346002B01D001F07D
:102690003FF900BF5037BD4680BD00BF0038024043
:1026A0000070004080B584B000AF3B4600221A6045
:1026B0005A609A60DA60214B214A1A601F4B00224F
:1026C0005A601E4B00229A601C4B00221A611B4B61
:1026D00000221A76194B002283F82020174B002283
:1026E000DA62164B174A9A62144B0022DA60134BD7
:1026F0000122DA61114B002283F830200F4B0122B6
:102700005A610E4801F09CFD0346002B01D001F0F8
:10271000FFF800233B6001237B600023BB603B4646
:102720001946064801F06EFF0346002B01D001F068
:10273000EFF800BF1037BD4680BD00BF4802002043
:10274000002001400100000F80B584B000AF3B467F
:1027500000221A605A609A60DA60214B214A1A609E
:102760001F4B00225A601E4B00229A601C4B002215
:102770001A611B4B00221A76194B002283F8202085
:10278000174B0022DA62164B174A9A62144B00224A
:10279000DA60134B0122DA61114B002283F83020FA
:1027A0000F4B01225A610E4801F04AFD0346002BEF
:1027B00001D001F0ADF801233B6001237B600023D1
:1027C000BB603B461946064801F01CFF0346002B40
:1027D00001D001F09DF800BF1037BD4680BD00BF9D
:1027E00090020020002101400100000F80B500AFE1
:1027F000124B134A1A60114B124A5A600F4B0022B7
:102800009A600E4B0022DA600C4B4FF480421A6142
:102810000A4B00225A61094B00229A61074B0022A1
:10282000DA61064B00221A62044802F095FC034666
:10283000002B01D001F06CF800BF80BDD802002051
:1028400000540040A086010080B596B000AF07F1AB
:10285000480300221A605A609A60DA6007F1400368
:1028600000221A605A6007F1240300221A605A609D
:102870009A60DA601A615A619A613B1D2022002138
:1028800018460BF01CF93D4B3D4A1A603B4BA02209
:102890005A603A4B00229A60384B4FF6FF72DA606A
:1028A000364B00221A61354B00225A61334B00220D
:1028B0009A61324804F0F4F80346002B01D001F08D
:1028C00027F84FF48053BB6407F1480319462B489F
:1028D00004F0C4FF0346002B01D001F019F827488B
:1028E00004F096F90346002B01D001F011F8002303
:1028F0003B6400237B6407F1400319461F4805F041
:1029000027FD0346002B01D001F002F860237B6213
:102910000023BB620023FB6200237B630023BB63B5
:102920000023FB6307F124030C221946134804F02B
:10293000D3FE0346002B01D000F0EAFF00237B60AA
:102940000023BB600023FB6000233B6100237B610D
:102950004FF40053BB6100233B623B1D19460748FF
:1029600005F072FD0346002B01D000F0D1FF0348B3
:1029700001F008FA00BF5837BD4680BD2C03002087
:102980000000014080B58CB000AF07F10C03242299
:10299000002118460BF093F83B1D00221A605A6084
:1029A000214B4FF080421A601F4B00225A601E4B91
:1029B00000229A601C4B4FF6FF72DA601A4B00221D
:1029C0001A61194B00229A610323FB6000233B61CB
:1029D00001237B610023BB610A23FB6100233B626F
:1029E00001237B620023BB620A23FB6207F10C0315
:1029F00019460D4804F0B0FB0346002B01D000F04F
:102A000087FF00237B600023BB603B1D19460648FF
:102A100005F09EFC0346002B01D000F079FF00BFBB
:102A20003037BD4680BD00BF7403002080B58CB038
:102A300000AF07F10C032422002118460BF03FF8E9
:102A40003B1D00221A605A60204B214A1A601F4B1E
:102A500000225A601D4B00229A601C4B4FF6FF72F9
:102A6000DA601A4B00221A61184B00229A61032384
:102A7000FB6000233B6101237B610023BB610A23D0
:102A8000FB6100233B6201237B620023BB620A23BC
:102A9000FB6207F10C0319460C4804F05DFB03468A
:102AA000002B01D000F034FF00237B600023BB60CB
:102AB0003B1D1946054805F04BFC0346002B01D091
:102AC00000F026FF00BF3037BD4680BDBC030020AC
:102AD0000004004080B58AB000AF07F1180300225F
:102AE0001A605A609A60DA6007F1100300221A60D7
:102AF0005A603B4600221A605A609A60DA602B4B9B
:102B00002B4A1A60294B0F225A60284B00229A60E8
:102B1000264B4FF6FF72DA60244B00221A61234BDA
:102B200000229A61214803F0BBFF0346002B01D02D
:102B300000F0EEFE4FF48053BB6107F11803194615
:102B40001A4804F08BFE0346002B01D000F0E0FE93
:102B5000164804F07FF90346002B01D000F0D8FEA0
:102B600000233B6100237B6107F1100319460F48E6
:102B700005F0EEFB0346002B01D000F0C9FE0A234E
:102B80003B6001237B600023BB600023FB603B466E
:102B900000221946054804F003FD0346002B01D02E
:102BA00000F0B6FE00BF2837BD4680BD04040020FB
:102BB0000008004080B582B000AF3B4600221A609A
:102BC0005A60154B154A1A60134B0F225A60124B6C
:102BD00000229A60104B4FF6FF72DA600E4B002213
:102BE0009A610D4803F05CFF0346002B01D000F012
:102BF0008FFE00233B6000237B603B46194606485E
:102C000005F0A6FB0346002B01D000F081FE00BFBB
:102C10000837BD4680BD00BF4C04002000100040B6
:102C200080B596B000AF07F1480300221A605A60E1
:102C30009A60DA6007F1400300221A605A6007F1D7
:102C4000240300221A605A609A60DA601A615A619D
:102C50009A613B1D2022002118460AF030FF434BA9
:102C6000434A1A60414B00225A60404B00229A604E
:102C70003E4B41F61F42DA603C4B00221A613B4B4F
:102C800000225A61394B00229A61384803F008FF4C
:102C90000346002B01D000F03BFE4FF48053BB6491
:102CA00007F148031946314804F0D8FD0346002BCC
:102CB00001D000F02DFE2D4803F0AAFF0346002BA3
:102CC00001D000F025FE00233B6400237B6407F164
:102CD00040031946254805F03BFB0346002B01D075
:102CE00000F016FE60237B620023BB620023FB62C0
:102CF00000233B6300237B630023BB630023FB6350
:102D000007F1240300221946184804F0E5FC0346A5
:102D1000002B01D000F0FCFD07F12403042219462A
:102D2000124804F0D9FC0346002B01D000F0F0FD5E
:102D300000237B600023BB600023FB6000233B611A
:102D400000237B614FF40053BB6100233B623B1DBA
:102D50001946064805F078FB0346002B01D000F029
:102D6000D7FD00BF5837BD4680BD00BF940400208A
:102D70000004014080B500AF114B124A1A60104B9D
:102D80004FF4E1325A600E4B00229A600C4B002245
:102D9000DA600B4B00221A61094B0C225A61084B76
:102DA00000229A61064B0022DA61054805F0B2FB69
:102DB0000346002B01D000F0ABFD00BF80BD00BF7B
:102DC000DC0400200048004080B58AB000AF07F165
:102DD000140300221A605A609A60DA601A610023B4
:102DE0003B613E4B1B6B3D4A43F0100313633B4B6F
:102DF0001B6B03F010033B613B690023FB60374B07
:102E00001B6B364A43F001031363344B1B6B03F017
:102E10000103FB60FB680023BB60304B1B6B2F4A38
:102E200043F0080313632D4B1B6B03F00803BB60D7
:102E3000BB6800237B60294B1B6B284A43F00403CB
:102E40001363264B1B6B03F004037B607B6800233A
:102E50003B60224B1B6B214A43F0020313631F4B61
:102E60001B6B03F002033B603B6800224FF4FC61E4
:102E70001B4802F03DF900223C211A4802F038F9C3
:102E80004FF4FC637B610123BB610023FB610023E2
:102E90003B6207F114031946114801F075FF3C230A
:102EA0007B610123BB610023FB6102233B6207F1CD
:102EB000140319460B4801F067FF4FF480737B61E0
:102EC0000023BB610023FB6107F114031946064888
:102ED00001F05AFF00BF2837BD4680BD00380240D0
:102EE0000010024000000240000C024080B584B097
:102EF00002AF7860144B1B681846FDF725FB0246AD
:102F00000B46CDE90023114A052111480AF060FD66
:102F10000422104910480AF0DAFD0346002B06D1BE
:102F20004FF6FF7305220A490C4805F043FB0C4B92
:102F300001221A6004220849084805F0C6FB00BFB8
:102F40000837BD4680BD00BF44050020A00201082F
:102F5000E8050020A8020108E4050020DC040020A8
:102F6000380200200000000080B582B000AF786019
:102F70007B68374A934261D14FF48051354802F063
:102F80009FF80346012B08D10021314804F02EFDA3
:102F900003461A46304B1A601EE000212C4804F00C
:102FA00025FD03461A462D4B1A602C4B1A682A4BF6
:102FB0001B689A4207DD294B1A68274B1B68D31AF6
:102FC000274A136008E0244B1B68C3F58032234B6B
:102FD0001B681344224A1360204B1A681E4B1B685F
:102FE0009A4208DD1D4B1A681B4B1B68D31A184602
:102FF000FDF798FA0AE0184B1B68C3F57F43FF33CF
:10300000164A126813441846FDF78CFA0EA3D3E94A
:103010000023FDF7F1FA02460B46104619464FF021
:1030200000024FF08043FDF711FC02460B461046AC
:103030001946FDF7D9FD03460A4A136000BF083759
:10304000BD4680BDAFF300809CC420B07268A13F34
:1030500004040020000C0240380500203C0500203C
:10306000400500204405002080B500AF1E4801F057
:103070002BF90A211C4801F02CFA1B4801F0B4FA84
:1030800003469AB2194B1A80174801F0EFF9174B13
:103090001B881846FDF746FA0FA3D3E90023FDF776
:1030A000ABFA02460B4610461946FDF755FD03469E
:1030B0001846FDF737FA0AA3D3E90023FDF7E6F82F
:1030C00002460B4610461946FDF76EFD03469AB2BE
:1030D000064B1A8000BF80BDF25D4A5D328E71BF23
:1030E000A4703D0AD7E3354090020020EE05002091
:1030F00080B500AF1E4801F0E7F80A211C4801F036
:10310000E8F91B4801F070FA03469AB2194B1A808D
:10311000174801F0ABF9174B1B881846FDF702FA68
:103120000FA3D3E90023FDF767FA02460B461046CA
:103130001946FDF711FD03461846FDF7F3F90AA3FA
:10314000D3E90023FDF7A2F802460B4610461946C4
:10315000FDF72AFD03469AB2064B1A8000BF80BDD8
:10316000F25D4A5D328E71BFA4703D0AD7E33540EF
:1031700048020020F005002080B500AF1348FEF79C
:1031800075FB1348FEF772FB124B4FF000021A60FA
:10319000114B4FF000021A60104B00221A60104BC6
:1031A00000221A600D4B1A680E4B1B685A630C4BB9
:1031B0001A680C4B1B689A635F20FFF72FF94FF4D6
:1031C0007A7006F08DFF00BF80BD00BF840500202F
:1031D000AC050020DC05002028020020D4050020DA
:1031E000D80500209404002080B582B000AF78603C
:1031F0004FF48061034801F094FF962006F070FFC1
:1032000000BFF5E70010024080B596B002AF7860CD
:1032100000233B6407F1440300221A605A609A605D
:103220000023FB6007F110032E22002118460AF04C
:1032300046FC334B1B681846FDF786F902460B46E1
:1032400007F14000CDE900232E4A10210AF0C0FB0F
:1032500007F140031A4628210A2009F059FD2A4B9C
:103260001B681846FDF770F902460B4607F140004F
:10327000CDE90023254A10210AF0AAFB07F14003FB
:103280001A4614210A2009F043FD214B1B681846F9
:10329000FDF75AF902460B4607F14000CDE900233D
:1032A0001C4A10210AF094FB07F140031A461E2124
:1032B0000A2009F02DFD09F0B7FB174B1B6807F139
:1032C0004000164A10210AF083FB07F140031A461A
:1032D0000A210A2009F01CFD0D4B1B681846FDF75A
:1032E00033F902460B4607F10C00CDE900230C4AE6
:1032F00032210AF06DFBC82006F0F2FE00BF98E70D
:1033000028020020B002010844050020B80201088C
:1033100080050020C802010824020020D80201080C
:10332000E802010880B582B000AF786000224FF457
:1033300000710F4801F0DCFE01224FF400710C48CF
:1033400001F0D6FE0A20FEF7E1FA00224FF40071E8
:10335000074801F0CDFE0A2006F0C2FEFFF784FE0A
:10336000FFF7C6FE642006F0BBFE00BFE4E700BF27
:10337000001002400000000080B58AB000AF786005
:103380003C21A14803F08EFF3C21A04803F08AFFB6
:103390009D4B1B685B6AFB849C4B1B685B6A7B8450
:1033A00000F01EFFF86100F01BFF0246FB69D31A14
:1033B0000A2B40F21E81944B1B685B6A7B83934B04
:1033C0001B685B6A3B83904B1B681B6803F0100310
:1033D000102B14D1B7F91A20B7F926309A4205DA22
:1033E000FA8C7B8BD31A9BB21BB206E0FA8C7B8BD8
:1033F000D31A9BB2013B9BB21BB2BB8413E0B7F95B
:103400001A20B7F926309A4205DD7A8BFB8CD31A45
:103410009BB21BB206E07A8BFB8CD31A9BB2013BAA
:103420009BB21BB2BB84794B1B681B6803F0100373
:10343000102B14D1B7F91820B7F922309A4205DAC7
:103440007A8C3B8BD31A9BB21BB206E07A8C3B8BF7
:10345000D31A9BB2013B9BB21BB23B8413E0B7F97A
:103460001820B7F922309A4205DD3A8B7B8CD31AAB
:103470009BB21BB206E03A8B7B8CD31A9BB2013B0A
:103480009BB21BB23B84B7F9243007EE903AF8EEBA
:10349000E77A9FED5F7AC7EE876A16EE900AFDF72E
:1034A00053F802460B465B49C1E90023B7F92030C7
:1034B00007EE903AF8EEE77A9FED557AC7EE876A05
:1034C00016EE900AFDF740F802460B465249C1E954
:1034D000002300F085FE0246FB69D31A07EE903AFE
:1034E000F8EE677A9FED4D7A67EE877AC7ED057A39
:1034F000B7F9243007EE903AB8EEE77AD7ED057ABF
:10350000DFED436A67EEA67AC7EE276A16EE900AE9
:10351000FDF71AF802460B464149C1E90023B7F905
:10352000203007EE903AB8EEE77AD7ED057ADFED76
:10353000386A67EEA67AC7EE276A16EE900AFDF79C
:1035400003F802460B463749C1E90023314BD3E962
:1035500000012BA3D3E90023FDF74EF802460B46EA
:10356000104619464FF000022F4BFDF745F8024672
:103570000B4610461946FDF737FB03463B61264BC9
:10358000D3E900011EA3D3E90023FDF735F8024675
:103590000B46104619464FF00002234BFDF72CF85E
:1035A00002460B4610461946FDF71EFB0346FB601C
:1035B00097ED047AD7ED037A37EE277AF0EE006ABA
:1035C000C7EE267AC7ED027A184B93ED007AD7ED55
:1035D000027A77EE277A154BC3ED007A0A4B1B6807
:1035E0005B6AFB84094B1B685B6A7B8400F0F8FD17
:1035F000F861962006F074FDD5E600BFAFF30080B9
:10360000EA2E4454FB21094074030020BC0300202F
:103610000000A54448050020500500206F12833AA1
:10362000580500206005002000001A4028020020F4
:1036300080B586B000AF78600C21A04803F042FB53
:103640009F4B4FF000021A6000219E4803F03AFBA6
:1036500004219C4803F036FB00BF4FF480719A4868
:1036600001F02EFD0346012BF7D055237B615F202F
:10367000FEF7D4FEC82006F033FD00F0B1FD03468E
:10368000924A136000F0ACFD0346914A1360904BE0
:103690001A688E4B1B68D31A07EE903AF8EE677AD9
:1036A0009FED8C7A67EE877A8B4BC3ED007A4FF4EF
:1036B0008071854801F004FD0346002B09D1874B3A
:1036C00001221A600020FEF7EBF840F2262006F0F7
:1036D00007FD834B03220021824806F0C9F800F061
:1036E0007FFD03467A4A1360794B1A68774B1B6853
:1036F000D31A07EE903AF8EE677A9FED767A67EE86
:10370000877A754BC3ED007A754BD3ED027A764B11
:1037100093ED007AF0EE470AB0EE670AFEF70CFE72
:1037200087ED040A6C4B93ED007AD7ED047A27EE0F
:10373000277A634BD3ED007A77EE277A604BC3ED9F
:10374000007A5F4BD3ED007AFDEEE77A17EE903A00
:10375000C3F15F03654A136000F042FD03465B4A14
:103760001360634B1B68012B40F09080614B1B681A
:10377000012B00F08B800023FB605F4907F10C03F5
:10378000032218460AF0B5F900233B7407F10C0335
:10379000184609F07BFB0346584A1360584B1B78C8
:1037A000572B14D1554B1B6807EE903AB8EEE77AC9
:1037B000544BD3ED007AB4EEE77AF1EE10FA06DD61
:1037C0000120FEF76DF80020FEF718FA5DE04C4B83
:1037D0001B78442B0BD14A4B5B78312B07D101204E
:1037E000FEF75EF86FF05600FEF74EFB4DE0444BDF
:1037F0001B78442B0AD1424B5B78302B06D100203A
:10380000FEF74EF85520FEF7CBFC3EE03C4B1B7814
:10381000412B0AD13A4B5B78312B06D10120FEF7C0
:103820003FF85520FEF770FA2FE0354B1B78412BFF
:103830000BD1334B5B78302B07D10020FEF730F8EB
:103840006FF05600FEF7ECFB1FE02D4B1B78532B5F
:1038500014D12A4B1B6807EE903AB8EEE77A294B51
:10386000D3ED007AB4EEE77AF1EE10FA06DD00202F
:10387000FEF716F80020FEF73BF906E01D4B01228B
:103880001A601B4B00221A6013E012E0194B1B68F0
:10389000012B0ED1FFF770FC4FF6FF7303221A497C
:1038A0001A4804F087FE124B00221A60114B0022C6
:1038B0001A600A2006F014FCF9E600BF2C03002071
:1038C000DC05002094040020000C0240400200208F
:1038D000440200206F12833A2C02002004000020D2
:1038E00068050020D80200200800002030020020D7
:1038F0003802002034020020E505002024020020C8
:10390000E405002028020020F4020108DC04002065
:1039100080B400AF72B600BF00BFFDE780B582B0D3
:1039200000AF00237B60124B5B6C114A43F4804371
:1039300053640F4B5B6C03F480437B607B68002314
:103940003B600B4B1B6C0A4A43F080531364084BDB
:103950001B6C03F080533B603B6800220F216FF02B
:10396000010001F048F900BF0837BD4680BD00BF27
:103970000038024080B58CB000AF786007F11C03BE
:1039800000221A605A609A60DA601A617B681B68CC
:103990002E4A934228D10023BB612D4B5B6C2C4AED
:1039A00043F4807353642A4B5B6C03F48073BB61F4
:1039B000BB6900237B61264B1B6B254A43F0010347
:1039C0001363234B1B6B03F001037B617B690123B2
:1039D000FB6103233B6200237B6207F11C03194652
:1039E0001C4801F0D1F92CE07B681B681A4A93420D
:1039F00027D100233B61164B5B6C154A43F40073DF
:103A00005364134B5B6C03F400733B613B6900230D
:103A1000FB600F4B1B6B0E4A43F0010313630C4B0F
:103A20001B6B03F00103FB60FB680223FB610323B4
:103A30003B6200237B6207F11C031946054801F035
:103A4000A3F900BF3037BD4680BD00BF0020014054
:103A500000380240000002400021014080B58AB0D9
:103A600000AF786007F1140300221A605A609A6070
:103A7000DA601A617B681B68194A93422CD10023D3
:103A80003B61184B1B6B174A43F002031363154B42
:103A90001B6B03F002033B613B694FF440737B6196
:103AA0001223BB610023FB6103233B6204237B627F
:103AB00007F1140319460C4801F066F90023FB6076
:103AC000084B1B6C074A43F400131364054B1B6C33
:103AD00003F40013FB60FB6800BF2837BD4680BDC0
:103AE00000540040003802400004024080B58EB00F
:103AF00000AF786007F1240300221A605A609A60D0
:103B0000DA601A617B681B684A4A93420ED100232F
:103B10003B62494B5B6C484A43F001035364464B9C
:103B20005B6C03F001033B623B6A7FE07B681B68D0
:103B3000424A934235D10023FB613F4B1B6C3E4A06
:103B400043F0040313643C4B1B6C03F00403FB6160
:103B5000FB690023BB61384B1B6B374A43F00803FA
:103B60001363354B1B6B03F00803BB61BB694FF458
:103B700080537B620223BB620023FB6200233B6312
:103B800002237B6307F1240319462D4801F0FCF85A
:103B9000002205211E2001F02EF81E2001F047F81A
:103BA00044E07B681B68274A93420ED100237B6167
:103BB000214B1B6C204A43F0100313641E4B1B6CFB
:103BC00003F010037B617B6930E07B681B681E4A51
:103BD00093422BD100233B61174B5B6C164A43F099
:103BE00002035364144B5B6C03F002033B613B69BB
:103BF0000023FB60104B1B6B0F4A43F0040313635D
:103C00000D4B1B6B03F00403FB60FB68C0237B625E
:103C10000223BB620023FB6200233B6303237B631D
:103C200007F124031946094801F0AEF800BF383700
:103C3000BD4680BD00000140003802400008004041
:103C4000000C024000100040000401400008024047
:103C500080B58CB000AF786007F11C0300221A60B9
:103C60005A609A60DA601A617B681B68B3F1804F12
:103C70004BD10023BB613F4B1B6C3E4A43F0010319
:103C800013643C4B1B6C03F00103BB61BB69002355
:103C90007B61384B1B6B374A43F001031363354B91
:103CA0001B6B03F001037B617B6900233B61314B9C
:103CB0001B6B304A43F0020313632E4B1B6B03F064
:103CC00002033B613B694FF40043FB6102233B620B
:103CD00000237B620023BB620123FB6207F11C030C
:103CE0001946254801F050F80823FB6102233B6286
:103CF00000237B620023BB620123FB6207F11C03EC
:103D000019461E4801F040F830E07B681B681C4AE9
:103D100093422BD10023FB60164B1B6C154A43F0DA
:103D200002031364134B1B6C03F00203FB60FB687C
:103D30000023BB600F4B1B6B0E4A43F00103136360
:103D40000C4B1B6B03F00103BB60BB68C023FB6122
:103D500002233B6200237B620023BB620223FB62DF
:103D600007F11C031946044801F00EF800BF303774
:103D7000BD4680BD00380240000002400004024001
:103D80000004004080B588B000AF786007F10C03F4
:103D900000221A605A609A60DA601A617B681B68B8
:103DA000124A93421ED10023BB60114B1B6B104A79
:103DB00043F0100313630E4B1B6B03F01003BB6047
:103DC000BB684FF48043FB6002233B6100237B61AF
:103DD0000023BB610123FB6107F10C031946054871
:103DE00000F0D2FF00BF2037BD4680BD000001407B
:103DF000003802400010024080B58AB000AF786001
:103E000007F1140300221A605A609A60DA601A619E
:103E10007B681B681D4A934234D100233B611C4BD5
:103E20001B6C1B4A43F480231364194B1B6C03F473
:103E300080233B613B690023FB60154B1B6B144ADD
:103E400043F004031363124B1B6B03F00403FB608A
:103E5000FB684FF440637B610223BB610023FB617D
:103E600003233B6207237B6207F1140319460948C9
:103E700000F08AFF00220521272000F0BCFE272049
:103E800000F0D5FE00BF2837BD4680BD0048004089
:103E9000003802400008024080B400AF00BFFDE7D8
:103EA00080B400AF00BFFDE780B400AF00BFFDE706
:103EB00080B400AF00BFFDE780B400AF00BFFDE7F6
:103EC00080B400AF00BFBD465DF8047B704780B58D
:103ED00000AF00F071F907F02BFD0346012B01D074
:103EE00008F022FB00BF80BD80B500AF024803F0A0
:103EF00067FA00BF80BD00BF0404002080B500AF9A
:103F0000024804F007FC00BF80BD00BFDC040020B5
:103F100080B400AF01231846BD465DF8047B7047AE
:103F200080B582B000AF7860396009F03FFE03468B
:103F300016221A604FF0FF3318460837BD4680BD81
:103F400080B582B000AF78604FF0FF317868FFF73E
:103F5000E7FF00BFFDE780B586B000AFF860B9604D
:103F60007A6000237B610AE0AFF300800146BB6802
:103F70005A1CBA60CAB21A707B6901337B617A69D4
:103F80007B689A42F0DB7B6818461837BD4680BDD7
:103F900080B586B000AFF860B9607A6000237B61BD
:103FA00009E0BB685A1CBA601B781846AFF3008062
:103FB0007B6901337B617A697B689A42F1DB7B68BC
:103FC00018461837BD4680BD80B483B000AF786016
:103FD0004FF0FF3318460C37BD465DF8047B704741
:103FE00080B483B000AF786039603B684FF4005212
:103FF0005A60002318460C37BD465DF8047B7047B5
:1040000080B483B000AF7860012318460C37BD46FA
:104010005DF8047B704780B485B000AFF860B9608C
:104020007A60002318461437BD465DF8047B70475C
:1040300080B586B000AF7860144A154BD31A7B6107
:104040007B693B61134B1B68002B02D1114B124A59
:104050001A60104B1A687B6813443A699A4207D277
:1040600009F0A4FD03460C221A604FF0FF3309E06B
:10407000084B1B68FB60074B1A687B681344054AB2
:104080001360FB6818461837BD4680BD000002204B
:1040900000040000F8050020A854002080B400AF00
:1040A000064BD3F88830054A43F47003C2F88830D1
:1040B00000BFBD465DF8047B704700BF00ED00E027
:1040C000DFF834D00D480E490E4A002302E0D458E0
:1040D000C4500433C4188C42F9D30B4A0B4C002350
:1040E00001E013600432A242FBD3FFF7D7FF09F0CF
:1040F00063FDFEF7B7F970470000022000000020C2
:10410000000200203012010800020020A854002004
:10411000FEE7000080B500AF0E4B1B680D4A43F46C
:10412000007313600B4B1B680A4A43F480631360EF
:10413000084B1B68074A43F480731360032000F0A8
:104140004FFD0F2000F008F8FFF7E8FB00231846AA
:1041500080BD00BF003C024080B582B000AF7860F7
:10416000124B1A68124B1B7819464FF47A73B3FB43
:10417000F1F3B2FBF3F3184600F067FD0346002BA2
:1041800001D001230EE07B680F2B0AD8002279684A
:104190004FF0FF3000F02FFD064A7B6813600023CC
:1041A00000E0012318460837BD4680BD28000020E6
:1041B000300000202C00002080B400AF064B1B789C
:1041C0001A46064B1B681344044A136000BFBD46E1
:1041D0005DF8047B704700BF30000020FC05002024
:1041E00080B400AF034B1B681846BD465DF8047BE6
:1041F000704700BFFC05002080B584B000AF786038
:10420000FFF7EEFFB8607B68FB60FB68B3F1FF3F30
:1042100005D00A4B1B781A46FB681344FB6000BFAD
:10422000FFF7DEFF0246BB68D31AFA689A42F7D856
:1042300000BF00BF1037BD4680BD00BF300000206A
:1042400080B584B000AF78600023FB737B68002BDF
:1042500001D1012333E07B681B6C002B09D1786806
:10426000FFF788FB7B6800225A647B68002283F892
:104270003C207B681B6C03F01003002B18D17B687B
:104280001B6C23F4885323F0020343F002027B6883
:104290001A64786800F0D8FA7B6800225A647B6858
:1042A0001B6C23F0030343F001027B681A6401E0F6
:1042B0000123FB737B68002283F83C20FB7B1846BC
:1042C0001037BD4680BD000080B485B000AF786077
:1042D0000023BB607B6893F83C30012B01D10223A3
:1042E000B2E07B68012283F83C207B681B689B68F6
:1042F00003F00103012B18D07B681B689A687B6868
:104300001B6842F001029A60524B1B68524AA2FBA2
:1043100003239A0C13465B001344BB6002E0BB68A6
:10432000013BBB60BB68002BF9D17B681B689B68B5
:1043300003F00103012B7AD17B681B6C23F4E0634B
:1043400023F0010343F480727B681A647B681B6866
:104350005B6803F48063002B07D07B681B6C23F43D
:10436000405343F480527B681A647B681B6C03F4EF
:104370008053B3F5805F06D17B685B6C23F0060247
:104380007B685A6402E07B6800225A647B680022E2
:1043900083F83C20314BFB607B681B686FF0220286
:1043A0001A60FB685B6803F01F03002B2AD17B684F
:1043B0001B682B4A934215D07B681B68294A93429D
:1043C00005D1264B5B6803F01F03002B0AD07B68E6
:1043D0001B68254A934236D1204B5B6803F01003DB
:1043E000002B30D17B681B689B6803F04053002B87
:1043F00029D17B681B689A687B681B6842F0804201
:104400009A6020E07B681B68154A93421BD17B6849
:104410001B689B6803F04053002B14D17B681B681A
:104420009A687B681B6842F080429A600BE07B6868
:104430001B6C43F010027B681A647B685B6C43F072
:1044400001027B685A64002318461437BD465DF8A4
:10445000047B70472800002083DE1B4300230140BB
:1044600000200140002101400022014080B483B0BF
:1044700000AF78607B6893F83C30012B01D10223B8
:1044800021E07B68012283F83C207B681B689A68E6
:104490007B681B6822F001029A607B681B689B683E
:1044A00003F00103002B09D17B681B6C23F48853B4
:1044B00023F0010343F001027B681A647B68002249
:1044C00083F83C20002318460C37BD465DF8047B7A
:1044D000704780B584B000AF786039600023FB601E
:1044E0007B681B689B6803F48063B3F5806F13D10E
:1044F0007B681B689B6803F48073B3F5807F0BD1E6
:104500007B681B6C43F020027B681A647B68002286
:1045100083F83C20012363E0FFF762FEF86021E0AE
:104520003B68B3F1FF3F1DD03B68002B07D0FFF77E
:1045300057FE0246FB68D31A3A689A4212D27B6849
:104540001B681B6803F00203022B0BD07B681B6CFB
:1045500043F004027B681A647B68002283F83C20E5
:1045600003233DE07B681B681B6803F00203022BFA
:10457000D6D17B681B686FF012021A607B681B6CD7
:1045800043F400727B681A647B681B689B6803F0C5
:104590004053002B23D17B681B7E002B1FD17B68EF
:1045A0001B68DB6A03F47003002B06D07B681B6872
:1045B0009B6803F48063002B11D17B681B6C23F490
:1045C00080727B681A647B681B6C03F48053002B39
:1045D00005D17B681B6C43F001027B681A640023E1
:1045E00018461037BD4680BD80B483B000AF7860F8
:1045F0007B681B68DB6C18460C37BD465DF8047B96
:104600007047000080B485B000AF78603960002347
:10461000BB607B6893F83C30012B01D1022305E19C
:104620007B68012283F83C203B681B68092B25D955
:104630007B681B68D9683B681B689BB21A461346A7
:104640005B0013441E3B072202FA03F3DA437B6844
:104650001B680A40DA607B681B68D9683B689A6807
:104660003B681B689BB2184603465B0003441E3B35
:104670009A407B681B680A43DA6022E07B681B680B
:1046800019693B681B689BB21A4613465B001344CA
:10469000072202FA03F3DA437B681B680A401A61B7
:1046A0007B681B6819693B689A683B681B689BB20A
:1046B000184603465B0003449A407B681B680A4324
:1046C0001A613B685B68062B24D87B681B68596BB2
:1046D0003B685A6813469B001344053B1F2202FAAD
:1046E00003F3DA437B681B680A405A637B681B68E4
:1046F000596B3B681B689BB218463B685A68134667
:104700009B001344053B00FA03F27B681B680A43D5
:104710005A634CE03B685B680C2B24D87B681B68B1
:10472000196B3B685A6813469B001344233B1F22B6
:1047300002FA03F3DA437B681B680A401A637B685A
:104740001B68196B3B681B689BB218463B685A682C
:1047500013469B001344233B00FA03F27B681B685B
:104760000A431A6323E07B681B68D96A3B685A686E
:1047700013469B001344413B1F2202FA03F3DA4322
:104780007B681B680A40DA627B681B68D96A3B68F1
:104790001B689BB218463B685A6813469B0013443B
:1047A000413B00FA03F27B681B680A43DA62224B42
:1047B000FB607B681B68214A934209D13B681B68F8
:1047C000122B05D1FB685B6843F48002FB685A60DA
:1047D0007B681B68194A934223D13B681B68102BE6
:1047E00003D03B681B68112B1BD1FB685B6843F44B
:1047F0000002FB685A603B681B68102B11D1104BFC
:104800001B68104AA2FB03239A0C13469B00134417
:104810005B00BB6002E0BB68013BBB60BB68002B78
:10482000F9D17B68002283F83C2000231846143716
:10483000BD465DF8047B7047002301400020014025
:104840002800002083DE1B4380B485B000AF786071
:10485000794BFB60FB685B6823F44032FB685A606D
:10486000FB685A687B685B681A43FB685A607B6820
:104870001B685A687B681B6822F480725A607B68E8
:104880001B6859687B681B691A027B681B680A43AE
:104890005A607B681B685A687B681B6822F040720C
:1048A0005A607B681B6859687B689A687B681B68DC
:1048B0000A435A607B681B689A687B681B6822F40D
:1048C00000629A607B681B6899687B68DA687B681D
:1048D0001B680A439A607B689B6A584A934222D0BD
:1048E0007B681B689A687B681B6822F070629A601C
:1048F0007B681B6899687B689A6A7B681B680A43B7
:104900009A607B681B689A687B681B6822F040523B
:104910009A607B681B6899687B68DA6A7B681B68A9
:104920000A439A600FE07B681B689A687B681B6883
:1049300022F070629A607B681B689A687B681B68CB
:1049400022F040529A607B681B689A687B681B68FB
:1049500022F002029A607B681B6899687B681B7E64
:104960005A007B681B680A439A607B6893F8203082
:10497000002B1BD07B681B685A687B681B6842F45D
:1049800000625A607B681B685A687B681B6822F467
:1049900060425A607B681B6859687B685B6A013BB0
:1049A0005A037B681B680A435A6007E07B681B68F0
:1049B0005A687B681B6822F400625A607B681B6837
:1049C000DA6A7B681B6822F47002DA627B681B6813
:1049D000D96A7B68DB69013B1A057B681B680A435F
:1049E000DA627B681B689A687B681B6822F4007235
:1049F0009A607B681B6899687B6893F830305A022C
:104A00007B681B680A439A607B681B689A687B68AE
:104A10001B6822F480629A607B681B6899687B68D7
:104A20005B699A027B681B680A439A6000BF14376F
:104A3000BD465DF8047B7047002301400100000F74
:104A400080B485B000AF78607B6803F00703FB603B
:104A50000C4BDB68BB60BA684FF6FF031340BB60CA
:104A6000FB681A02BB68134343F0BF6343F400338F
:104A7000BB60044ABB68D36000BF1437BD465DF815
:104A8000047B704700ED00E080B400AF044BDB68AE
:104A90001B0A03F007031846BD465DF8047B704708
:104AA00000ED00E080B483B000AF0346FB7197F9DE
:104AB0000730002B0BDBFB7903F01F02074997F946
:104AC00007305B09012000FA02F241F8232000BF01
:104AD0000C37BD465DF8047B704700BF00E100E085
:104AE00080B483B000AF03463960FB7197F907309B
:104AF000002B0ADB3B68DAB20C4997F90730120148
:104B0000D2B20B4483F800230AE03B68DAB20849CA
:104B1000FB7903F00F03043B1201D2B20B441A7667
:104B200000BF0C37BD465DF8047B704700E100E034
:104B300000ED00E080B489B000AFF860B9607A6041
:104B4000FB6803F00703FB61FB69C3F10703042B58
:104B500028BF0423BB61FB690433062B02D9FB6920
:104B6000033B00E000237B614FF0FF32BB6902FA98
:104B700003F3DA43BB681A407B699A404FF0FF3178
:104B80007B6901FA03F3D9437B680B401343184652
:104B90002437BD465DF8047B7047000080B582B0C5
:104BA00000AF78607B68013BB3F1807F01D30123C4
:104BB0000FE00A4A7B68013B53600F214FF0FF3042
:104BC000FFF78EFF054B00229A60044B07221A6004
:104BD000002318460837BD4680BD00BF10E000E046
:104BE00080B582B000AF78607868FFF729FF00BF1A
:104BF0000837BD4680BD80B586B000AF0346B960BA
:104C00007A60FB7300237B61FFF73EFF78617A686F
:104C1000B9687869FFF78EFF024697F90F301146A1
:104C20001846FFF75DFF00BF1837BD4680BD80B551
:104C300082B000AF0346FB7197F907301846FFF7C3
:104C400031FF00BF0837BD4680BD80B582B000AFE0
:104C500078607868FFF7A2FF034618460837BD461C
:104C600080BD80B584B000AF78607B689B6DFB60D1
:104C7000FFF7B6FAB8607B6893F83530DBB2022BE9
:104C800008D07B6880225A657B68002283F8342034
:104C9000012352E07B681B681A687B681B6822F05E
:104CA00016021A607B681B685A697B681B6822F0D1
:104CB00080025A617B681B6C002B03D17B689B6C64
:104CC000002B07D07B681B681A687B681B6822F082
:104CD00008021A607B681B681A687B681B6822F0F0
:104CE00001021A6013E0FFF77BFA0246BB68D31A91
:104CF000052B0CD97B6820225A657B68032283F838
:104D000035207B68002283F83420032315E07B687C
:104D10001B681B6803F00103002BE4D17B68DB6D8B
:104D20003F229A40FB689A607B68012283F8352015
:104D30007B68002283F83420002318461037BD46D4
:104D400080BD80B483B000AF78607B6893F8353065
:104D5000DBB2022B04D07B6880225A6501230CE071
:104D60007B68052283F835207B681B681A687B689E
:104D70001B6822F001021A60002318460C37BD465A
:104D80005DF8047B7047000080B489B000AF7860A4
:104D9000396000237B6100233B610023BB6100235A
:104DA000FB616BE10122FB6902FA03F37B613B6863
:104DB0001B687A6913403B613A697B699A4240F00B
:104DC0005A813B685B6803F00303012B05D03B6805
:104DD0005B6803F00303022B30D17B689B68BB61E7
:104DE000FB695B00032202FA03F3DB43BA69134059
:104DF000BB613B68DA68FB695B0002FA03F3BA69DE
:104E00001343BB617B68BA699A607B685B68BB616E
:104E10000122FB6902FA03F3DB43BA691340BB6169
:104E20003B685B681B0903F00102FB6902FA03F3AC
:104E3000BA691343BB617B68BA695A603B685B68B7
:104E400003F00303032B17D07B68DB68BB61FB69AE
:104E50005B00032202FA03F3DB43BA691340BB6130
:104E60003B689A68FB695B0002FA03F3BA69134373
:104E7000BB617B68BA69DA603B685B6803F0030377
:104E8000022B23D1FB69DA087B68083253F8223001
:104E9000BB61FB6903F007039B000F2202FA03F3D7
:104EA000DB43BA691340BB613B681A69FB6903F0D5
:104EB00007039B0002FA03F3BA691343BB61FB6962
:104EC000DA087B680832B96943F822107B681B68EE
:104ED000BB61FB695B00032202FA03F3DB43BA699F
:104EE0001340BB613B685B6803F00302FB695B0036
:104EF00002FA03F3BA691343BB617B68BA691A60AB
:104F00003B685B6803F44033002B00F0B48000235F
:104F1000FB60604B5B6C5F4A43F4804353645D4BC2
:104F20005B6C03F48043FB60FB685B4AFB699B0896
:104F3000023352F82330BB61FB6903F003039B008B
:104F40000F2202FA03F3DB43BA691340BB617B68AB
:104F5000524A93422BD07B68514A934225D07B68BA
:104F6000504A93421FD07B684F4A934219D07B68C6
:104F70004E4A934213D07B684D4A93420DD07B68D2
:104F80004C4A934207D07B684B4A934201D1072396
:104F90000EE008230CE006230AE0052308E00423C2
:104FA00006E0032304E0022302E0012300E00023E3
:104FB000FA6902F0030292009340BA691343BB619D
:104FC0003549FB699B080233BA6941F823203B4B02
:104FD0009B68BB613B69DB43BA691340BB613B68BB
:104FE0005B6803F48013002B03D0BA693B69134359
:104FF000BB61324ABB699360304BDB68BB613B6984
:10500000DB43BA691340BB613B685B6803F4001380
:10501000002B03D0BA693B691343BB61274ABB69C4
:10502000D360264B5B68BB613B69DB43BA691340C5
:10503000BB613B685B6803F40033002B03D0BA69A3
:105040003B691343BB611D4ABB6953601B4B1B6823
:10505000BB613B69DB43BA691340BB613B685B687A
:1050600003F48033002B03D0BA693B691343BB615F
:10507000124ABB691360FB690133FB61FB690F2BAB
:105080007FF690AE00BF00BF2437BD465DF8047BBD
:10509000704700BF00380240003801400000024065
:1050A0000004024000080240000C024000100240D0
:1050B0000014024000180240001C0240003C014065
:1050C00080B485B000AF78600B467B807B681A693E
:1050D0007B881340002B02D00123FB7301E00023E7
:1050E000FB73FB7B18461437BD465DF8047B7047A5
:1050F00080B483B000AF78600B467B8013467B7032
:105100007B78002B03D07A887B689A6103E07B88E8
:105110001A047B689A6100BF0C37BD465DF8047BBA
:10512000704780B485B000AF78600B467B807B68A9
:105130005B69FB607A88FB6813401A04FB68D943FB
:105140007B880B401A437B689A6100BF1437BD46C9
:105150005DF8047B7047000080B584B000AF7860D4
:105160007B68002B01D101232BE17B6893F83D3054
:10517000DBB2002B06D17B68002283F83C207868E4
:10518000FEF76CFC7B68242283F83D207B681B685B
:105190001A687B681B6822F001021A607B681B6832
:1051A0001A687B681B6842F400421A607B681B68BF
:1051B0001A687B681B6822F400421A6001F048FC00
:1051C000F8607B685B68814A934207D8FB68804A35
:1051D000934294BF01230023DBB206E0FB687D4AC3
:1051E000934294BF01230023DBB2002B01D00123A3
:1051F000E7E0FB68784AA2FB03239B0CBB607B685B
:105200001B685B6823F03F017B681B68BA680A4330
:105210005A607B681B681B6A23F03F017B685B68F0
:105220006A4A934202D8BB68013309E0BB684FF475
:10523000967202FB03F3694AA2FB03239B09013325
:105240007A6812680B4313627B681B68DB6923F47E
:105250004F4222F0FF027B685B685C498B4219D8A1
:10526000FB68591E7B685B685B00B1FBF3F3591C5C
:1052700040F6FC730B40002B0AD0FB68591E7B687C
:105280005B685B00B1FBF3F30133C3F30B0351E045
:1052900004234FE07B689B68002B11D1FB68581EEC
:1052A0007B6859680B465B000B44B0FBF3F301339A
:1052B000C3F30B03002B0CBF01230023DBB212E06E
:1052C000FB68581E7B6859680B469B000B4499008D
:1052D0000B44B0FBF3F30133C3F30B03002B0CBF00
:1052E00001230023DBB2002B01D0012322E07B68E5
:1052F0009B68002B0ED1FB68581E7B6859680B46D3
:105300005B000B44B0FBF3F30133C3F30B0343F433
:1053100000430FE0FB68581E7B6859680B469B00F2
:105320000B4499000B44B0FBF3F30133C3F30B03BD
:1053300043F44043796809681343CB617B681B6879
:105340001B6823F0C0017B68DA697B681B6A1A431B
:105350007B681B680A431A607B681B689B6823F4A0
:10536000034323F0FF037A6811697A68D268114316
:105370007A6812680B4393607B681B68DB6823F0D4
:10538000FF017B685A697B689B691A437B681B68CD
:105390000A43DA607B681B681A687B681B6842F006
:1053A00001021A607B6800221A647B68202283F85D
:1053B0003D207B6800221A637B68002283F83E2030
:1053C000002318461037BD4680BD00BFA0860100EF
:1053D0007F841E00FF083D0083DE1B43D34D621017
:1053E00080B588B002AFF860084611461A460346F9
:1053F0007B810B463B811346FB80FEF7F1FE786113
:10540000FB6893F83D30DBB2202B40F0D9807B69FC
:105410000093192301226D49F86800F08BFC0346C4
:10542000002B01D00223CCE0FB6893F83C30012B29
:1054300001D10223C5E0FB68012283F83C20FB6810
:105440001B681B6803F00103012B07D0FB681B6876
:105450001A68FB681B6842F001021A60FB681B684F
:105460001A68FB681B6822F400621A60FB6821223C
:1054700083F83D20FB68402283F83E20FB68002231
:105480001A64FB683A6A5A62FB68BA8C5A85FB68F0
:105490005B8D9AB2FB681A85FB684D4ADA62F88820
:1054A0003A8979897B690193BB6A00930346F8685E
:1054B00000F0C2FA0346002B52D0012381E07A6942
:1054C000B96AF86800F050FD0346002B0DD0FB6868
:1054D0001B6C042B07D1FB681B681A68FB681B68F0
:1054E00042F400721A6001236BE0FB685B6A1A7871
:1054F000FB681B681A61FB685B6A5A1CFB685A628E
:10550000FB681B8D013B9AB2FB681A85FB685B8DBB
:105510009BB2013B9AB2FB685A85FB681B685B69CA
:1055200003F00403042B1BD1FB681B8D002B17D049
:10553000FB685B6A1A78FB681B681A61FB685B6A28
:105540005A1CFB685A62FB681B8D013B9AB2FB68D0
:105550001A85FB685B8D9BB2013B9AB2FB685A854A
:10556000FB681B8D002BAAD17A69B96AF86800F034
:1055700043FD0346002B0DD0FB681B6C042B07D1A9
:10558000FB681B681A68FB681B6842F400721A60AB
:10559000012316E0FB681B681A68FB681B6842F46D
:1055A00000721A60FB68202283F83D20FB6800220D
:1055B00083F83E20FB68002283F83C20002300E0B3
:1055C000022318461837BD4680BD00BF02001000F8
:1055D0000000FFFF80B58CB002AFF86008461146AE
:1055E0001A4603467B810B463B811346FB80FEF740
:1055F000F7FD7862FB6893F83D30DBB2202B40F07A
:1056000014827B6A0093192301227B49F86800F019
:1056100091FB0346002B01D0022307E2FB6893F8BD
:105620003C30012B01D1022300E2FB68012283F808
:105630003C20FB681B681B6803F00103012B07D0AB
:10564000FB681B681A68FB681B6842F001021A605D
:10565000FB681B681A68FB681B6822F400621A600A
:10566000FB68222283F83D20FB68402283F83E201D
:10567000FB6800221A64FB683A6B5A62FB68BA8EB8
:105680005A85FB685B8D9AB2FB681A85FB685B4A9A
:10569000DA62F8883A8979897B6A0193BB6B009357
:1056A0000346F86800F05EFA0346002B01D00123A0
:1056B000BCE1FB681B8D002B13D100233B62FB6810
:1056C0001B685B693B62FB681B689B693B623B6ACA
:1056D000FB681B681A68FB681B6842F400721A605A
:1056E00090E1FB681B8D012B1BD1FB681B681A68BE
:1056F000FB681B6822F480621A600023FB61FB6870
:105700001B685B69FB61FB681B689B69FB61FB694C
:10571000FB681B681A68FB681B6842F400721A6019
:1057200070E1FB681B8D022B1BD1FB681B681A689C
:10573000FB681B6822F480621A60FB681B681A68A9
:10574000FB681B6842F400621A600023BB61FB68BF
:105750001B685B69BB61FB681B689B69BB61BB69BC
:1057600050E100237B61FB681B685B697B61FB6820
:105770001B689B697B617B6944E1FB681B8D032B84
:1057800000F2F180FB681B8D012B23D17A6AB96B83
:10579000F86800F079FC0346002B01D0012345E1B5
:1057A000FB681B681A69FB685B6AD2B21A70FB68F7
:1057B0005B6A5A1CFB685A62FB681B8D013B9AB2FC
:1057C000FB681A85FB685B8D9BB2013B9AB2FB6854
:1057D0005A8517E1FB681B8D022B4ED17B6A009323
:1057E000BB6B00220649F86800F0A4FA0346002BC0
:1057F00008D001231AE100BF020010000000FFFFE3
:1058000004000100FB681B681A68FB681B6842F40F
:1058100000721A60FB681B681A69FB685B6AD2B287
:105820001A70FB685B6A5A1CFB685A62FB681B8D26
:10583000013B9AB2FB681A85FB685B8D9BB2013B0A
:105840009AB2FB685A85FB681B681A69FB685B6A39
:10585000D2B21A70FB685B6A5A1CFB685A62FB681A
:105860001B8D013B9AB2FB681A85FB685B8D9BB26E
:10587000013B9AB2FB685A85C4E07B6A0093BB6B1C
:1058800000226C49F86800F055FA0346002B01D05D
:105890000123CBE0FB681B681A68FB681B6822F4D5
:1058A00080621A60FB681B681A69FB685B6AD2B287
:1058B0001A70FB685B6A5A1CFB685A62FB681B8D96
:1058C000013B9AB2FB681A85FB685B8D9BB2013B7A
:1058D0009AB2FB685A857B6A0093BB6B00225549DC
:1058E000F86800F027FA0346002B01D001239DE061
:1058F000FB681B681A68FB681B6842F400721A6038
:10590000FB681B681A69FB685B6AD2B21A70FB6895
:105910005B6A5A1CFB685A62FB681B8D013B9AB29A
:10592000FB681A85FB685B8D9BB2013B9AB2FB68F2
:105930005A85FB681B681A69FB685B6AD2B21A70E9
:10594000FB685B6A5A1CFB685A62FB681B8D013B53
:105950009AB2FB681A85FB685B8D9BB2013B9AB2D9
:10596000FB685A854EE07A6AB96BF86800F08CFBE8
:105970000346002B01D0012358E0FB681B681A691D
:10598000FB685B6AD2B21A70FB685B6A5A1CFB68E0
:105990005A62FB681B8D013B9AB2FB681A85FB6853
:1059A0005B8D9BB2013B9AB2FB685A85FB681B6812
:1059B0005B6903F00403042B24D1FB681B8D032BCC
:1059C00007D1FB681B681A68FB681B6822F48062B9
:1059D0001A60FB681B681A69FB685B6AD2B21A70AE
:1059E000FB685B6A5A1CFB685A62FB681B8D013BB3
:1059F0009AB2FB681A85FB685B8D9BB2013B9AB239
:105A0000FB685A85FB681B8D002B7FF4B6AEFB68E4
:105A1000202283F83D20FB68002283F83E20FB68AB
:105A2000002283F83C20002300E002231846283798
:105A3000BD4680BD0400010080B588B002AFF860AB
:105A4000084611461A4603467B810B463B811346A6
:105A5000FB80FB681B681A68FB681B6842F4807255
:105A60001A607B6A00933B6A00224FF00111F868CC
:105A700000F060F90346002B0DD0FB681B681B6823
:105A800003F48073B3F5807F03D1FB684FF4007299
:105A90001A6403235FE07B89DBB21A46FB681B684C
:105AA00002F0FE021A617B6A3A6A2D49F86800F03A
:105AB000BBF90346002B01D001234CE000237B619E
:105AC000FB681B685B697B61FB681B689B697B618A
:105AD0007B697A6A396AF86800F046FA0346002B57
