:020000040800F2
:10000000000002201D440008E5410008ED41000801
:10001000F5410008FD41000805420008000000000D
:1000200000000000000000000000000001C6000801
:100030000D4200080000000051C800081B420008E3
:100040006D4400086D4400086D4400086D440008CC
:100050006D4400086D440008354200086D440008F6
:100060006D4400086D4400086D4400086D440008AC
:100070006D4400086D4400086D4400086D4400089C
:100080006D4400086D4400086D4400086D4400088C
:100090006D4400086D4400086D4400086D4400087C
:1000A0006D4400086D4400086D4400086D4400086C
:1000B0006D4400086D440008454200086D44000886
:1000C0006D4400086D4400086D4400086D4400084C
:1000D0006D4400086D4400086D4400085942000852
:1000E0006D4400086D4400086D4400086D4400082C
:1000F0006D4400086D4400086D4400086D4400081C
:100100006D4400086D4400086D4400086D4400080B
:100110006D4400086D4400086D4400086D440008FB
:100120006D4400086D4400086D4400086D440008EB
:100130006D4400086D4400086D4400086D440008DB
:100140006D4400086D4400086D4400086D440008CB
:100150006D4400086D4400086D4400086D440008BB
:100160006D4400086D4400086D4400086D440008AB
:100170006D4400086D4400086D4400080000000054
:080180006D4400086D44000805
:1001900010B5054C237833B9044B13B10448AFF3C1
:1001A00000800123237010BD000200200000000029
:1001B000B812010808B5034B1BB103490348AFF35C
:1001C000008008BD0000000004020020B8120108F1
:1001D00001F0FF01102A2BDB10F0070F08D010F8F8
:1001E000013B013A8B422DD010F0070F42B3F6D1FC
:1001F000F0B441EA012141EA014122F007047FF015
:1002000000070023F0E80256083C85EA010586EA6B
:10021000010685FA47F5A3FA87F586FA47F6A5FAA7
:1002200087F68EB9EED1F0BC01F0FF0102F00702B3
:1002300032B110F8013B013A83EA010313B1F8D15E
:100240000020704701387047002D06BF354603383F
:10025000073815F0010F07D1013015F4807F02BF78
:10026000013015F4C03F0130F0BC0138704700BFC9
:10027000034613F8012B002AFBD1181A01387047E6
:1002800081F0004102E000BF83F0004330B54FEA47
:1002900041044FEA430594EA050F08BF90EA020FB4
:1002A0001FBF54EA000C55EA020C7FEA645C7FEA47
:1002B000655C00F0E2804FEA5454D4EB5555B8BF6A
:1002C0006D420CDD2C4480EA020281EA030382EADB
:1002D000000083EA010180EA020281EA0303362D6D
:1002E00088BF30BD11F0004F4FEA01314FF4801C40
:1002F0004CEA113102D0404261EB410113F0004F52
:100300004FEA03334CEA133302D0524263EB430308
:1003100094EA050F00F0A780A4F10104D5F1200EA6
:100320000DDB02FA0EFC22FA05F2801841F1000101
:1003300003FA0EF2801843FA05F359410EE0A5F1D5
:1003400020050EF1200E012A03FA0EFC28BF4CF006
:10035000020C43FA05F3C01851EBE37101F00045BC
:1003600007D54FF0000EDCF1000C7EEB00006EEBC9
:100370000101B1F5801F1BD3B1F5001F0CD3490853
:100380005FEA30004FEA3C0C04F101044FEA4452AA
:1003900012F5800F80F09A80BCF1004F08BF5FEA31
:1003A000500C50F1000041EB045141EA050130BD11
:1003B0005FEA4C0C404141EB0101013C28BFB1F523
:1003C000801FE9D291F0000F04BF01460020B1FA6E
:1003D00081F308BF2033A3F10B03B3F120020CDA41
:1003E0000C3208DD02F1140CC2F10C0201FA0CF01F
:1003F00021FA02F10CE002F11402D8BFC2F1200C84
:1004000001FA02F120FA0CFCDCBF41EA0C01904039
:10041000E41AA2BF01EB0451294330BD6FEA040482
:100420001F3C1CDA0C340EDC04F11404C4F120026D
:1004300020FA04F001FA02F340EA030021FA04F37F
:1004400045EA030130BDC4F10C04C4F1200220FAD6
:1004500002F001FA04F340EA0300294630BD21FA14
:1004600004F0294630BD94F0000F83F4801306BFDA
:1004700081F480110134013D4EE77FEA645C18BFCE
:100480007FEA655C29D094EA050F08BF90EA020F65
:1004900005D054EA000C04BF1946104630BD91EA5D
:1004A000030F1EBF0021002030BD5FEA545C05D160
:1004B0004000494128BF41F0004130BD14F580049F
:1004C0003CBF01F5801130BD01F0004545F0FE4113
:1004D00041F470014FF0000030BD7FEA645C1ABF48
:1004E000194610467FEA655C1CBF0B46024650EA7F
:1004F000013406BF52EA033591EA030F41F40021AB
:1005000030BD00BF90F0000F04BF0021704730B530
:100510004FF4806404F132044FF000054FF0000105
:1005200050E700BF90F0000F04BF0021704730B5C6
:100530004FF4806404F1320410F0004548BF40429B
:100540004FF000013EE700BF42004FEAE2014FEAF0
:1005500031014FEA02701FBF12F07F4393F07F4FCB
:1005600081F06051704732F07F4208BF704793F0CE
:100570007F4F04BF41F40021704730B54FF46074E1
:1005800001F0004521F000411CE700BF50EA0102E4
:1005900008BF704730B54FF000050AE050EA01028D
:1005A00008BF704730B511F0004502D5404261EBFD
:1005B00041014FF4806404F132045FEA915C3FF43E
:1005C000D8AE4FF003025FEADC0C18BF03325FEADB
:1005D000DC0C18BF033202EBDC02C2F1200300FA8C
:1005E00003FC20FA02F001FA03FE40EA0E0021FAB1
:1005F00002F11444BDE600BF70B54FF0FF0C4CF49F
:10060000E06C1CEA11541DBF1CEA135594EA0C0F50
:1006100095EA0C0F00F0DEF82C4481EA030621EA8B
:100620004C5123EA4C5350EA013518BF52EA0335C6
:1006300041F4801143F4801338D0A0FB02CE4FF078
:100640000005E1FB02E506F00042E0FB03E54FF0A8
:100650000006E1FB03569CF0000F18BF4EF0010EA0
:10066000A4F1FF04B6F5007F64F5407404D25FEA9C
:100670004E0E6D4146EB060642EAC62141EA55514F
:100680004FEAC52040EA5E504FEACE2EB4F1FD0C91
:1006900088BFBCF5E06F1ED8BEF1004F08BF5FEA0F
:1006A000500E50F1000041EB045170BD06F00046C1
:1006B00046EA010140EA020081EA0301B4EB5C046E
:1006C000C2BFD4EB0C0541EA045170BD41F4801166
:1006D0004FF0000E013C00F3AB8014F1360FDEBF8B
:1006E000002001F0004170BDC4F10004203C35DA67
:1006F0000C341BDC04F11404C4F1200500FA05F3EA
:1007000020FA04F001FA05F240EA020001F000428A
:1007100021F0004110EBD37021FA04F642EB060100
:100720005EEA430E08BF20EAD37070BDC4F10C042A
:10073000C4F1200500FA04F320FA05F001FA04F2EE
:1007400040EA020001F0004110EBD37041F10001DA
:100750005EEA430E08BF20EAD37070BDC4F12005E5
:1007600000FA05F24EEA020E20FA04F301FA05F24D
:1007700043EA020321FA04F001F0004121FA04F2F5
:1007800020EA020000EBD3705EEA430E08BF20EAC5
:10079000D37070BD94F0000F0FD101F000464000FF
:1007A00041EB010111F4801F08BF013CF7D041EA81
:1007B000060195F0000F18BF704703F00046520085
:1007C00043EB030313F4801F08BF013DF7D043EA56
:1007D0000603704794EA0C0F0CEA135518BF95EA0C
:1007E0000C0F0CD050EA410618BF52EA4306D1D193
:1007F00081EA030101F000414FF0000070BD50EAB2
:10080000410606BF1046194652EA430619D094EA3B
:100810000C0F02D150EA013613D195EA0C0F05D125
:1008200052EA03361CBF104619460AD181EA030179
:1008300001F0004141F0FE4141F470014FF0000031
:1008400070BD41F0FE4141F4780170BD70B54FF0CC
:10085000FF0C4CF4E06C1CEA11541DBF1CEA13554C
:1008600094EA0C0F95EA0C0F00F0A7F8A4EB05042E
:1008700081EA030E52EA03354FEA013100F0888025
:100880004FEA03334FF0805545EA131343EA1263EE
:100890004FEA022245EA111545EA10654FEA0026A3
:1008A0000EF000419D4208BF964244F1FD0404F55C
:1008B000407402D25B084FEA3202B61A65EB0305B8
:1008C0005B084FEA32024FF480104FF4002CB6EB75
:1008D000020E75EB030E22BFB61A754640EA0C00F5
:1008E0005B084FEA3202B6EB020E75EB030E22BF35
:1008F000B61A754640EA5C005B084FEA3202B6EB76
:10090000020E75EB030E22BFB61A754640EA9C0034
:100910005B084FEA3202B6EB020E75EB030E22BF04
:10092000B61A754640EADC0055EA060E18D04FEAC2
:10093000051545EA16754FEA06164FEAC30343EA62
:1009400052734FEAC2025FEA1C1CC0D111F4801F2F
:100950000BD141EA00014FF000004FF0004CB6E728
:1009600011F4801F04BF01430020B4F1FD0C88BFC7
:10097000BCF5E06F3FF6AFAEB5EB030C04BFB6EBD2
:10098000020C5FEA500C50F1000041EB045170BDC5
:100990000EF0004E4EEA113114EB5C04C2BFD4EBF2
:1009A0000C0541EA045170BD41F480114FF0000E76
:1009B000013C90E645EA060E8DE60CEA135594EAF2
:1009C0000C0F08BF95EA0C0F3FF43BAF94EA0C0FF5
:1009D0000AD150EA01347FF434AF95EA0C0F7FF46A
:1009E00025AF104619462CE795EA0C0F06D152EABE
:1009F00003353FF4FDAE1046194622E750EA4106A2
:100A000018BF52EA43067FF4C5AE50EA41047FF4B2
:100A10000DAF52EA43057FF4EBAE12E74FF0FF3C17
:100A200006E000BF4FF0010C02E000BF4FF0010CE8
:100A30004DF804CD4FEA410C7FEA6C5C4FEA430C61
:100A400018BF7FEA6C5C1BD001B050EA410C0CBFB0
:100A500052EA430C91EA030F02BF90EA020F002012
:100A6000704710F1000F91EA030F58BF994208BF79
:100A700090422CBFD8176FEAE37040F00100704736
:100A80004FEA410C7FEA6C5C02D150EA013C07D18D
:100A90004FEA430C7FEA6C5CD6D152EA033CD3D0D8
:100AA0005DF8040B704700BF8446104662468C46D2
:100AB0001946634600E000BF01B5FFF7B7FF002805
:100AC00048BF10F1000F01BD4DF808EDFFF7F4FF2E
:100AD0000CBF012000205DF808FB00BF4DF808EDB9
:100AE000FFF7EAFF34BF012000205DF808FB00BFDC
:100AF0004DF808EDFFF7E0FF94BF012000205DF8FE
:100B000008FB00BF4DF808EDFFF7CEFF94BF0120B2
:100B100000205DF808FB00BF4DF808EDFFF7C4FFAB
:100B200034BF012000205DF808FB00BF4FEA410CF4
:100B30007FEA6C5C02D150EA013C0AD14FEA430CD7
:100B40007FEA6C5C02D152EA033C02D14FF0000014
:100B500070474FF0010070474FEA410212F5001252
:100B600015D211D56FF47873B3EB625212D94FEAF4
:100B7000C12343F0004343EA505311F0004F23FADE
:100B800002F018BF404270474FF00000704750EA33
:100B9000013005D111F0004008BF6FF000407047F0
:100BA0004FF00000704700BF4A0011D212F500124A
:100BB00011D20DD56FF47873B3EB62520ED44FEAB5
:100BC000C12343F0004343EA505323FA02F0704735
:100BD0004FF00000704750EA013002D14FF0FF3073
:100BE00070474FF0000070474FEA4102B2F1E04316
:100BF00024BFB3F5001CDCF1FE5C0DD901F0004C04
:100C00004FEAC0024CEA5070B2F1004F40EB830053
:100C100008BF20F00100704711F0804F21D113F17F
:100C20003872BCBF01F00040704741F480114FEAB8
:100C30005252C2F11802C2F1200C10FA0CF320FA41
:100C400002F018BF40F001004FEAC1234FEAD3235E
:100C500003FA0CFC40EA0C0023FA02F34FEA4303C8
:100C6000CCE77FEA625307D150EA01331EBF4FF051
:100C7000FE4040F44000704701F0004040F0FE406C
:100C800040F40000704700BF53B94AB9002908BFBB
:100C900000281CBF4FF0FF314FF0FF3000F06AB961
:100CA000ADF1080C6DE904CE00F006F8DDF804E0C3
:100CB000DDE9022304B070472DE9F047089D0C469A
:100CC000002B4ED194468C458646B2FA82F262D908
:100CD0004AB1C2F12003914020FA03F30CFA02FC5E
:100CE000194300FA02FE4FEA1C471FFA8CF6B1FBCB
:100CF000F7F44FEA1E4307FB141143EA014304FBD8
:100D000006F199420AD91CEB030304F1FF3080F08D
:100D10001281994240F20F81023C6344591A1FFA32
:100D20008EF3B1FBF7F007FB101143EA014300FB20
:100D300006F69E420AD91CEB030300F1FF3180F056
:100D4000FC809E4240F2F980634402389B1B40EADB
:100D5000044000211DB1D3400022C5E90032BDE8A6
:100D6000F0878B4205D90DB1C5E900010021084685
:100D7000F5E7B3FA83F1002946D1A34202D39042AA
:100D8000C0F0F080861A64EB03030120002DE6D04A
:100D9000C5E90063E3E7002A40F09080A1EB0C0472
:100DA0004FEA1C481FFA8CF70121B4FBF8F64FEA12
:100DB0001E4308FB164443EA044307FB06F098422F
:100DC00008D91CEB030306F1FF3402D2984200F26B
:100DD000CD8026461C1A1FFA8EF3B4FBF8F008FBF0
:100DE000104443EA044300FB07F79F4208D91CEB79
:100DF000030300F1FF3402D29F4200F2B08020468C
:100E0000DB1B40EA0640A5E7C1F120068B4022FA31
:100E100006F71F4320FA06FC04FA01F343EA0C0329
:100E2000F44000FA01F8380C4FEA1349B4FBF0FE25
:100E30001FFA87FC00FB1E4449EA04440EFB0CF930
:100E4000A14502FA01F20AD93C190EF1FF3A80F0ED
:100E50008480A14540F28180AEF1020E3C44A4EBB7
:100E600009041FFA83F9B4FBF0F300FB134449EAC9
:100E7000044403FB0CFCA44507D93C1903F1FF30E3
:100E800067D2A44565D9023B3C4443EA0E40A0FB2F
:100E90000293A4EB0C049C42CE469C4651D34ED008
:100EA00055B1B8EB0E0364EB0C0404FA06F6CB4024
:100EB0001E43CC40C5E90064002150E7C2F1200385
:100EC00020FA03F10CFA02FC24FA03F394400C43D9
:100ED0004FEA1C4800FA02FE1FFA8CF7B3FBF8F049
:100EE00008FB1031230C43EA014300FB07F1994250
:100EF00008D91CEB030300F1FF362CD299422AD902
:100F0000023863445B1AA4B2B3FBF8F108FB113357
:100F100044EA034401FB07F3A34208D91CEB040491
:100F200001F1FF3613D2A34211D902396444E41A05
:100F300041EA004139E70446F0E6084606E7C845BD
:100F4000AED2B9EB020E63EB070C0138A8E73146CD
:100F5000EDE7034699E73046D4E7D6467FE763449A
:100F600002384DE70646234608460FE7023E634433
:100F700030E700BF704700BF80B598B000AF87ED85
:100F8000070AC7ED060A87ED051AC7ED041A87EDB3
:100F9000032AC7ED022A87ED013A38604FF07E53ED
:100FA000FB654FF00003BB653B681B687B653B68D6
:100FB0005B683B653B689B68FB643B68DB68BB64C4
:100FC000D7ED077AF5EE407AF1EE10FA0ED1D7EDB3
:100FD000067AF5EE407AF1EE10FA07D1D7ED057AF0
:100FE000F5EE407AF1EE10FA00F01781D7ED077AAE
:100FF00027EEA77AD7ED067A67EEA77A37EE277A3B
:10100000D7ED057A67EEA77A77EE277AB0EE670A12
:1010100000F05EFA87ED110A97ED077AD7ED117AA5
:1010200067EE277AC7ED077A97ED067AD7ED117A42
:1010300067EE277AC7ED067A97ED057AD7ED117A34
:1010400067EE277AC7ED057A97ED147AD7ED127A15
:1010500027EE277AD7ED156AD7ED137A66EEA77AD1
:1010600077EE677AC7ED107A97ED157AD7ED147A97
:1010700027EE277AD7ED136AD7ED127A66EEA77AB4
:1010800077EE277AC7ED0F7AD7ED157A67EEA77A54
:10109000B6EE007A37EEC77AD7ED127A67EEA77A06
:1010A00077EE277AC7ED0E7A97ED067AD7ED0E7AAE
:1010B00027EE277AD7ED056AD7ED0F7A66EEA77A85
:1010C00077EE677AC7ED0D7A97ED057AD7ED107A4E
:1010D00027EE277AD7ED076AD7ED0E7A66EEA77A64
:1010E00077EE677AC7ED0C7A97ED077AD7ED0F7A2E
:1010F00027EE277AD7ED066AD7ED107A66EEA77A43
:1011000077EE677AC7ED0B7AD7ED167AF5EEC07AEF
:10111000F1EE10FA51DDB24B93ED007AD7ED166A7D
:10112000D7ED0D7A66EEA76AD7ED017A66EEA77A5B
:1011300077EE277AAA4BC3ED007AA94B93ED017A9B
:10114000D7ED166AD7ED0C7A66EEA76AD7ED017A6D
:1011500066EEA77A77EE277AA14BC3ED017AA04B12
:1011600093ED027AD7ED166AD7ED0B7A66EEA76A91
:10117000D7ED017A66EEA77A77EE277A984BC3ED22
:10118000027A974BD3ED007A97ED047A77EE277ABF
:10119000C7ED047A924BD3ED017A97ED037A77EE9F
:1011A000277AC7ED037A8E4BD3ED027A97ED027A58
:1011B00077EE277AC7ED027A0BE0894B4FF00002F9
:1011C0001A60874B4FF000025A60854B4FF00002C7
:1011D0009A6097ED177AD7ED0D7A67EE277A97ED3B
:1011E000047A77EE277AC7ED047A97ED177AD7ED70
:1011F0000C7A67EE277A97ED037A77EE277AC7EDB8
:10120000037A97ED177AD7ED0B7A67EE277A97ED89
:10121000027A77EE277AC7ED027AD7ED017AB6EE39
:10122000007A67EE877A97ED047A67EE277AC7ED42
:10123000047AD7ED017AB6EE007A67EE877A97EDF9
:10124000037A67EE277AC7ED037AD7ED017AB6EE17
:10125000007A67EE877A97ED027A67EE277AC7ED14
:10126000027A7B6DBB623B6D7B62FB6C3B62D7EDB0
:10127000097AB1EE677AD7ED047A27EE277AD7EDAF
:10128000086AD7ED037A66EEA77A37EE677AD7ED6C
:10129000126AD7ED027A66EEA77A77EE677A97ED53
:1012A000157A77EE277AC7ED157A97ED0A7AD7ED9A
:1012B000047A27EE277AD7ED086AD7ED027A66EE30
:1012C000A77A37EE277AD7ED126AD7ED037A66EE62
:1012D000A77A77EE677A97ED147A77EE277AC7EDDB
:1012E000147A97ED0A7AD7ED037A27EE277AD7EDAD
:1012F000096AD7ED027A66EEA77A37EE677AD7EDFC
:10130000126AD7ED047A66EEA77A77EE277A97ED20
:10131000137A77EE277AC7ED137A97ED0A7AD7ED2D
:10132000027A27EE277AD7ED096AD7ED037A66EEBF
:10133000A77A37EE277AD7ED086AD7ED047A66EEFA
:10134000A77A77EE677A97ED127A77EE277AC7ED6C
:10135000127AD7ED157A27EEA77AD7ED147A67EED1
:10136000A77A37EE277AD7ED137A67EEA77A37EEAA
:10137000277AD7ED127A67EEA77A77EE277AB0EE62
:10138000670A00F0A5F887ED110A97ED157AD7EDF9
:10139000117A67EE277A3B68C3ED007A3B68043325
:1013A00097ED147AD7ED117A67EE277AC3ED007ABC
:1013B0003B68083397ED137AD7ED117A67EE277AF9
:1013C000C3ED007A3B680C3397ED127AD7ED117AB2
:1013D00067EE277AC3ED007A00BF6037BD4680BD57
:1013E0001C02002000000000B0B582B000AF7860A1
:1013F0007B68043393ED007A7B680833D3ED007A81
:1014000027EE277A7B68D3ED006A7B680C33D3ED37
:10141000007A66EEA77A77EE277A77EEA77A17EE4C
:10142000900AFFF791F804460D467B6893ED007A29
:101430007B68D3ED007A27EE277A7B680433D3EDFF
:10144000006A7B680433D3ED007A66EEA77A37EE44
:10145000277A7B680833D3ED006A7B680833D3EDC5
:10146000007A66EEA77A37EE677A7B680C33D3EDA5
:10147000006A7B680C33D3ED007A66EEA77A77EECC
:10148000677A17EE900AFFF75FF802460B4643ECC7
:10149000112B45EC104B0EF04DFD51EC100B0AA337
:1014A000D3E90023FFF7A8F802460B461046194679
:1014B000FFF79AFB034607EE903AB0EE670A08374B
:1014C000BD46B0BDAFF30080E5BF631ADCA54C405C
:1014D00080B487B000AF87ED010AD7ED017AB6EE90
:1014E000007A67EE877AC7ED057A7B683B6107F182
:1014F00010031B68FB60FB685A10124B9B1AFB60C1
:1015000007F10C031B683B6197ED047AD7ED057A70
:1015100027EE277AD7ED047A67EE277AB7EE087AB6
:1015200037EE677AD7ED047A67EE277AC7ED047A4B
:101530003B6907EE903AB0EE670A1C37BD465DF88E
:10154000047B7047DF59375F80B489B000AFF86122
:1015500087ED060AC7ED050A87ED041AC7ED031AE1
:1015600087ED022AC7ED012AFB69BA691A60FB6997
:101570007A695A60FB693A699A60FB69FA68DA60CD
:10158000FB694FF000021A61FB694FF000029A619B
:10159000FB69BA68DA61FB697A681A62FB69002242
:1015A0005A6200BF2437BD465DF8047B70470000D7
:1015B00080B588B000AF786087ED000A7B685B6A11
:1015C000002B04D102F0BAFF02467B685A6202F097
:1015D000B5FF02467B685B6AD31A07EE903AF8EED5
:1015E000677A9FED4D7A67EE877AC7ED067A7B685A
:1015F00093ED037AD7ED007A77EE677AC7ED057A37
:101600007B68D3ED007A97ED057A67EE277AC7ED10
:10161000047A7B6893ED047A7B68D3ED016AD7ED99
:10162000057A66EEA76AD7ED067A66EEA77A77EEB8
:10163000277A7B68C3ED047A7B6893ED027A7B6836
:10164000D3ED067AD7ED056A76EEE77A67EE276A7C
:1016500097ED067AC6EE877AC7ED037A7B6893ED3D
:10166000047AD7ED047A77EE277A97ED037A77EE4E
:10167000277AC7ED077A7B68D3ED087A97ED077A6A
:10168000B4EEE77AF1EE10FA16DD7B681B6AFB61B7
:101690007B6893ED047A7B68D3ED016AD7ED057A18
:1016A00066EEA76AD7ED067A66EEA77A77EE677AD6
:1016B0007B68C3ED047A1FE07B68D3ED077A97ED72
:1016C000077AB4EEE77AF1EE10FA15D57B68DB699C
:1016D000FB617B6893ED047A7B68D3ED016AD7EDFB
:1016E000057A66EEA76AD7ED067A66EEA77A77EEF8
:1016F000677A7B68C3ED047A7B687A699A6102F045
:101700001DFF02467B685A62FB6907EE903AB0EE15
:10171000670A2037BD4680BD6F12833A80B483B01C
:1017200000AF78607B684FF00002DA607B684FF0B2
:1017300000021A617B684FF000029A617B68002208
:101740005A6200BF0C37BD465DF8047B704700004D
:1017500080B582B000AF786039607B68002B14BF21
:1017600001230023DBB21A460821144803F06EFE61
:101770007B68002B0CBF01230023DBB21A46042137
:101780000E4803F063FE3B68002B0CBF01230023CF
:10179000DBB21A462021094803F058FE3B68002BB3
:1017A00014BF01230023DBB21A461021034803F0C3
:1017B0004DFE00BF0837BD4680BD00BF000002409F
:1017C00080B483B000AF0346FB80094B1B68002246
:1017D0005A6200BF064B1B685A6AFB889A42F9D3CB
:1017E00000BF00BF0C37BD465DF8047B704700BFEB
:1017F0005404002080B500AF0D4B4FF07E521A60AC
:101800000B4B4FF000025A60094B4FF000029A60F8
:10181000074B4FF00002DA60064B4FF000021A60EF
:101820000548FFF77BFF0548FFF778FF00BF80BD45
:10183000040000209005002094050020BC05002035
:10184000F8B52DED048B00AF02F078FE02464C4B4C
:101850001B68D31AB3F57A7F05D902F06FFE0346F1
:10186000474A136084E0474B00220021464808F0B5
:10187000DBFA464B03220021434808F0BDF9414BF7
:10188000D3ED007A9FED427A27EE878A3D4BD3ED68
:10189000017A9FED3F7A67EE878A3A4BD3ED027A61
:1018A0009FED3B7A27EE879A384B1B681846FEF768
:1018B0004BFE31A3D3E90023FEF79EFE02460B4602
:1018C00010461946FFF790F90446304BD3ED017AE4
:1018D000F1EE677A17EE903A1846FEF735FE26A32A
:1018E000D3E90023FEF788FE02460B461046194650
:1018F000FFF77AF90546254B9B681846FEF724FE4C
:101900001DA3D3E90023FEF777FE02460B461046DF
:101910001946FFF769F9064602F010FE0246184B19
:101920001B68D31A07EE903AF8EE677A9FED197AA2
:1019300067EE877A1848B0EE673A02EE906A02EED8
:10194000105A01EE904AB0EE491AF0EE680AB0EE75
:10195000480AFFF711FB02F0F1FD0346084A136045
:101960000D48FFF741FDF0EE407A0C4BC3ED007AD5
:10197000BD46BDEC048BF8BD849E52A246DF913F6C
:101980000406002078050020E002002084050020E5
:10199000C3F51C416F12833A04000020900500201B
:1019A00080B586B000AF78600123FB7500233B61F2
:1019B0000023FB60FB7D002B0BD08C2000F0B6FDDC
:1019C0004FF4AF7008F050FD0023FB75FFF712FFD6
:1019D00037E0FFF735FF374B4FF07E52DA60364B7A
:1019E000364ADA60364BD3E9002310461946FFF732
:1019F000FBF8034600EE103A2E48FFF7D9FDF0EE53
:101A0000407AFDEEE77A17EE903A3B612D4BD3E931
:101A1000002310461946FFF7E7F8034600EE103A98
:101A20002548FFF7C5FDF0EE407AFDEEE77A17EEA8
:101A3000903AFB600A2008F017FDF968386900F059
:101A40002DFD7B6807EE903AF8EEE77AB0EE007A6B
:101A500037EEC77A1C4BD3ED007AB4EEE77AF1EE9D
:101A600010FA4CBF01230023DBB283F00103DBB289
:101A7000002B9FD17B6807EE903AF8EEE77AB0EE44
:101A8000007A37EE877A104BD3ED007AB4EEE77A1E
:101A9000F1EE10FACCBF01230023DBB283F0010387
:101AA000DBB2002B86D101F0FFFD00BF1837BD4629
:101AB00080BD00BF94050020BC0500200000404010
:101AC00068050020700500209005002080B586B0D4
:101AD00000AF78600123FB7500233B610023FB60AE
:101AE000FB7D002B0BD08C2000F020FD4FF4AF705D
:101AF00008F0BAFC0023FB75FFF77CFE38E0FFF727
:101B00009FFE374B4FF07E52DA60364B4FF08142EA
:101B1000DA60354BD3E9002310461946FFF764F825
:101B2000034600EE103A2E48FFF742FDF0EE407AF1
:101B3000FDEEE77A17EE903A3B612C4BD3E9002398
:101B400010461946FFF750F8034600EE103A2548B4
:101B5000FFF72EFDF0EE407AFDEEE77A17EE903AB1
:101B6000FB600A2008F080FCF968386900F096FCF8
:101B70007B6807EE903AF8EEE77AB0EE007A37EE3F
:101B8000C77A1B4BD3ED007AB4EEE77AF1EE10FA88
:101B90004CBF01230023DBB283F00103DBB2002B37
:101BA0009ED17B6807EE903AF8EEE77AB0EE007AC5
:101BB00037EE877A0E4BD3ED007AB4EEE77AF1EE8A
:101BC00010FACCBF01230023DBB283F00103DBB2A8
:101BD000002B85D101F068FD00BF1837BD4680BDE0
:101BE00094050020BC050020680500207005002039
:101BF0009005002080B586B000AF78600123FB75AA
:101C000000233B610023FB60FB7D002B0BD01420E5
:101C100000F08CFC4FF4AF7008F026FC0023FB753D
:101C2000FFF7E8FD38E0FFF70BFE374B4FF081423E
:101C3000DA60364B4FF07E52DA60354BD3E9002341
:101C400010461946FEF7D0FF034600EE103A2E4824
:101C5000FFF7AEFCF0EE407AFDEEE77A17EE903A31
:101C60003B612C4BD3E9002310461946FEF7BCFF1D
:101C7000034600EE103A2548FFF79AFCF0EE407A52
:101C8000FDEEE77A17EE903AFB600A2008F0ECFBD5
:101C9000F968386900F002FC7B6807EE903AF8EECC
:101CA000E77AB0EE007A37EEC77A1B4BD3ED007AB5
:101CB000B4EEE77AF1EE10FA4CBF01230023DBB259
:101CC00083F00103DBB2002B9ED17B6807EE903AD4
:101CD000F8EEE77AB0EE007A37EE877A0E4BD3ED66
:101CE000007AB4EEE77AF1EE10FACCBF01230023BC
:101CF000DBB283F00103DBB2002B85D101F0D4FC11
:101D000000BF1837BD4680BD94050020BC050020EB
:101D100068050020700500209005002080B586B081
:101D200000AF78600123FB7500233B610023FB605B
:101D3000FB7D002B0BD0142000F0F8FB4FF4AF70AC
:101D400008F092FB0023FB75FFF754FD37E0FFF727
:101D500077FD374B374ADA60374B4FF07E52DA6007
:101D6000364BD3E9002310461946FEF73DFF0346E4
:101D700000EE103A2E48FFF71BFCF0EE407AFDEE25
:101D8000E77A17EE903A3B612D4BD3E900231046DA
:101D90001946FEF729FF034600EE103A2648FFF7E2
:101DA00007FCF0EE407AFDEEE77A17EE903AFB6022
:101DB0000A2008F059FBF968386900F06FFB7B686E
:101DC00007EE903AF8EEE77AB0EE007A37EEC77A8F
:101DD0001C4BD3ED007AB4EEE77AF1EE10FA4CBF6B
:101DE00001230023DBB283F00103DBB2002B9FD180
:101DF0007B6807EE903AF8EEE77AB0EE007A37EEBD
:101E0000877A104BD3ED007AB4EEE77AF1EE10FA50
:101E1000CCBF01230023DBB283F00103DBB2002B34
:101E200086D101F041FC00BF1837BD4680BD00BF20
:101E30009405002000004040BC05002068050020FB
:101E4000700500209005002080B588B000AF786054
:101E50003960574B4FF000021A6000237B61012369
:101E6000FB7600233B610023FB603B68002B03D122
:101E7000504B1B88FB6105E03B68012B02D14E4BA8
:101E80001B88FB61FB7E002B09D05F2000F04EFB1E
:101E90000023FB76FA2008F0E7FAFFF7ABFCFFF728
:101EA000CFFC464B4FF08142DA60454B4FF0814208
:101EB000DA60444BD3ED007A9FED437AF4EEC77AB3
:101EC000F1EE10FA03DD5A2000F030FB0CE03D4B40
:101ED000D3ED007A9FED3D7AF4EEC77AF1EE10FA79
:101EE00002D5642000F022FB394BD3E900231046D1
:101EF0001946FEF779FE034600EE103A2F48FFF729
:101F000057FBF0EE407AFDEEE77A17EE903A3B6130
:101F1000304BD3E9002310461946FEF765FE034611
:101F200000EE103A2648FFF743FBF0EE407AFDEE54
:101F3000E77A17EE903AFB60F968386900F0AEFA7C
:101F40000A2008F091FAFA697B689A428DDB184BF7
:101F5000D3ED007A9FED207AF4EEC77AF1EE10FA15
:101F600006D51E4B0F221A601D4B00221A6019E085
:101F70000F4BD3ED007A9FED187AF4EEC77AF1EEAD
:101F800010FA0FDD0A4B93ED007AF0EE006AC7EE0F
:101F9000267AFDEEE77A17EE902A104B1A60104B66
:101FA00001221A6001F080FB00BF2037BD4680BDD2
:101FB0002802002044020020460200209405002050
:101FC000BC05002090050020CDCCCCBDCDCCCC3DB7
:101FD0006805002070050020000070423C020020CF
:101FE0004002002080B586B000AF78600123FB7509
:101FF00000233B610023FB60FB7D002B09D05F20A9
:1020000000F094FA0023FB75FA2008F02DFAFFF790
:10201000F1FBFFF715FC324B4FF08142DA60314B98
:102020004FF08142DA60304BD3ED007A9FED2F7A8A
:10203000F4EEC77AF1EE10FA03DD5A2000F076FADA
:102040000CE0294BD3ED007A9FED297AF4EEC77AA4
:10205000F1EE10FA02D5642000F068FA254BD3E9BE
:10206000002310461946FEF7BFFD034600EE103A66
:102070001B48FFF79DFAF0EE407AFDEEE77A17EE87
:10208000903A3B611C4BD3E9002310461946FEF7FA
:10209000ABFD034600EE103A1248FFF789FAF0EE66
:1020A000407AFDEEE77A17EE903AFB60F9683869FE
:1020B00000F0F4F90A2008F0D7F97B6807EE903AAF
:1020C000B8EEE77A0D4BD3ED007AB4EEE77AF1EE95
:1020D00010FA91D401F0E8FA00BF1837BD4680BD70
:1020E00094050020BC05002090050020CDCCCCBD7F
:1020F000CDCCCC3D68050020700500204C050020AB
:1021000080B586B000AF78600123FB7500233B618A
:102110000023FB6000210020FFF71AFBFB7D002B52
:1021200009D05F2000F002FA0023FB75FA2008F0C6
:102130009BF9FFF75FFBFFF783FB334B334ADA6012
:10214000334B324ADA60334BD3ED007A9FED327A6B
:10215000F4EEC77AF1EE10FA03DD5A2000F0E6F94A
:102160000CE02C4BD3ED007A9FED2C7AF4EEC77A7D
:10217000F1EE10FA02D5642000F0D8F9284BD3E92B
:10218000002310461946FEF72FFD034600EE103AD5
:102190001D48FFF70DFAF0EE407AFDEEE77A17EEF4
:1021A000903A3B611F4BD3E9002310461946FEF7D6
:1021B0001BFD034600EE103A1548FFF7F9F9F0EE63
:1021C000407AFDEEE77A17EE903AFB60F9683869DD
:1021D00000F064F90A2008F047F97B6807EE903AAE
:1021E000B8EEE77A104BD3ED007AB4EEE77AF1EE71
:1021F00010FA93DC01F058FA01210120FFF7A8FA48
:1022000000BF1837BD4680BD940500200000404047
:10221000BC05002090050020CDCCCCBDCDCCCC3D64
:1022200068050020700500204C05002080B586B0B0
:1022300000AF7860434B4FF000021A60012101208B
:10224000FFF786FA0123FB7500233B610023FB6047
:10225000FB7D002B0AD05F2000F068F90023FB759E
:102260004FF4AF7008F000F9FFF7C4FAFFF7E8FA8F
:10227000354B4FF08142DA60344B4FF08142DA60E7
:10228000334BD3ED007A9FED337AF4EEC77AF1EE5B
:1022900010FA03DD5A2000F049F90CE02C4BD3ED85
:1022A000007A9FED2D7AF4EEC77AF1EE10FA02D59E
:1022B000642000F03BF9294BD3E90023104619466E
:1022C000FEF792FC034600EE103A1F48FFF770F944
:1022D000F0EE407AFDEEE77A17EE903A3B61204B44
:1022E000D3E9002310461946FEF77EFC034600EEB4
:1022F000103A1648FFF75CF9F0EE407AFDEEE77A07
:1023000017EE903AFB60F968386900F0C7F80A20C8
:1023100008F0AAF87B6807EE903AB8EEE77A094B26
:10232000D3ED007AB4EEE77AF1EE10FA90DC01F02A
:10233000BBF901210120FFF70BFA00BF1837BD469A
:1023400080BD00BF2802002094050020BC050020AD
:1023500090050020CDCCCCBDCDCCCC3D6805002077
:102360007005002080B586B000AF7860434B4FF019
:1023700000021A6000210020FFF7EAF90123FB7533
:1023800000233B610023FB60FB7D002B0AD05F2014
:1023900000F0CCF80023FB754FF4AF7008F064F840
:1023A000FFF728FAFFF74CFA354B4FF08142DA601D
:1023B000344B4FF08142DA60334BD3ED007A9FED1E
:1023C000337AF4EEC77AF1EE10FA03DD5A2000F00A
:1023D000ADF80CE02C4BD3ED007A9FED2D7AF4EEA6
:1023E000C77AF1EE10FA02D5642000F09FF8294B6D
:1023F000D3E9002310461946FEF7F6FB034600EE2C
:10240000103A1F48FFF7D4F8F0EE407AFDEEE77A75
:1024100017EE903A3B61204BD3E900231046194652
:10242000FEF7E2FB034600EE103A1648FFF7C0F84D
:10243000F0EE407AFDEEE77A17EE903AFB60F9682D
:10244000386900F02BF80A2008F00EF87B6807EED8
:10245000903AB8EEE77A094BD3ED007AB4EEE77A1A
:10246000F1EE10FA90DC01F01FF901210120FFF7D5
:102470006FF900BF1837BD4680BD00BF280200209D
:1024800094050020BC05002090050020CDCCCCBDDB
:10249000CDCCCC3D680500207005002080B582B011
:1024A00000AF786039601E4A7B6813601D4A3B6844
:1024B00013601B4B1B68002B04DA194B4FF4FA72A4
:1024C0001A6009E0164B1B6841F28832934203DD23
:1024D000134B41F288321A60124B1B68002B04DA4E
:1024E000104B4FF4FA721A6009E00E4B1B6841F270
:1024F0008832934203DD0B4B41F288321A60084B5D
:102500001A68094B1B685A63064B1A68064B1B680E
:102510009A63012007F0A8FF00BF0837BD4680BDC1
:10252000E4050020E80500209C04002080B483B06E
:1025300000AF0346FB71FB79B42B01D9B423FB71C7
:10254000FB79C3F1F003084A1360FB79074A136073
:10255000054B1A68064B1B681A6400BF0C37BD4652
:102560005DF8047B704700BF14000020F0050020D8
:102570003403002080B500AF1E20FFF733FD0A4B67
:1025800001221A60094B00221A604FF6FF730522E0
:102590000749084806F0D4F9074B1B685B68064AF0
:1025A000136000BF80BD00BF300200203402002055
:1025B0009C130108E40400200006002080B500AF51
:1025C0000B4B1B78412B05D10A4B1B685B68094AF2
:1025D000136008E0064B1B78442B04D1054B1B68A5
:1025E0009B68044A13600A2007F03EFF00BF80BDCD
:1025F000F40500200006002080B500AF0B4B1B78CF
:10260000412B05D10A4B1B685B68094A136008E03F
:10261000064B1B78442B04D1054B1B689B68044A6E
:1026200013600A2007F020FF00BF80BDF4050020E2
:102630000006002080B500AF2920FFF7B1F9642023
:1026400007F012FF6FF05900FFF768FB642007F0F6
:102650000BFF0520FFF786FE642007F005FF2E2004
:10266000FFF79EF9034B1B685B68024A136000BFCB
:1026700080BD00BF0006002080B500AF6FF02800CD
:10268000FFF74CFB642007F0EFFE5A20FFF788F9B4
:10269000642007F0E9FE0A20FFF764FE642007F0DB
:1026A000E3FE6FF02E00FFF739FB034B1B685B68FE
:1026B000014A136000BF80BD0006002080B500AF56
:1026C000642007F0D1FE234BD3ED007A9FED227AF0
:1026D00077EE877AFDEEE77A17EE902A1F4B1A60A5
:1026E0001C4BD3ED007AB3EE0E7AF4EEC77AF1EE1E
:1026F00010FA08D51E20FFF703FD184B1B681E3388
:10270000164A136011E0134BD3ED007AB3EE0E7A44
:10271000F4EEC77AF1EE10FA07DD2820FFF762FC2D
:102720000E4B1B6828330D4A13604FF6FF730522CA
:102730000B490C4806F004F90B4B032219460B48D1
:102740000BF01DFB0A4B1B685B68094A136000BF56
:1027500080BD00BF4C050020000020423802002050
:102760009C130108E4040020A4130108F4050020D0
:102770000006002080B500AF5420FFF711F90121B9
:102780004FF4C870FFF760FB6FF0A500FFF732FA57
:102790000A20FFF74BFD01214FF4C870FFF754FBEF
:1027A0006FF04F00FFF7BAFA134B1B681846FFF79C
:1027B0003DFD6FF04F00FFF7B1FA104B1B68002B87
:1027C0000AD00F4B1B682D3B0D4A13600C4B1B6846
:1027D0001846FFF72BFD04E0094B1B681846FFF76E
:1027E000C1FD5020FFF7DCF8064B1B685B68054A0B
:1027F000136000BF80BD00BF3802002040020020EF
:102800003C0200200006002080B500AF6FF05300AE
:10281000FFF784FA00214FF4C870FFF715FBA120E1
:10282000FFF754F90A20FFF701FD00214FF4C870AB
:10283000FFF70AFB5020FFF7B3F8134B1B6818464D
:10284000FFF7F4FC5020FFF7ABF8104B1B68002B90
:102850000AD00F4B1B682D3B0D4A13600C4B1B68B5
:102860001846FFF7E3FC04E0094B1B681846FFF726
:1028700079FD6FF04F00FFF751FA064B1B685B685C
:10288000044A136000BF80BD3802002040020020CF
:102890003C0200200006002080B500AF1E20FFF79C
:1028A000A1FB034B1B685B68014A136000BF80BD3E
:1028B0000006002080B500AF01F0DAFD00F0D4F88A
:1028C00000F0C2FC00F096FC00F0F0FA00F0B2FB61
:1028D00000F0FAF900F0E4FB00F0C8F900F092FA19
:1028E00000F038FB00F01EF900F06EF90AF00AFC67
:1028F0000023032200213F4807F0F9F83E4A0A214D
:102900000A200AF0CDFB0AF057FA00BF4FF480719D
:102910003A4802F083FD0346002BF7D1C82001F0AE
:1029200019FEFA220021334807F02AFCFA2203217B
:10293000304807F07DFB0AF0C1FA314804F0C6FACE
:102940000021304804F0A6FC04222F492F4806F04D
:1029500082F8DFED2F2A9FED2F2ADFED2F1A9FED52
:102960002E1ADFED2E0A9FED2E0A2E48FEF7ECFD03
:10297000DFED272A9FED272ADFED271A9FED261A84
:10298000DFED260A9FED260A2748FEF7DDFD01212F
:102990000120FEF7DDFE07F08BFC244A00212448CD
:1029A00007F0D0FC0346234A1360234A0021234842
:1029B00007F0C8FC0346224A1360224A002122483D
:1029C00007F0C0FC0346214A1360214A0021214838
:1029D00007F0B8FC0346204A1360204A0021204833
:1029E00007F0B0FC03461F4A136007F085FC00BFE8
:1029F000FDE700BFE0020020D4130108000C0240F4
:102A0000540400200C040020F4050020E4040020FD
:102A100000409C4500007A440000000000401C4536
:102A20000000964394050020BC0500206C140108AA
:102A3000113700082C0500209014010835370008D4
:102A400030050020B414010849380008340500207E
:102A5000D81401089938000838050020FC14010832
:102A6000513B00083C05002080B594B000AF07F151
:102A700020033022002118460BF081F907F10C03E6
:102A800000221A605A609A60DA601A610023BB6003
:102A9000224B1B6C214A43F0805313641F4B1B6C69
:102AA00003F08053BB60BB6800237B601C4B1B683A
:102AB0001B4A43F480431360194B1B6803F48043A3
:102AC0007B607B6802233B620123FB6210233B6334
:102AD0000023BB6307F12003184603F04FFD0346B4
:102AE000002B01D001F0BAF80F23FB6000233B61FB
:102AF00000237B610023BB610023FB6107F10C0312
:102B00000021184603F0B2FF0346002B01D001F06C
:102B1000A5F800BF5037BD4680BD00BF0038024059
:102B20000070004080B584B000AF3B4600221A60C0
:102B30005A609A60DA60214B214A1A601F4B0022CA
:102B40005A601E4B00229A601C4B00221A611B4BDC
:102B500000221A76194B002283F82020174B0022FE
:102B6000DA62164B174A9A62144B0022DA60134B52
:102B70000122DA61114B002283F830200F4B012231
:102B80005A610E4801F00AFD0346002B01D001F006
:102B900065F800233B6001237B600023BB603B465C
:102BA0001946064801F0DCFE0346002B01D001F077
:102BB00055F800BF1037BD4680BD00BF5002002051
:102BC000002001400100000F80B584B000AF3B46FB
:102BD00000221A605A609A60DA60214B214A1A601A
:102BE0001F4B00225A601E4B00229A601C4B002291
:102BF0001A611B4B00221A76194B002283F8202001
:102C0000174B0022DA62164B174A9A62144B0022C5
:102C1000DA60134B0122DA61114B002283F8302075
:102C20000F4B01225A610E4801F0B8FC0346002BFD
:102C300001D001F013F801233B6001237B600023E6
:102C4000BB603B461946064801F08AFE0346002B4E
:102C500001D001F003F800BF1037BD4680BD00BFB2
:102C600098020020002101400100000F80B500AF54
:102C7000124B134A1A60114B124A5A600F4B002232
:102C80009A600E4B0022DA600C4B4FF480421A61BE
:102C90000A4B00225A61094B00229A61074B00221D
:102CA000DA61064B00221A62044802F01BFC03465C
:102CB000002B01D000F0D2FF00BF80BDE002002059
:102CC00000540040A086010080B596B000AF07F127
:102CD000480300221A605A609A60DA6007F14003E4
:102CE00000221A605A6007F1240300221A605A6019
:102CF0009A60DA601A615A619A613B1D20220021B4
:102D000018460BF03CF83D4B3D4A1A603B4BA02265
:102D10005A603A4B00229A60384B4FF6FF72DA60E5
:102D2000364B00221A61354B00225A61334B002288
:102D30009A61324804F07AF80346002B01D000F083
:102D40008DFF4FF48053BB6407F1480319462B48AD
:102D500004F04AFF0346002B01D000F07FFF274814
:102D600004F01CF90346002B01D000F077FF00238C
:102D70003B6400237B6407F1400319461F4805F0BC
:102D8000ADFC0346002B01D000F068FF60237B629E
:102D90000023BB620023FB6200237B630023BB6331
:102DA0000023FB6307F124030C221946134804F0A7
:102DB00059FE0346002B01D000F050FF00237B603A
:102DC0000023BB600023FB6000233B6100237B6189
:102DD0004FF40053BB6100233B623B1D194607487B
:102DE00005F0F8FC0346002B01D000F037FF034844
:102DF00001F06EF900BF5837BD4680BD3403002096
:102E00000000014080B58CB000AF07F10C03242214
:102E1000002118460AF0B3FF3B1D00221A605A60D9
:102E2000214B4FF080421A601F4B00225A601E4B0C
:102E300000229A601C4B4FF6FF72DA601A4B002298
:102E40001A61194B00229A610323FB6000233B6146
:102E500001237B610023BB610A23FB6100233B62EA
:102E600001237B620023BB620A23FB6207F10C0390
:102E700019460D4804F036FB0346002B01D000F044
:102E8000EDFE00237B600023BB603B1D1946064816
:102E900005F024FC0346002B01D000F0DFFE00BF4C
:102EA0003037BD4680BD00BF7C03002080B58CB0AC
:102EB00000AF07F10C032422002118460AF05FFF3F
:102EC0003B1D00221A605A60204B214A1A601F4B9A
:102ED00000225A601D4B00229A601C4B4FF6FF7275
:102EE000DA601A4B00221A61184B00229A61032300
:102EF000FB6000233B6101237B610023BB610A234C
:102F0000FB6100233B6201237B620023BB620A2337
:102F1000FB6207F10C0319460C4804F0E3FA034680
:102F2000002B01D000F09AFE00237B600023BB60E1
:102F30003B1D1946054805F0D1FB0346002B01D087
:102F400000F08CFE00BF3037BD4680BDC4030020BA
:102F50000004004080B58AB000AF07F118030022DA
:102F60001A605A609A60DA6007F1100300221A6052
:102F70005A603B4600221A605A609A60DA602B4B16
:102F80002B4A1A60294B0F225A60284B00229A6064
:102F9000264B4FF6FF72DA60244B00221A61234B56
:102FA00000229A61214803F041FF0346002B01D023
:102FB00000F054FE4FF48053BB6107F1180319462B
:102FC0001A4804F011FE0346002B01D000F046FE23
:102FD000164804F005F90346002B01D000F03EFE30
:102FE00000233B6100237B6107F1100319460F4862
:102FF00005F074FB0346002B01D000F02FFE0A23DE
:103000003B6001237B600023BB600023FB603B46E9
:1030100000221946054804F089FC0346002B01D024
:1030200000F01CFE00BF2837BD4680BD0C04002008
:103030000008004080B582B000AF3B4600221A6015
:103040005A60154B154A1A60134B0F225A60124BE7
:1030500000229A60104B4FF6FF72DA600E4B00228E
:103060009A610D4803F0E2FE0346002B01D000F008
:10307000F5FD00233B6000237B603B461946064874
:1030800005F02CFB0346002B01D000F0E7FD00BF4C
:103090000837BD4680BD00BF54040020001000402A
:1030A00080B596B000AF07F1480300221A605A605D
:1030B0009A60DA6007F1400300221A605A6007F153
:1030C000240300221A605A609A60DA601A615A6119
:1030D0009A613B1D2022002118460AF050FE434B06
:1030E000434A1A60414B00225A60404B00229A60CA
:1030F0003E4B41F61F42DA603C4B00221A613B4BCB
:1031000000225A61394B00229A61384803F08EFE42
:103110000346002B01D000F0A1FD4FF48053BB64A7
:1031200007F148031946314804F05EFD0346002BC1
:1031300001D000F093FD2D4803F030FF0346002B33
:1031400001D000F08BFD00233B6400237B6407F17A
:1031500040031946254805F0C1FA0346002B01D06B
:1031600000F07CFD60237B620023BB620023FB62D6
:1031700000233B6300237B630023BB630023FB63CB
:1031800007F1240300221946184804F06BFC03469B
:10319000002B01D000F062FD07F124030422194640
:1031A000124804F05FFC0346002B01D000F056FDEE
:1031B00000237B600023BB600023FB6000233B6196
:1031C00000237B614FF40053BB6100233B623B1D36
:1031D0001946064805F0FEFA0346002B01D000F020
:1031E0003DFD00BF5837BD4680BD00BF9C04002098
:1031F0000004014080B500AF114B124A1A60104B19
:103200004FF4E1325A600E4B00229A600C4B0022C0
:10321000DA600B4B00221A61094B0C225A61084BF1
:1032200000229A61064B0022DA61054805F038FB5E
:103230000346002B01D000F011FD00BF80BD00BF90
:10324000E40400200048004080B58AB000AF07F1D8
:10325000140300221A605A609A60DA601A6100232F
:103260003B61494B1B6B484A43F010031363464BC9
:103270001B6B03F010033B613B690023FB60424B77
:103280001B6B414A43F0010313633F4B1B6B03F07D
:103290000103FB60FB680023BB603B4B1B6B3A4A9E
:1032A00043F008031363384B1B6B03F00803BB6048
:1032B000BB6800237B60344B1B6B334A43F0040331
:1032C0001363314B1B6B03F004037B607B680023AB
:1032D0003B602D4B1B6B2C4A43F0020313632A4BBC
:1032E0001B6B03F002033B603B6800224FF4FC6160
:1032F000264802F0ABF800223C21254802F0A6F84F
:103300004FF4FC637B610123BB610023FB6100235D
:103310003B6207F1140319461C4801F0E3FE3C230D
:103320007B610123BB610023FB6102233B6207F148
:1033300014031946164801F0D5FE4FF480737B61E3
:103340000023BB610023FB6107F1140319461148F8
:1033500001F0C8FE01237B614FF48813BB61002399
:10336000FB6107F114031946084801F0BBFE002277
:103370000521062001F0EDFD062001F006FE00BF4C
:103380002837BD4680BD00BF003802400010024013
:1033900000000240000C024080B584B002AF7860AB
:1033A0001A4B1B681846FDF7CFF802460B46CDE9CD
:1033B0000023174A072117480AF04AFC154A164904
:1033C00014480AF079FC0422144915480AF0DFFC7D
:1033D0000346002B06D14FF6FF7307220D49114813
:1033E00005F0AEFA104B1B68012B0BD00E4B0122DF
:1033F0001A600E4B4FF000021A6004220849094877
:1034000005F029FB00BF0837BD4680BD4C050020F4
:10341000E4130108F8050020EC130108F413010877
:10342000F4050020E40400203402002028020020DB
:1034300080B582B000AF78607B68414A934274D116
:103440004FF480513F4801F0E9FF0346012B08D1BA
:1034500000213B4804F090FC03461A463A4B1A60A0
:103460001EE00021364804F087FC03461A46374B1D
:103470001A60364B1A68344B1B689A4207DD334B8F
:103480001A68314B1B68D31A314A136008E02E4B7F
:103490001B68C3F580322D4B1B6813442C4A136004
:1034A0002A4B1A68284B1B689A4208DD274B1A687A
:1034B000254B1B68D31A1846FDF734F80AE0224B57
:1034C0001B68C3F57F43FF33204A12681344184634
:1034D000FDF728F818A3D3E90023FDF78DF802467D
:1034E0000B46104619464FF000024FF08043FDF79F
:1034F000ADF902460B4610461946FDF775FB03462B
:10350000144A1360134BD3ED007A9FED137AF4EE57
:10351000C77AF1EE10FA04DD104B1B680D4A1360F8
:1035200003E00C4B1B680D4A136000BF0837BD4613
:1035300080BD00BFAFF300809CC420B07268A13F83
:103540000C040020000C024040050020440500202F
:10355000480500204C0500200000C843500500200D
:1035600080B582B000AF0346FB8001210C4801F01A
:1035700055FF0346002B03D10A4B00221A700BE0C3
:103580000121074801F04AFF0346012B03D1054BF7
:1035900001221A7000E000BF00BF0837BD4680BDA1
:1035A00000100240FF05002080B500AF1C4801F06C
:1035B00039F80A211A4801F03AF9194801F0C2F91C
:1035C00003469AB2174B1A80154801F0FDF8154BC7
:1035D0001B881846FCF796FF02460B469FED0C1B16
:1035E00043EC102B0CF0A8FC51EC100B0AA3D3E910
:1035F0000023FDF701F802460B4610461946FDF779
:10360000D3FA03469AB2074B1A8000BF80BD00BFB1
:10361000A78F65660BEDECBF0000000050FB034177
:10362000980200204402002080B500AF1C4800F042
:10363000F9FF0A211A4801F0FAF8194801F082F955
:1036400003469AB2174B1A80154801F0BDF8154B86
:103650001B881846FCF756FF02460B469FED0C1BD5
:1036600043EC102B0CF068FC51EC100B0AA3D3E9CF
:103670000023FCF7C1FF02460B4610461946FDF732
:1036800093FA03469AB2074B1A8000BF80BD00BF71
:10369000A78F65660BEDECBF0000000050FB0341F7
:1036A000500200204602002080B500AFFEF7A2F8CD
:1036B0001148FEF733F81148FEF730F8104B4FF081
:1036C00000021A600F4B00221A600F4B00221A6092
:1036D0000C4B1A680D4B1B685A630B4B1A680B4B4B
:1036E0001B689A635F20FEF721FF4FF4AF7006F06E
:1036F000BBFE00BF80BD00BF94050020BC050020BC
:1037000028020020E4050020E80500209C04002099
:1037100080B582B000AF78604FF48061044801F05A
:10372000AEFE4FF47A7006F09FFE00BFF4E700BFD4
:103730000010024080B596B002AF786000233B6471
:1037400007F1440300221A605A609A600023FB606C
:1037500007F110032E22002118460AF010FB304B0F
:103760001B6807F140002F4A10210AF071FA07F197
:1037700040031A4614210A2009F092FC2A4B1B68C8
:103780001846FCF7E1FE02460B4607F14000CDE982
:103790000023264A10210AF05BFA07F140031A467B
:1037A0001E210A2009F07CFC09F006FB204B1B6857
:1037B0001846FCF7C9FE02460B4607F14000CDE96A
:1037C00000231C4A10210AF043FA07F140031A466D
:1037D0000A210A2009F064FC174B1B8807F14000FE
:1037E000164A10210AF034FA07F140031A4628213C
:1037F0000A2009F055FC124B1B8807F14000114AC2
:1038000010210AF025FA07F140031A4632210A2056
:1038100009F046FCC82006F027FE00BF9FE700BF66
:103820003C020020FC130108900500200C14010844
:10383000280200201C140108440200202C14010856
:10384000460200204014010880B582B000AF7860C5
:1038500000224FF400710F4801F0F8FD01224FF4EF
:1038600000710C4801F0F2FD0A20FDF7A9FF0022CB
:103870004FF40071074801F0E9FD012006F0F4FD66
:10388000FFF792FEFFF7D0FE0A2006F0EDFD00BF25
:10389000E4E700BF0010024080B58AB000AF786056
:1038A0003C21A14803F0C4FE3C21A04803F0C0FE27
:1038B0009D4B1B685B6AFB849C4B1B685B6A7B842B
:1038C00000F03CFEF86100F039FE0246FB69D31AB5
:1038D0000A2B40F21E81944B1B685B6A7B83934BDF
:1038E0001B685B6A3B83904B1B681B6803F01003EB
:1038F000102B14D1B7F91A20B7F926309A4205DAFD
:10390000FA8C7B8BD31A9BB21BB206E0FA8C7B8BB2
:10391000D31A9BB2013B9BB21BB2BB8413E0B7F935
:103920001A20B7F926309A4205DD7A8BFB8CD31A20
:103930009BB21BB206E07A8BFB8CD31A9BB2013B85
:103940009BB21BB2BB84794B1B681B6803F010034E
:10395000102B14D1B7F91820B7F922309A4205DAA2
:103960007A8C3B8BD31A9BB21BB206E07A8C3B8BD2
:10397000D31A9BB2013B9BB21BB23B8413E0B7F955
:103980001820B7F922309A4205DD3A8B7B8CD31A86
:103990009BB21BB206E03A8B7B8CD31A9BB2013BE5
:1039A0009BB21BB23B84B7F9243007EE903AF8EE95
:1039B000E77A9FED5F7AC7EE876A16EE900AFCF70A
:1039C000C3FD02460B465B49C1E90023B7F920302D
:1039D00007EE903AF8EEE77A9FED557AC7EE876AE0
:1039E00016EE900AFCF7B0FD02460B465249C1E9BB
:1039F000002300F0A3FD0246FB69D31A07EE903ABC
:103A0000F8EE677A9FED4D7A67EE877AC7ED057A13
:103A1000B7F9243007EE903AB8EEE77AD7ED057A99
:103A2000DFED436A67EEA67AC7EE276A16EE900AC4
:103A3000FCF78AFD02460B464149C1E90023B7F96C
:103A4000203007EE903AB8EEE77AD7ED057ADFED51
:103A5000386A67EEA67AC7EE276A16EE900AFCF778
:103A600073FD02460B463749C1E90023314BD3E9C8
:103A700000012BA3D3E90023FCF7BEFD02460B4651
:103A8000104619464FF000022F4BFCF7B5FD0246D9
:103A90000B4610461946FDF7A7F803463B61264B37
:103AA000D3E900011EA3D3E90023FCF7A5FD0246DC
:103AB0000B46104619464FF00002234BFCF79CFDC5
:103AC00002460B4610461946FDF78EF80346FB608A
:103AD00097ED047AD7ED037A37EE277AF0EE006A95
:103AE000C7EE267AC7ED027A184B93ED007AD7ED30
:103AF000027A77EE277A154BC3ED007A0A4B1B68E2
:103B00005B6AFB84094B1B685B6A7B8400F016FDD3
:103B1000F861322006F0A8FCD5E600BFAFF30080C4
:103B2000EA2E4454FB2109407C030020C4030020FA
:103B30000000A54458050020600500206F12833A5C
:103B4000680500207005002000001A4028020020AF
:103B500080B584B000AF78600C21324803F078FA69
:103B6000314B4FF000021A600021304803F070FA28
:103B700004212E4803F06CFA5723FB602C4B0022E3
:103B80001A605F20FEF7D2FCC82006F06DFC00F042
:103B9000D5FC0346274A136000F0D0FC0346264AB2
:103BA0001360254B1A68234B1B68D31A07EE903A13
:103BB000F8EE677A9FED217A67EE877A204BC3EDA6
:103BC000007A4FF480711F4801F028FC0346002B57
:103BD00005D1174B01221A601B4B1C4A1A601C4B63
:103BE0001B68012B0AD11B4B1B68012B06D01A4BFB
:103BF0001B78472B02D1144B144A1A60124B1B68D6
:103C0000002B03D0104B1B681B689847084B1B68A0
:103C1000012B02D1064B00221A600A2006F024FC78
:103C2000CFE700BF34030020EC0500209C040020F7
:103C300000000020480200204C0200206F12833A4E
:103C40002C020020000C0240000600202015010874
:103C50003402002030020020F405002080B400AFC0
:103C600072B600BF00BFFDE780B582B000AF002391
:103C70007B60124B5B6C114A43F4804353640F4BDF
:103C80005B6C03F480437B607B6800233B600B4BE1
:103C90001B6C0A4A43F080531364084B1B6C03F0FF
:103CA00080533B603B6800220F216FF0010001F060
:103CB00050F900BF0837BD4680BD00BF0038024044
:103CC00080B58CB000AF786007F11C0300221A6049
:103CD0005A609A60DA601A617B681B682E4A9342C8
:103CE00028D10023BB612D4B5B6C2C4A43F48073BD
:103CF00053642A4B5B6C03F48073BB61BB69002384
:103D00007B61264B1B6B254A43F001031363234B56
:103D10001B6B03F001037B617B690123FB610323C0
:103D20003B6200237B6207F11C0319461C4801F02B
:103D3000D9F92CE07B681B681A4A934227D10023EB
:103D40003B61164B5B6C154A43F400735364134B91
:103D50005B6C03F400733B613B690023FB600F4B1A
:103D60001B6B0E4A43F0010313630C4B1B6B03F0F8
:103D70000103FB60FB680223FB6103233B6200231A
:103D80007B6207F11C031946054801F0ABF900BF3F
:103D90003037BD4680BD00BF0020014000380240E2
:103DA000000002400021014080B58AB000AF786079
:103DB00007F1140300221A605A609A60DA601A61EF
:103DC0007B681B68194A93422CD100233B61184B36
:103DD0001B6B174A43F002031363154B1B6B03F075
:103DE00002033B613B694FF440737B611223BB616B
:103DF0000023FB6103233B6204237B6207F114036E
:103E000019460C4801F06EF90023FB60084B1B6C4F
:103E1000074A43F400131364054B1B6C03F40013AF
:103E2000FB60FB6800BF2837BD4680BD00540040E2
:103E3000003802400004024080B58EB000AF7860C8
:103E400007F1240300221A605A609A60DA601A614E
:103E50007B681B684A4A93420ED100233B62494B60
:103E60005B6C484A43F001035364464B5B6C03F0C0
:103E700001033B623B6A7FE07B681B68424A9342D6
:103E800035D10023FB613F4B1B6C3E4A43F00403DA
:103E900013643C4B1B6C03F00403FB61FB690023C0
:103EA000BB61384B1B6B374A43F008031363354B38
:103EB0001B6B03F00803BB61BB694FF480537B624B
:103EC0000223BB620023FB6200233B6302237B636C
:103ED00007F1240319462D4801F004F900220521B9
:103EE0001E2001F036F81E2001F04FF844E07B68F8
:103EF0001B68274A93420ED100237B61214B1B6C28
:103F0000204A43F0100313641E4B1B6C03F0100394
:103F10007B617B6930E07B681B681E4A93422BD132
:103F200000233B61174B5B6C164A43F0020353645A
:103F3000144B5B6C03F002033B613B690023FB60A5
:103F4000104B1B6B0F4A43F0040313630D4B1B6BA9
:103F500003F00403FB60FB68C0237B620223BB62A7
:103F60000023FB6200233B6303237B6307F12403ED
:103F70001946094801F0B6F800BF3837BD4680BD84
:103F8000000001400038024000080040000C0240E0
:103F900000100040000401400008024080B58CB0D1
:103FA00000AF786007F11C0300221A605A609A6023
:103FB000DA601A617B681B68B3F1804F4BD1002334
:103FC000BB613F4B1B6C3E4A43F0010313643C4B07
:103FD0001B6C03F00103BB61BB6900237B61384BA1
:103FE0001B6B374A43F001031363354B1B6B03F024
:103FF00001037B617B6900233B61314B1B6B304AC2
:1040000043F0020313632E4B1B6B03F002033B616F
:104010003B694FF40043FB6102233B6200237B6258
:104020000023BB620123FB6207F11C0319462548EC
:1040300001F058F80823FB6102233B6200237B62F6
:104040000023BB620123FB6207F11C0319461E48D3
:1040500001F048F830E07B681B681C4A93422BD182
:104060000023FB60164B1B6C154A43F002031364DC
:10407000134B1B6C03F00203FB60FB680023BB6067
:104080000F4B1B6B0E4A43F0010313630C4B1B6B6E
:1040900003F00103BB60BB68C023FB6102233B62EA
:1040A00000237B620023BB620223FB6207F11C0337
:1040B0001946044801F016F800BF3037BD4680BDF0
:1040C00000380240000002400004024000040040AA
:1040D00080B588B000AF786007F10C0300221A6049
:1040E0005A609A60DA601A617B681B68124A9342D0
:1040F0001ED10023BB60114B1B6B104A43F0100311
:1041000013630E4B1B6B03F01003BB60BB684FF4D3
:104110008043FB6002233B6100237B610023BB6182
:104120000123FB6107F10C031946054800F0DAFF93
:1041300000BF2037BD4680BD00000140003802406E
:104140000010024080B58AB000AF786007F1140318
:1041500000221A605A609A60DA601A617B681B68F4
:104160001D4A934234D100233B611C4B1B6C1B4AFC
:1041700043F480231364194B1B6C03F480233B61CD
:104180003B690023FB60154B1B6B144A43F004038F
:104190001363124B1B6B03F00403FB60FB684FF4CB
:1041A00040637B610223BB610023FB6103233B620D
:1041B00007237B6207F114031946094800F092FFB8
:1041C00000220521272000F0C4FE272000F0DDFE9C
:1041D00000BF2837BD4680BD00480040003802407F
:1041E0000008024080B400AF00BFFDE780B400AF1C
:1041F00000BFFDE780B400AF00BFFDE780B400AFB3
:1042000000BFFDE780B400AF00BFFDE780B400AFA2
:1042100000BFBD465DF8047B704780B500AF00F07D
:1042200079F907F049FD0346012B01D008F044FB62
:1042300000BF80BD80B500AF012001F03BF900BF99
:1042400080BD000080B500AF024803F07FFA00BFD8
:1042500080BD00BF0C04002080B500AF024804F010
:104260001FFC00BF80BD00BFE404002080B400AF8D
:1042700001231846BD465DF8047B704780B582B0C7
:1042800000AF7860396009F0DFFD034616221A603E
:104290004FF0FF3318460837BD4680BD80B582B069
:1042A00000AF78604FF0FF317868FFF7E7FF00BF9D
:1042B000FDE780B586B000AFF860B9607A60002392
:1042C0007B610AE0AFF300800146BB685A1CBA600C
:1042D000CAB21A707B6901337B617A697B689A4242
:1042E000F0DB7B6818461837BD4680BD80B586B0C8
:1042F00000AFF860B9607A6000237B6109E0BB68B9
:104300005A1CBA601B781846AFF300807B690133F2
:104310007B617A697B689A42F1DB7B6818461837C3
:10432000BD4680BD80B483B000AF78604FF0FF33EE
:1043300018460C37BD465DF8047B704780B483B0E7
:1043400000AF786039603B684FF400525A60002338
:1043500018460C37BD465DF8047B704780B483B0C7
:1043600000AF7860012318460C37BD465DF8047B2A
:10437000704780B485B000AFF860B9607A60002300
:1043800018461437BD465DF8047B704780B586B08B
:1043900000AF7860144A154BD31A7B617B693B618F
:1043A000134B1B68002B02D1114B124A1A60104BA1
:1043B0001A687B6813443A699A4207D209F044FDAF
:1043C00003460C221A604FF0FF3309E0084B1B68CC
:1043D000FB60074B1A687B681344054A1360FB684F
:1043E00018461837BD4680BD0000022000040000BA
:1043F00008060020B854002080B400AF064BD3F864
:104400008830054A43F47003C2F8883000BFBD46C7
:104410005DF8047B704700BF00ED00E0DFF834D0AA
:104420000D480E490E4A002302E0D458C45004330C
:10443000C4188C42F9D30B4A0B4C002301E01360E3
:104440000432A242FBD3FFF7D7FF09F003FDFEF7CA
:1044500031FA704700000220000000200002002016
:104460002824010800020020B8540020FEE70000C4
:1044700080B500AF0E4B1B680D4A43F40073136008
:104480000B4B1B680A4A43F480631360084B1B689C
:10449000074A43F480731360032000F04FFD0F20A0
:1044A00000F008F8FFF7E0FB0023184680BD00BFCE
:1044B000003C024080B582B000AF7860124B1A68B1
:1044C000124B1B7819464FF47A73B3FBF1F3B2FB2E
:1044D000F3F3184600F067FD0346002B01D00123DB
:1044E0000EE07B680F2B0AD8002279684FF0FF306E
:1044F00000F02FFD064A7B681360002300E00123D3
:1045000018460837BD4680BD180000202000002056
:104510001C00002080B400AF064B1B781A46064BE7
:104520001B681344044A136000BFBD465DF8047B5A
:10453000704700BF200000200C06002080B400AFB0
:10454000034B1B681846BD465DF8047B704700BFEF
:104550000C06002080B584B000AF7860FFF7EEFF56
:10456000B8607B68FB60FB68B3F1FF3F05D00A4B86
:104570001B781A46FB681344FB6000BFFFF7DEFFA1
:104580000246BB68D31AFA689A42F7D800BF00BF48
:104590001037BD4680BD00BF2000002080B584B02C
:1045A00000AF78600023FB737B68002B01D10123EF
:1045B00033E07B681B6C002B09D17868FFF780FB28
:1045C0007B6800225A647B68002283F83C207B6869
:1045D0001B6C03F01003002B18D17B681B6C23F4B9
:1045E000885323F0020343F002027B681A64786860
:1045F00000F0D8FA7B6800225A647B681B6C23F0B9
:10460000030343F001027B681A6401E00123FB739A
:104610007B68002283F83C20FB7B18461037BD46A0
:1046200080BD000080B485B000AF78600023BB601F
:104630007B6893F83C30012B01D10223B2E07B6808
:10464000012283F83C207B681B689B6803F0010310
:10465000012B18D07B681B689A687B681B6842F046
:1046600001029A60524B1B68524AA2FB03239A0C28
:1046700013465B001344BB6002E0BB68013BBB60B8
:10468000BB68002BF9D17B681B689B6803F00103B2
:10469000012B7AD17B681B6C23F4E06323F00103C8
:1046A00043F480727B681A647B681B685B6803F460
:1046B0008063002B07D07B681B6C23F4405343F4CA
:1046C00080527B681A647B681B6C03F48053B3F5DB
:1046D000805F06D17B685B6C23F006027B685A64BE
:1046E00002E07B6800225A647B68002283F83C2049
:1046F000314BFB607B681B686FF022021A60FB681D
:104700005B6803F01F03002B2AD17B681B682B4AD0
:10471000934215D07B681B68294A934205D1264BEA
:104720005B6803F01F03002B0AD07B681B68254AD7
:10473000934236D1204B5B6803F01003002B30D13D
:104740007B681B689B6803F04053002B29D17B6872
:104750001B689A687B681B6842F080429A6020E080
:104760007B681B68154A93421BD17B681B689B685A
:1047700003F04053002B14D17B681B689A687B6858
:104780001B6842F080429A600BE07B681B6C43F030
:1047900010027B681A647B685B6C43F001027B68E3
:1047A0005A64002318461437BD465DF8047B7047F1
:1047B0001800002083DE1B4300230140002001403D
:1047C000002101400022014080B483B000AF786036
:1047D0007B6893F83C30012B01D1022321E07B68F8
:1047E000012283F83C207B681B689A687B681B6801
:1047F00022F001029A607B681B689B6803F001034A
:10480000002B09D17B681B6C23F4885323F0010330
:1048100043F001027B681A647B68002283F83C2025
:10482000002318460C37BD465DF8047B704780B501
:1048300084B000AF786039600023FB607B681B6840
:104840009B6803F48063B3F5806F13D17B681B68AA
:104850009B6803F48073B3F5807F0BD17B681B6C7E
:1048600043F020027B681A647B68002283F83C20B6
:10487000012363E0FFF762FEF86021E03B68B3F1DB
:10488000FF3F1DD03B68002B07D0FFF757FE0246C5
:10489000FB68D31A3A689A4212D27B681B681B687D
:1048A00003F00203022B0BD07B681B6C43F0040265
:1048B0007B681A647B68002283F83C2003233DE078
:1048C0007B681B681B6803F00203022BD6D17B6850
:1048D0001B686FF012021A607B681B6C43F4007255
:1048E0007B681A647B681B689B6803F04053002B4D
:1048F00023D17B681B7E002B1FD17B681B68DB6A82
:1049000003F47003002B06D07B681B689B6803F4DC
:104910008063002B11D17B681B6C23F480727B6851
:104920001A647B681B6C03F48053002B05D17B68F1
:104930001B6C43F001027B681A6400231846103791
:10494000BD4680BD80B483B000AF78607B681B68D3
:10495000DB6C18460C37BD465DF8047B70470000E1
:1049600080B485B000AF786039600023BB607B689D
:1049700093F83C30012B01D1022305E17B68012231
:1049800083F83C203B681B68092B25D97B681B6892
:10499000D9683B681B689BB21A4613465B001344F8
:1049A0001E3B072202FA03F3DA437B681B680A40C6
:1049B000DA607B681B68D9683B689A683B681B684B
:1049C0009BB2184603465B0003441E3B9A407B683B
:1049D0001B680A43DA6022E07B681B6819693B6840
:1049E0001B689BB21A4613465B001344072202FA67
:1049F00003F3DA437B681B680A401A617B681B6813
:104A000019693B689A683B681B689BB21846034665
:104A10005B0003449A407B681B680A431A613B6849
:104A20005B68062B24D87B681B68596B3B685A6807
:104A300013469B001344053B1F2202FA03F3DA439B
:104A40007B681B680A405A637B681B68596B3B682C
:104A50001B689BB218463B685A6813469B00134478
:104A6000053B00FA03F27B681B680A435A634CE07B
:104A70003B685B680C2B24D87B681B68196B3B6810
:104A80005A6813469B001344233B1F2202FA03F388
:104A9000DA437B681B680A401A637B681B68196BE2
:104AA0003B681B689BB218463B685A6813469B00DC
:104AB0001344233B00FA03F27B681B680A431A6322
:104AC00023E07B681B68D96A3B685A6813469B00E1
:104AD0001344413B1F2202FA03F3DA437B681B684D
:104AE0000A40DA627B681B68D96A3B681B689BB224
:104AF00018463B685A6813469B001344413B00FA32
:104B000003F27B681B680A43DA62224BFB607B6816
:104B10001B68214A934209D13B681B68122B05D1BF
:104B2000FB685B6843F48002FB685A607B681B6823
:104B3000194A934223D13B681B68102B03D03B6872
:104B40001B68112B1BD1FB685B6843F40002FB68F8
:104B50005A603B681B68102B11D1104B1B68104A20
:104B6000A2FB03239A0C13469B0013445B00BB601B
:104B700002E0BB68013BBB60BB68002BF9D17B68DE
:104B8000002283F83C20002318461437BD465DF808
:104B9000047B7047002301400020014018000020E2
:104BA00083DE1B4380B485B000AF7860794BFB6037
:104BB000FB685B6823F44032FB685A60FB685A6804
:104BC0007B685B681A43FB685A607B681B685A689D
:104BD0007B681B6822F480725A607B681B68596886
:104BE0007B681B691A027B681B680A435A607B68F2
:104BF0001B685A687B681B6822F040725A607B68A9
:104C00001B6859687B689A687B681B680A435A600E
:104C10007B681B689A687B681B6822F400629A6054
:104C20007B681B6899687B68DA687B681B680A4345
:104C30009A607B689B6A584A934222D07B681B68C3
:104C40009A687B681B6822F070629A607B681B68B8
:104C500099687B689A6A7B681B680A439A607B68DC
:104C60001B689A687B681B6822F040529A607B68D8
:104C70001B6899687B68DA6A7B681B680A439A60DC
:104C80000FE07B681B689A687B681B6822F0706283
:104C90009A607B681B689A687B681B6822F04052A8
:104CA0009A607B681B689A687B681B6822F0020226
:104CB0009A607B681B6899687B681B7E5A007B68DA
:104CC0001B680A439A607B6893F82030002B1BD046
:104CD0007B681B685A687B681B6842F400625A60F4
:104CE0007B681B685A687B681B6822F460425A60C4
:104CF0007B681B6859687B685B6A013B5A037B6869
:104D00001B680A435A6007E07B681B685A687B6827
:104D10001B6822F400625A607B681B68DA6A7B6851
:104D20001B6822F47002DA627B681B68D96A7B68B0
:104D3000DB69013B1A057B681B680A43DA627B6802
:104D40001B689A687B681B6822F400729A607B6813
:104D50001B6899687B6893F830305A027B681B683F
:104D60000A439A607B681B689A687B681B6822F418
:104D700080629A607B681B6899687B685B699A02AD
:104D80007B681B680A439A6000BF1437BD465DF814
:104D9000047B7047002301400100000F80B485B000
:104DA00000AF78607B6803F00703FB600C4BDB68A7
:104DB000BB60BA684FF6FF031340BB60FB681A0282
:104DC000BB68134343F0BF6343F40033BB60044A42
:104DD000BB68D36000BF1437BD465DF8047B7047E5
:104DE00000ED00E080B400AF044BDB681B0A03F069
:104DF00007031846BD465DF8047B704700ED00E0F0
:104E000080B483B000AF0346FB7197F90730002BE5
:104E10000BDBFB7903F01F02074997F907305B09A9
:104E2000012000FA02F241F8232000BF0C37BD46F2
:104E30005DF8047B704700BF00E100E080B483B000
:104E400000AF03463960FB7197F90730002B0ADB8E
:104E50003B68DAB20C4997F907301201D2B20B4421
:104E600083F800230AE03B68DAB20849FB7903F0D3
:104E70000F03043B1201D2B20B441A7600BF0C3769
:104E8000BD465DF8047B704700E100E000ED00E006
:104E900080B489B000AFF860B9607A60FB6803F055
:104EA0000703FB61FB69C3F10703042B28BF04233D
:104EB000BB61FB690433062B02D9FB69033B00E0AD
:104EC00000237B614FF0FF32BB6902FA03F3DA4340
:104ED000BB681A407B699A404FF0FF317B6901FA49
:104EE00003F3D9437B680B40134318462437BD4670
:104EF0005DF8047B7047000080B582B000AF786039
:104F00007B68013BB3F1807F01D301230FE00A4AA4
:104F10007B68013B53600F214FF0FF30FFF78EFF9E
:104F2000054B00229A60044B07221A6000231846A2
:104F30000837BD4680BD00BF10E000E080B582B0FC
:104F400000AF78607868FFF729FF00BF0837BD46DB
:104F500080BD80B586B000AF0346B9607A60FB7350
:104F600000237B61FFF73EFF78617A68B968786952
:104F7000FFF78EFF024697F90F3011461846FFF7EC
:104F80005DFF00BF1837BD4680BD80B582B000AF61
:104F90000346FB7197F907301846FFF731FF00BF52
:104FA0000837BD4680BD80B582B000AF78607868B4
:104FB000FFF7A2FF034618460837BD4680BD80B5FF
:104FC00084B000AF78607B689B6DFB60FFF7B6FA3A
:104FD000B8607B6893F83530DBB2022B08D07B6871
:104FE00080225A657B68002283F83420012352E036
:104FF0007B681B681A687B681B6822F016021A60BF
:105000007B681B685A697B681B6822F080025A61C2
:105010007B681B6C002B03D17B689B6C002B07D03B
:105020007B681B681A687B681B6822F008021A609C
:105030007B681B681A687B681B6822F001021A6093
:1050400013E0FFF77BFA0246BB68D31A052B0CD995
:105050007B6820225A657B68032283F835207B68B1
:10506000002283F83420032315E07B681B681B684B
:1050700003F00103002BE4D17B68DB6D3F229A40F3
:10508000FB689A607B68012283F835207B680022E8
:1050900083F83420002318461037BD4680BD80B405
:1050A00083B000AF78607B6893F83530DBB2022BB9
:1050B00004D07B6880225A6501230CE07B680522BE
:1050C00083F835207B681B681A687B681B6822F0B0
:1050D00001021A60002318460C37BD465DF8047BB8
:1050E0007047000080B489B000AF78603960002359
:1050F0007B6100233B610023BB610023FB616BE10B
:105100000122FB6902FA03F37B613B681B687A6941
:1051100013403B613A697B699A4240F05A813B688F
:105120005B6803F00303012B05D03B685B6803F069
:105130000303022B30D17B689B68BB61FB695B007A
:10514000032202FA03F3DB43BA691340BB613B68F5
:10515000DA68FB695B0002FA03F3BA691343BB61C7
:105160007B68BA699A607B685B68BB610122FB69F6
:1051700002FA03F3DB43BA691340BB613B685B6827
:105180001B0903F00102FB6902FA03F3BA69134336
:10519000BB617B68BA695A603B685B6803F00303D4
:1051A000032B17D07B68DB68BB61FB695B000322C4
:1051B00002FA03F3DB43BA691340BB613B689A68A8
:1051C000FB695B0002FA03F3BA691343BB617B68B6
:1051D000BA69DA603B685B6803F00303022B23D1F2
:1051E000FB69DA087B68083253F82230BB61FB693F
:1051F00003F007039B000F2202FA03F3DB43BA69B3
:105200001340BB613B681A69FB6903F007039B000D
:1052100002FA03F3BA691343BB61FB69DA087B68DE
:105220000832B96943F822107B681B68BB61FB69CF
:105230005B00032202FA03F3DB43BA691340BB614C
:105240003B685B6803F00302FB695B0002FA03F34F
:10525000BA691343BB617B68BA691A603B685B68D3
:1052600003F44033002B00F0B4800023FB60604B5C
:105270005B6C5F4A43F4804353645D4B5B6C03F4A7
:105280008043FB60FB685B4AFB699B08023352F872
:105290002330BB61FB6903F003039B000F2202FA7A
:1052A00003F3DB43BA691340BB617B68524A934204
:1052B0002BD07B68514A934225D07B68504A934259
:1052C0001FD07B684F4A934219D07B684E4A934265
:1052D00013D07B684D4A93420DD07B684C4A934271
:1052E00007D07B684B4A934201D107230EE0082385
:1052F0000CE006230AE0052308E0042306E003236C
:1053000004E0022302E0012300E00023FA6902F036
:10531000030292009340BA691343BB613549FB69AC
:105320009B080233BA6941F823203B4B9B68BB6161
:105330003B69DB43BA691340BB613B685B6803F4BC
:105340008013002B03D0BA693B691343BB61324A17
:10535000BB699360304BDB68BB613B69DB43BA6977
:105360001340BB613B685B6803F40013002B03D060
:10537000BA693B691343BB61274ABB69D360264BBB
:105380005B68BB613B69DB43BA691340BB613B6847
:105390005B6803F40033002B03D0BA693B69134305
:1053A000BB611D4ABB6953601B4B1B68BB613B69FA
:1053B000DB43BA691340BB613B685B6803F480332D
:1053C000002B03D0BA693B691343BB61124ABB6926
:1053D0001360FB690133FB61FB690F2B7FF690AE15
:1053E00000BF00BF2437BD465DF8047B704700BF97
:1053F0000038024000380140000002400004024032
:1054000000080240000C024000100240001402405C
:1054100000180240001C0240003C014080B485B0EE
:1054200000AF78600B467B807B681A697B881340ED
:10543000002B02D00123FB7301E00023FB73FB7BF5
:1054400018461437BD465DF8047B704780B483B0BE
:1054500000AF78600B467B8013467B707B78002B17
:1054600003D07A887B689A6103E07B881A047B68A2
:105470009A6100BF0C37BD465DF8047B704780B46D
:1054800085B000AF78600B467B807B685B69FB6012
:105490007A88FB6813401A04FB68D9437B880B4069
:1054A0001A437B689A6100BF1437BD465DF8047BE0
:1054B0007047000080B582B000AF0346FB80084B08
:1054C0005A69FB881340002B06D0054AFB885361BC
:1054D000FB881846FEF744F800BF0837BD4680BD7C
:1054E000003C014080B584B000AF78607B68002B41
:1054F00001D101232BE17B6893F83D30DBB2002B17
:1055000006D17B68002283F83C207868FEF74CFCCB
:105510007B68242283F83D207B681B681A687B68BF
:105520001B6822F001021A607B681B681A687B689E
:105530001B6842F400421A607B681B681A687B682B
:105540001B6822F400421A6001F048FCF8607B6896
:105550005B68814A934207D8FB68804A934294BFB4
:1055600001230023DBB206E0FB687D4A934294BF2F
:1055700001230023DBB2002B01D00123E7E0FB680D
:10558000784AA2FB03239B0CBB607B681B685B68AB
:1055900023F03F017B681B68BA680A435A607B6846
:1055A0001B681B6A23F03F017B685B686A4A934271
:1055B00002D8BB68013309E0BB684FF4967202FB66
:1055C00003F3694AA2FB03239B0901337A6812683B
:1055D0000B4313627B681B68DB6923F44F4222F0A4
:1055E000FF027B685B685C498B4219D8FB68591ED7
:1055F0007B685B685B00B1FBF3F3591C40F6FC73FE
:105600000B40002B0AD0FB68591E7B685B685B006F
:10561000B1FBF3F30133C3F30B0351E004234FE079
:105620007B689B68002B11D1FB68581E7B6859680A
:105630000B465B000B44B0FBF3F30133C3F30B03E6
:10564000002B0CBF01230023DBB212E0FB68581EC5
:105650007B6859680B469B000B4499000B44B0FBD8
:10566000F3F30133C3F30B03002B0CBF012300231F
:10567000DBB2002B01D0012322E07B689B68002B6A
:105680000ED1FB68581E7B6859680B465B000B44C3
:10569000B0FBF3F30133C3F30B0343F400430FE018
:1056A000FB68581E7B6859680B469B000B449900A9
:1056B0000B44B0FBF3F30133C3F30B0343F4404358
:1056C000796809681343CB617B681B681B6823F00A
:1056D000C0017B68DA697B681B6A1A437B681B68B8
:1056E0000A431A607B681B689B6823F4034323F01A
:1056F000FF037A6811697A68D26811437A68126880
:105700000B4393607B681B68DB6823F0FF017B68B9
:105710005A697B689B691A437B681B680A43DA6095
:105720007B681B681A687B681B6842F001021A607C
:105730007B6800221A647B68202283F83D207B6806
:1057400000221A637B68002283F83E20002318465B
:105750001037BD4680BD00BFA08601007F841E00BB
:10576000FF083D0083DE1B43D34D621080B588B037
:1057700002AFF860084611461A4603467B810B4685
:105780003B811346FB80FEF7D9FE7861FB6893F8F6
:105790003D30DBB2202B40F0D9807B690093192388
:1057A00001226D49F86800F08BFC0346002B01D004
:1057B0000223CCE0FB6893F83C30012B01D102239B
:1057C000C5E0FB68012283F83C20FB681B681B686E
:1057D00003F00103012B07D0FB681B681A68FB6804
:1057E0001B6842F001021A60FB681B681A68FB68BC
:1057F0001B6822F400621A60FB68212283F83D20B6
:10580000FB68402283F83E20FB6800221A64FB6894
:105810003A6A5A62FB68BA8C5A85FB685B8D9AB209
:10582000FB681A85FB684D4ADA62F8883A897989FB
:105830007B690193BB6A00930346F86800F0C2FAE3
:105840000346002B52D0012381E07A69B96AF868D7
:1058500000F050FD0346002B0DD0FB681B6C042BA1
:1058600007D1FB681B681A68FB681B6842F400726A
:105870001A6001236BE0FB685B6A1A78FB681B689F
:105880001A61FB685B6A5A1CFB685A62FB681B8DD5
:10589000013B9AB2FB681A85FB685B8D9BB2013BAA
:1058A0009AB2FB685A85FB681B685B6903F00403C6
:1058B000042B1BD1FB681B8D002B17D0FB685B6A88
:1058C0001A78FB681B681A61FB685B6A5A1CFB68E4
:1058D0005A62FB681B8D013B9AB2FB681A85FB6814
:1058E0005B8D9BB2013B9AB2FB685A85FB681B8DAE
:1058F000002BAAD17A69B96AF86800F043FD034623
:10590000002B0DD0FB681B6C042B07D1FB681B68B8
:105910001A68FB681B6842F400721A60012316E0E3
:10592000FB681B681A68FB681B6842F400721A6007
:10593000FB68202283F83D20FB68002283F83E208C
:10594000FB68002283F83C20002300E00223184675
:105950001837BD4680BD00BF020010000000FFFFE9
:1059600080B58CB002AFF860084611461A4603466F
:105970007B810B463B811346FB80FEF7DFFD78629F
:10598000FB6893F83D30DBB2202B40F014827B6A39
:105990000093192301227B49F86800F091FB03462C
:1059A000002B01D0022307E2FB6893F83C30012B67
:1059B00001D1022300E2FB68012283F83C20FB684E
:1059C0001B681B6803F00103012B07D0FB681B68F1
:1059D0001A68FB681B6842F001021A60FB681B68CA
:1059E0001A68FB681B6822F400621A60FB682222B6
:1059F00083F83D20FB68402283F83E20FB680022AC
:105A00001A64FB683A6B5A62FB68BA8E5A85FB6867
:105A10005B8D9AB2FB681A85FB685B4ADA62F8888C
:105A20003A8979897B6A0193BB6B00930346F868D6
:105A300000F05EFA0346002B01D00123BCE1FB68B5
:105A40001B8D002B13D100233B62FB681B685B6935
:105A50003B62FB681B689B693B623B6AFB681B6897
:105A60001A68FB681B6842F400721A6090E1FB68D8
:105A70001B8D012B1BD1FB681B681A68FB681B6818
:105A800022F480621A600023FB61FB681B685B697B
:105A9000FB61FB681B689B69FB61FB69FB681B681A
:105AA0001A68FB681B6842F400721A6070E1FB68B8
:105AB0001B8D022B1BD1FB681B681A68FB681B68D7
:105AC00022F480621A60FB681B681A68FB681B6816
:105AD00042F400621A600023BB61FB681B685B69CB
