:020000040800F2
:10000000000002209D410008753F00087D3F000868
:10001000853F00088D3F0008953F00080000000064
:1000200000000000000000000000000051C30008B4
:100030009D3F000800000000A1C50008AB3F00087C
:10004000ED410008ED410008ED410008ED410008D8
:10005000ED410008ED410008ED410008ED410008C8
:10006000ED410008ED410008ED410008ED410008B8
:10007000ED410008ED410008ED410008ED410008A8
:10008000ED410008ED410008ED410008ED41000898
:10009000ED410008ED410008ED410008ED41000888
:1000A000ED410008ED410008ED410008ED41000878
:1000B000ED410008ED410008C53F0008ED41000892
:1000C000ED410008ED410008ED410008ED41000858
:1000D000ED410008ED410008ED410008D93F00085E
:1000E000ED410008ED410008ED410008ED41000838
:1000F000ED410008ED410008ED410008ED41000828
:10010000ED410008ED410008ED410008ED41000817
:10011000ED410008ED410008ED410008ED41000807
:10012000ED410008ED410008ED410008ED410008F7
:10013000ED410008ED410008ED410008ED410008E7
:10014000ED410008ED410008ED410008ED410008D7
:10015000ED410008ED410008ED410008ED410008C7
:10016000ED410008ED410008ED410008ED410008B7
:10017000ED410008ED410008ED41000800000000DD
:08018000ED410008ED4100080B
:1001900010B5054C237833B9044B13B10448AFF3C1
:1001A00000800123237010BDF80100200000000032
:1001B0009002010808B5034B1BB103490348AFF394
:1001C000008008BD00000000FC0100209002010832
:1001D00001F0FF01102A2BDB10F0070F08D010F8F8
:1001E000013B013A8B422DD010F0070F42B3F6D1FC
:1001F000F0B441EA012141EA014122F007047FF015
:1002000000070023F0E80256083C85EA010586EA6B
:10021000010685FA47F5A3FA87F586FA47F6A5FAA7
:1002200087F68EB9EED1F0BC01F0FF0102F00702B3
:1002300032B110F8013B013A83EA010313B1F8D15E
:100240000020704701387047002D06BF354603383F
:10025000073815F0010F07D1013015F4807F02BF78
:10026000013015F4C03F0130F0BC0138704700BFC9
:10027000034613F8012B002AFBD1181A01387047E6
:1002800081F0004102E000BF83F0004330B54FEA47
:1002900041044FEA430594EA050F08BF90EA020FB4
:1002A0001FBF54EA000C55EA020C7FEA645C7FEA47
:1002B000655C00F0E2804FEA5454D4EB5555B8BF6A
:1002C0006D420CDD2C4480EA020281EA030382EADB
:1002D000000083EA010180EA020281EA0303362D6D
:1002E00088BF30BD11F0004F4FEA01314FF4801C40
:1002F0004CEA113102D0404261EB410113F0004F52
:100300004FEA03334CEA133302D0524263EB430308
:1003100094EA050F00F0A780A4F10104D5F1200EA6
:100320000DDB02FA0EFC22FA05F2801841F1000101
:1003300003FA0EF2801843FA05F359410EE0A5F1D5
:1003400020050EF1200E012A03FA0EFC28BF4CF006
:10035000020C43FA05F3C01851EBE37101F00045BC
:1003600007D54FF0000EDCF1000C7EEB00006EEBC9
:100370000101B1F5801F1BD3B1F5001F0CD3490853
:100380005FEA30004FEA3C0C04F101044FEA4452AA
:1003900012F5800F80F09A80BCF1004F08BF5FEA31
:1003A000500C50F1000041EB045141EA050130BD11
:1003B0005FEA4C0C404141EB0101013C28BFB1F523
:1003C000801FE9D291F0000F04BF01460020B1FA6E
:1003D00081F308BF2033A3F10B03B3F120020CDA41
:1003E0000C3208DD02F1140CC2F10C0201FA0CF01F
:1003F00021FA02F10CE002F11402D8BFC2F1200C84
:1004000001FA02F120FA0CFCDCBF41EA0C01904039
:10041000E41AA2BF01EB0451294330BD6FEA040482
:100420001F3C1CDA0C340EDC04F11404C4F120026D
:1004300020FA04F001FA02F340EA030021FA04F37F
:1004400045EA030130BDC4F10C04C4F1200220FAD6
:1004500002F001FA04F340EA0300294630BD21FA14
:1004600004F0294630BD94F0000F83F4801306BFDA
:1004700081F480110134013D4EE77FEA645C18BFCE
:100480007FEA655C29D094EA050F08BF90EA020F65
:1004900005D054EA000C04BF1946104630BD91EA5D
:1004A000030F1EBF0021002030BD5FEA545C05D160
:1004B0004000494128BF41F0004130BD14F580049F
:1004C0003CBF01F5801130BD01F0004545F0FE4113
:1004D00041F470014FF0000030BD7FEA645C1ABF48
:1004E000194610467FEA655C1CBF0B46024650EA7F
:1004F000013406BF52EA033591EA030F41F40021AB
:1005000030BD00BF90F0000F04BF0021704730B530
:100510004FF4806404F132044FF000054FF0000105
:1005200050E700BF90F0000F04BF0021704730B5C6
:100530004FF4806404F1320410F0004548BF40429B
:100540004FF000013EE700BF42004FEAE2014FEAF0
:1005500031014FEA02701FBF12F07F4393F07F4FCB
:1005600081F06051704732F07F4208BF704793F0CE
:100570007F4F04BF41F40021704730B54FF46074E1
:1005800001F0004521F000411CE700BF50EA0102E4
:1005900008BF704730B54FF000050AE050EA01028D
:1005A00008BF704730B511F0004502D5404261EBFD
:1005B00041014FF4806404F132045FEA915C3FF43E
:1005C000D8AE4FF003025FEADC0C18BF03325FEADB
:1005D000DC0C18BF033202EBDC02C2F1200300FA8C
:1005E00003FC20FA02F001FA03FE40EA0E0021FAB1
:1005F00002F11444BDE600BF70B54FF0FF0C4CF49F
:10060000E06C1CEA11541DBF1CEA135594EA0C0F50
:1006100095EA0C0F00F0DEF82C4481EA030621EA8B
:100620004C5123EA4C5350EA013518BF52EA0335C6
:1006300041F4801143F4801338D0A0FB02CE4FF078
:100640000005E1FB02E506F00042E0FB03E54FF0A8
:100650000006E1FB03569CF0000F18BF4EF0010EA0
:10066000A4F1FF04B6F5007F64F5407404D25FEA9C
:100670004E0E6D4146EB060642EAC62141EA55514F
:100680004FEAC52040EA5E504FEACE2EB4F1FD0C91
:1006900088BFBCF5E06F1ED8BEF1004F08BF5FEA0F
:1006A000500E50F1000041EB045170BD06F00046C1
:1006B00046EA010140EA020081EA0301B4EB5C046E
:1006C000C2BFD4EB0C0541EA045170BD41F4801166
:1006D0004FF0000E013C00F3AB8014F1360FDEBF8B
:1006E000002001F0004170BDC4F10004203C35DA67
:1006F0000C341BDC04F11404C4F1200500FA05F3EA
:1007000020FA04F001FA05F240EA020001F000428A
:1007100021F0004110EBD37021FA04F642EB060100
:100720005EEA430E08BF20EAD37070BDC4F10C042A
:10073000C4F1200500FA04F320FA05F001FA04F2EE
:1007400040EA020001F0004110EBD37041F10001DA
:100750005EEA430E08BF20EAD37070BDC4F12005E5
:1007600000FA05F24EEA020E20FA04F301FA05F24D
:1007700043EA020321FA04F001F0004121FA04F2F5
:1007800020EA020000EBD3705EEA430E08BF20EAC5
:10079000D37070BD94F0000F0FD101F000464000FF
:1007A00041EB010111F4801F08BF013CF7D041EA81
:1007B000060195F0000F18BF704703F00046520085
:1007C00043EB030313F4801F08BF013DF7D043EA56
:1007D0000603704794EA0C0F0CEA135518BF95EA0C
:1007E0000C0F0CD050EA410618BF52EA4306D1D193
:1007F00081EA030101F000414FF0000070BD50EAB2
:10080000410606BF1046194652EA430619D094EA3B
:100810000C0F02D150EA013613D195EA0C0F05D125
:1008200052EA03361CBF104619460AD181EA030179
:1008300001F0004141F0FE4141F470014FF0000031
:1008400070BD41F0FE4141F4780170BD70B54FF0CC
:10085000FF0C4CF4E06C1CEA11541DBF1CEA13554C
:1008600094EA0C0F95EA0C0F00F0A7F8A4EB05042E
:1008700081EA030E52EA03354FEA013100F0888025
:100880004FEA03334FF0805545EA131343EA1263EE
:100890004FEA022245EA111545EA10654FEA0026A3
:1008A0000EF000419D4208BF964244F1FD0404F55C
:1008B000407402D25B084FEA3202B61A65EB0305B8
:1008C0005B084FEA32024FF480104FF4002CB6EB75
:1008D000020E75EB030E22BFB61A754640EA0C00F5
:1008E0005B084FEA3202B6EB020E75EB030E22BF35
:1008F000B61A754640EA5C005B084FEA3202B6EB76
:10090000020E75EB030E22BFB61A754640EA9C0034
:100910005B084FEA3202B6EB020E75EB030E22BF04
:10092000B61A754640EADC0055EA060E18D04FEAC2
:10093000051545EA16754FEA06164FEAC30343EA62
:1009400052734FEAC2025FEA1C1CC0D111F4801F2F
:100950000BD141EA00014FF000004FF0004CB6E728
:1009600011F4801F04BF01430020B4F1FD0C88BFC7
:10097000BCF5E06F3FF6AFAEB5EB030C04BFB6EBD2
:10098000020C5FEA500C50F1000041EB045170BDC5
:100990000EF0004E4EEA113114EB5C04C2BFD4EBF2
:1009A0000C0541EA045170BD41F480114FF0000E76
:1009B000013C90E645EA060E8DE60CEA135594EAF2
:1009C0000C0F08BF95EA0C0F3FF43BAF94EA0C0FF5
:1009D0000AD150EA01347FF434AF95EA0C0F7FF46A
:1009E00025AF104619462CE795EA0C0F06D152EABE
:1009F00003353FF4FDAE1046194622E750EA4106A2
:100A000018BF52EA43067FF4C5AE50EA41047FF4B2
:100A10000DAF52EA43057FF4EBAE12E74FF0FF3C17
:100A200006E000BF4FF0010C02E000BF4FF0010CE8
:100A30004DF804CD4FEA410C7FEA6C5C4FEA430C61
:100A400018BF7FEA6C5C1BD001B050EA410C0CBFB0
:100A500052EA430C91EA030F02BF90EA020F002012
:100A6000704710F1000F91EA030F58BF994208BF79
:100A700090422CBFD8176FEAE37040F00100704736
:100A80004FEA410C7FEA6C5C02D150EA013C07D18D
:100A90004FEA430C7FEA6C5CD6D152EA033CD3D0D8
:100AA0005DF8040B704700BF8446104662468C46D2
:100AB0001946634600E000BF01B5FFF7B7FF002805
:100AC00048BF10F1000F01BD4DF808EDFFF7F4FF2E
:100AD0000CBF012000205DF808FB00BF4DF808EDB9
:100AE000FFF7EAFF34BF012000205DF808FB00BFDC
:100AF0004DF808EDFFF7E0FF94BF012000205DF8FE
:100B000008FB00BF4DF808EDFFF7CEFF94BF0120B2
:100B100000205DF808FB00BF4DF808EDFFF7C4FFAB
:100B200034BF012000205DF808FB00BF4FEA410CF4
:100B30007FEA6C5C02D150EA013C0AD14FEA430CD7
:100B40007FEA6C5C02D152EA033C02D14FF0000014
:100B500070474FF0010070474FEA410212F5001252
:100B600015D211D56FF47873B3EB625212D94FEAF4
:100B7000C12343F0004343EA505311F0004F23FADE
:100B800002F018BF404270474FF00000704750EA33
:100B9000013005D111F0004008BF6FF000407047F0
:100BA0004FF00000704700BF4A0011D212F500124A
:100BB00011D20DD56FF47873B3EB62520ED44FEAB5
:100BC000C12343F0004343EA505323FA02F0704735
:100BD0004FF00000704750EA013002D14FF0FF3073
:100BE00070474FF0000070474FEA4102B2F1E04316
:100BF00024BFB3F5001CDCF1FE5C0DD901F0004C04
:100C00004FEAC0024CEA5070B2F1004F40EB830053
:100C100008BF20F00100704711F0804F21D113F17F
:100C20003872BCBF01F00040704741F480114FEAB8
:100C30005252C2F11802C2F1200C10FA0CF320FA41
:100C400002F018BF40F001004FEAC1234FEAD3235E
:100C500003FA0CFC40EA0C0023FA02F34FEA4303C8
:100C6000CCE77FEA625307D150EA01331EBF4FF051
:100C7000FE4040F44000704701F0004040F0FE406C
:100C800040F40000704700BF53B94AB9002908BFBB
:100C900000281CBF4FF0FF314FF0FF3000F06AB961
:100CA000ADF1080C6DE904CE00F006F8DDF804E0C3
:100CB000DDE9022304B070472DE9F047089D0C469A
:100CC000002B4ED194468C458646B2FA82F262D908
:100CD0004AB1C2F12003914020FA03F30CFA02FC5E
:100CE000194300FA02FE4FEA1C471FFA8CF6B1FBCB
:100CF000F7F44FEA1E4307FB141143EA014304FBD8
:100D000006F199420AD91CEB030304F1FF3080F08D
:100D10001281994240F20F81023C6344591A1FFA32
:100D20008EF3B1FBF7F007FB101143EA014300FB20
:100D300006F69E420AD91CEB030300F1FF3180F056
:100D4000FC809E4240F2F980634402389B1B40EADB
:100D5000044000211DB1D3400022C5E90032BDE8A6
:100D6000F0878B4205D90DB1C5E900010021084685
:100D7000F5E7B3FA83F1002946D1A34202D39042AA
:100D8000C0F0F080861A64EB03030120002DE6D04A
:100D9000C5E90063E3E7002A40F09080A1EB0C0472
:100DA0004FEA1C481FFA8CF70121B4FBF8F64FEA12
:100DB0001E4308FB164443EA044307FB06F098422F
:100DC00008D91CEB030306F1FF3402D2984200F26B
:100DD000CD8026461C1A1FFA8EF3B4FBF8F008FBF0
:100DE000104443EA044300FB07F79F4208D91CEB79
:100DF000030300F1FF3402D29F4200F2B08020468C
:100E0000DB1B40EA0640A5E7C1F120068B4022FA31
:100E100006F71F4320FA06FC04FA01F343EA0C0329
:100E2000F44000FA01F8380C4FEA1349B4FBF0FE25
:100E30001FFA87FC00FB1E4449EA04440EFB0CF930
:100E4000A14502FA01F20AD93C190EF1FF3A80F0ED
:100E50008480A14540F28180AEF1020E3C44A4EBB7
:100E600009041FFA83F9B4FBF0F300FB134449EAC9
:100E7000044403FB0CFCA44507D93C1903F1FF30E3
:100E800067D2A44565D9023B3C4443EA0E40A0FB2F
:100E90000293A4EB0C049C42CE469C4651D34ED008
:100EA00055B1B8EB0E0364EB0C0404FA06F6CB4024
:100EB0001E43CC40C5E90064002150E7C2F1200385
:100EC00020FA03F10CFA02FC24FA03F394400C43D9
:100ED0004FEA1C4800FA02FE1FFA8CF7B3FBF8F049
:100EE00008FB1031230C43EA014300FB07F1994250
:100EF00008D91CEB030300F1FF362CD299422AD902
:100F0000023863445B1AA4B2B3FBF8F108FB113357
:100F100044EA034401FB07F3A34208D91CEB040491
:100F200001F1FF3613D2A34211D902396444E41A05
:100F300041EA004139E70446F0E6084606E7C845BD
:100F4000AED2B9EB020E63EB070C0138A8E73146CD
:100F5000EDE7034699E73046D4E7D6467FE763449A
:100F600002384DE70646234608460FE7023E634433
:100F700030E700BF704700BF80B598B000AF87ED85
:100F8000070AC7ED060A87ED051AC7ED041A87EDB3
:100F9000032AC7ED022A87ED013A38604FF07E53ED
:100FA000FB654FF00003BB653B681B687B653B68D6
:100FB0005B683B653B689B68FB643B68DB68BB64C4
:100FC000D7ED077AF5EE407AF1EE10FA0ED1D7EDB3
:100FD000067AF5EE407AF1EE10FA07D1D7ED057AF0
:100FE000F5EE407AF1EE10FA00F01781D7ED077AAE
:100FF00027EEA77AD7ED067A67EEA77A37EE277A3B
:10100000D7ED057A67EEA77A77EE277AB0EE670A12
:1010100000F05EFA87ED110A97ED077AD7ED117AA5
:1010200067EE277AC7ED077A97ED067AD7ED117A42
:1010300067EE277AC7ED067A97ED057AD7ED117A34
:1010400067EE277AC7ED057A97ED147AD7ED127A15
:1010500027EE277AD7ED156AD7ED137A66EEA77AD1
:1010600077EE677AC7ED107A97ED157AD7ED147A97
:1010700027EE277AD7ED136AD7ED127A66EEA77AB4
:1010800077EE277AC7ED0F7AD7ED157A67EEA77A54
:10109000B6EE007A37EEC77AD7ED127A67EEA77A06
:1010A00077EE277AC7ED0E7A97ED067AD7ED0E7AAE
:1010B00027EE277AD7ED056AD7ED0F7A66EEA77A85
:1010C00077EE677AC7ED0D7A97ED057AD7ED107A4E
:1010D00027EE277AD7ED076AD7ED0E7A66EEA77A64
:1010E00077EE677AC7ED0C7A97ED077AD7ED0F7A2E
:1010F00027EE277AD7ED066AD7ED107A66EEA77A43
:1011000077EE677AC7ED0B7AD7ED167AF5EEC07AEF
:10111000F1EE10FA51DDB24B93ED007AD7ED166A7D
:10112000D7ED0D7A66EEA76AD7ED017A66EEA77A5B
:1011300077EE277AAA4BC3ED007AA94B93ED017A9B
:10114000D7ED166AD7ED0C7A66EEA76AD7ED017A6D
:1011500066EEA77A77EE277AA14BC3ED017AA04B12
:1011600093ED027AD7ED166AD7ED0B7A66EEA76A91
:10117000D7ED017A66EEA77A77EE277A984BC3ED22
:10118000027A974BD3ED007A97ED047A77EE277ABF
:10119000C7ED047A924BD3ED017A97ED037A77EE9F
:1011A000277AC7ED037A8E4BD3ED027A97ED027A58
:1011B00077EE277AC7ED027A0BE0894B4FF00002F9
:1011C0001A60874B4FF000025A60854B4FF00002C7
:1011D0009A6097ED177AD7ED0D7A67EE277A97ED3B
:1011E000047A77EE277AC7ED047A97ED177AD7ED70
:1011F0000C7A67EE277A97ED037A77EE277AC7EDB8
:10120000037A97ED177AD7ED0B7A67EE277A97ED89
:10121000027A77EE277AC7ED027AD7ED017AB6EE39
:10122000007A67EE877A97ED047A67EE277AC7ED42
:10123000047AD7ED017AB6EE007A67EE877A97EDF9
:10124000037A67EE277AC7ED037AD7ED017AB6EE17
:10125000007A67EE877A97ED027A67EE277AC7ED14
:10126000027A7B6DBB623B6D7B62FB6C3B62D7EDB0
:10127000097AB1EE677AD7ED047A27EE277AD7EDAF
:10128000086AD7ED037A66EEA77A37EE677AD7ED6C
:10129000126AD7ED027A66EEA77A77EE677A97ED53
:1012A000157A77EE277AC7ED157A97ED0A7AD7ED9A
:1012B000047A27EE277AD7ED086AD7ED027A66EE30
:1012C000A77A37EE277AD7ED126AD7ED037A66EE62
:1012D000A77A77EE677A97ED147A77EE277AC7EDDB
:1012E000147A97ED0A7AD7ED037A27EE277AD7EDAD
:1012F000096AD7ED027A66EEA77A37EE677AD7EDFC
:10130000126AD7ED047A66EEA77A77EE277A97ED20
:10131000137A77EE277AC7ED137A97ED0A7AD7ED2D
:10132000027A27EE277AD7ED096AD7ED037A66EEBF
:10133000A77A37EE277AD7ED086AD7ED047A66EEFA
:10134000A77A77EE677A97ED127A77EE277AC7ED6C
:10135000127AD7ED157A27EEA77AD7ED147A67EED1
:10136000A77A37EE277AD7ED137A67EEA77A37EEAA
:10137000277AD7ED127A67EEA77A77EE277AB0EE62
:10138000670A00F0A5F887ED110A97ED157AD7EDF9
:10139000117A67EE277A3B68C3ED007A3B68043325
:1013A00097ED147AD7ED117A67EE277AC3ED007ABC
:1013B0003B68083397ED137AD7ED117A67EE277AF9
:1013C000C3ED007A3B680C3397ED127AD7ED117AB2
:1013D00067EE277AC3ED007A00BF6037BD4680BD57
:1013E0001402002000000000B0B582B000AF7860A9
:1013F0007B68043393ED007A7B680833D3ED007A81
:1014000027EE277A7B68D3ED006A7B680C33D3ED37
:10141000007A66EEA77A77EE277A77EEA77A17EE4C
:10142000900AFFF791F804460D467B6893ED007A29
:101430007B68D3ED007A27EE277A7B680433D3EDFF
:10144000006A7B680433D3ED007A66EEA77A37EE44
:10145000277A7B680833D3ED006A7B680833D3EDC5
:10146000007A66EEA77A37EE677A7B680C33D3EDA5
:10147000006A7B680C33D3ED007A66EEA77A77EECC
:10148000677A17EE900AFFF75FF802460B4643ECC7
:10149000112B45EC104B0EF091FC51EC100B0AA3F4
:1014A000D3E90023FFF7A8F802460B461046194679
:1014B000FFF79AFB034607EE903AB0EE670A08374B
:1014C000BD46B0BDAFF30080E5BF631ADCA54C405C
:1014D00080B487B000AF87ED010AD7ED017AB6EE90
:1014E000007A67EE877AC7ED057A7B683B6107F182
:1014F00010031B68FB60FB685A10124B9B1AFB60C1
:1015000007F10C031B683B6197ED047AD7ED057A70
:1015100027EE277AD7ED047A67EE277AB7EE087AB6
:1015200037EE677AD7ED047A67EE277AC7ED047A4B
:101530003B6907EE903AB0EE670A1C37BD465DF88E
:10154000047B7047DF59375F80B489B000AFF86122
:1015500087ED060AC7ED050A87ED041AC7ED031AE1
:1015600087ED022AC7ED012AFB69BA691A60FB6997
:101570007A695A60FB693A699A60FB69FA68DA60CD
:10158000FB694FF000021A61FB694FF000029A619B
:10159000FB69BA68DA61FB697A681A62FB69002242
:1015A0005A6200BF2437BD465DF8047B70470000D7
:1015B00080B588B000AF786087ED000A7B685B6A11
:1015C000002B04D102F07AFE02467B685A6202F0D8
:1015D00075FE02467B685B6AD31A07EE903AF8EE16
:1015E000677A9FED4D7A67EE877AC7ED067A7B685A
:1015F00093ED037AD7ED007A77EE677AC7ED057A37
:101600007B68D3ED007A97ED057A67EE277AC7ED10
:10161000047A7B6893ED047A7B68D3ED016AD7ED99
:10162000057A66EEA76AD7ED067A66EEA77A77EEB8
:10163000277A7B68C3ED047A7B6893ED027A7B6836
:10164000D3ED067AD7ED056A76EEE77A67EE276A7C
:1016500097ED067AC6EE877AC7ED037A7B6893ED3D
:10166000047AD7ED047A77EE277A97ED037A77EE4E
:10167000277AC7ED077A7B68D3ED087A97ED077A6A
:10168000B4EEE77AF1EE10FA16DD7B681B6AFB61B7
:101690007B6893ED047A7B68D3ED016AD7ED057A18
:1016A00066EEA76AD7ED067A66EEA77A77EE677AD6
:1016B0007B68C3ED047A1FE07B68D3ED077A97ED72
:1016C000077AB4EEE77AF1EE10FA15D57B68DB699C
:1016D000FB617B6893ED047A7B68D3ED016AD7EDFB
:1016E000057A66EEA76AD7ED067A66EEA77A77EEF8
:1016F000677A7B68C3ED047A7B687A699A6102F045
:10170000DDFD02467B685A62FB6907EE903AB0EE57
:10171000670A2037BD4680BD6F12833A80B483B01C
:1017200000AF78607B684FF00002DA607B684FF0B2
:1017300000021A617B684FF000029A617B68002208
:101740005A6200BF0C37BD465DF8047B704700004D
:1017500080B582B000AF786039607B68002B14BF21
:1017600001230023DBB21A460821144803F02EFDA2
:101770007B68002B0CBF01230023DBB21A46042137
:101780000E4803F023FD3B68002B0CBF0123002310
:10179000DBB21A462021094803F018FD3B68002BF4
:1017A00014BF01230023DBB21A461021034803F0C3
:1017B0000DFD00BF0837BD4680BD00BF00000240E0
:1017C00080B483B000AF0346FB80094B1B68002246
:1017D0005A6200BF064B1B685A6AFB889A42F9D3CB
:1017E00000BF00BF0C37BD465DF8047B704700BFEB
:1017F0004404002080B500AF0D4B4FF07E521A60BC
:101800000B4B4FF000025A60094B4FF000029A60F8
:10181000074B4FF00002DA60064B4FF000021A60EF
:101820000548FFF77BFF0548FFF778FF00BF80BD45
:10183000040000208005002084050020AC05002065
:10184000F8B52DED048B00AF02F038FD02464C4B8D
:101850001B68D31AB3F57A7F05D902F02FFD034632
:10186000474A136084E0474B00220021464808F0B5
:1018700083F9464B03220021434808F065F8414BA9
:10188000D3ED007A9FED427A27EE878A3D4BD3ED68
:10189000017A9FED3F7A67EE878A3A4BD3ED027A61
:1018A0009FED3B7A27EE879A384B1B681846FEF768
:1018B0004BFE31A3D3E90023FEF79EFE02460B4602
:1018C00010461946FFF790F90446304BD3ED017AE4
:1018D000F1EE677A17EE903A1846FEF735FE26A32A
:1018E000D3E90023FEF788FE02460B461046194650
:1018F000FFF77AF90546254B9B681846FEF724FE4C
:101900001DA3D3E90023FEF777FE02460B461046DF
:101910001946FFF769F9064602F0D0FC0246184B5B
:101920001B68D31A07EE903AF8EE677A9FED197AA2
:1019300067EE877A1848B0EE673A02EE906A02EED8
:10194000105A01EE904AB0EE491AF0EE680AB0EE75
:10195000480AFFF711FB02F0B1FC0346084A136086
:101960000D48FFF741FDF0EE407A0C4BC3ED007AD5
:10197000BD46BDEC048BF8BD849E52A246DF913F6C
:10198000F405002068050020D00200207405002026
:10199000C3F51C416F12833A04000020800500202B
:1019A00080B584B000AF7860454B1B78002B0ED01B
:1019B0007B68002B0BD15F2000F088FD4FF4AF70E7
:1019C00008F0FAFBFFF716FF3D4B00221A70FFF7F5
:1019D00037FF3C4B3C4ADA603C4B3B4ADA607B6861
:1019E00007EE903AF8EEE77A9FED397A37EEC77A4C
:1019F000384BD3ED007AB4EEE77AF1EE10FA03D566
:101A0000642000F063FD13E07B6807EE903AF8EE87
:101A1000E77A9FED2F7A37EE877A2E4BD3ED007A57
:101A2000B4EEE77AF1EE10FA02DD5A2000F04EFD36
:101A3000294B1B6807EE903AB8EEE77A274BD3EDB7
:101A4000007A77EE677AB2EE047AF4EEC77AF1EEB6
:101A500010FA05D51B4B224ADA601C4B204ADA608B
:101A6000204BD3E9002310461946FFF7BDF8034683
:101A700000EE103A1348FFF79BFDF0EE407AFDEEC2
:101A8000E77A17EE903AFB60174BD3E90023104634
:101A90001946FFF7A9F8034600EE103A0B48FFF786
:101AA00087FDF0EE407AFDEEE77A17EE903ABB60E4
:101AB000B968F86800F0C4FC00BF1037BD4680BDAF
:101AC000180000208405002000004040AC050020E4
:101AD000CDCCCC3D80050020200200202402002037
:101AE00000002040580500206005002080B584B02B
:101AF00000AF7860464B1B78002B0ED07B68002B24
:101B00000BD15F2000F0E2FC4FF4AF7008F054FB03
:101B1000FFF770FE3E4B00221A70FFF791FE3D4B1F
:101B20004FF08142DA603C4B4FF08142DA607B68D3
:101B300007EE903AF8EEE77A9FED387A37EEC77AFB
:101B4000374BD3ED007AB4EEE77AF1EE10FA03D515
:101B50005A2000F0BBFC13E07B6807EE903AF8EEE9
:101B6000E77A9FED2E7A37EE877A2D4BD3ED007A08
:101B7000B4EEE77AF1EE10FA02DD642000F0A6FC84
:101B8000284B1B6807EE903AB8EEE77A264BD3ED68
:101B9000007A77EE677AB2EE047AF4EEC77AF1EE65
:101BA00010FA05D51B4B214ADA601B4B1F4ADA603D
:101BB0001F4BD3E9002310461946FFF715F80346DB
:101BC00000EE103A1348FFF7F3FCF0EE407AFDEE1A
:101BD000E77A17EE903AFB60164BD3E900231046E4
:101BE0001946FFF701F8034600EE103A0A48FFF7DE
:101BF000DFFCF0EE407AFDEEE77A17EE903ABB603C
:101C0000B968F86800F01CFC00BF1037BD4680BD05
:101C10001900002084050020AC050020CDCCCC3D6F
:101C20008005002020020020240200200000204027
:101C3000580500206005002080B584B000AF7860B2
:101C40007A4B1B78002B2DD07B68002B2AD0784B49
:101C50004FF000021A60774B01221A6006E0002163
:101C60000020FFF775FD0020FFF79AFE714B1B68FF
:101C700007EE903AB8EEE77A6D4BD3ED007AB4EE0A
:101C8000E77AF1EE10FAEADC01F00AFB142000F02A
:101C90001DFC40F2EE2008F08FFAFFF7ABFD634B1E
:101CA00000221A70FFF7CCFD634B4FF08142DA60DF
:101CB000624B4FF07E52DA607B6807EE903AF8EEA6
:101CC000E77AB7EE007A37EEC77A5D4BD3ED007A4C
:101CD000B4EEE77AF1EE10FA4FD57B6807EE903A52
:101CE000F8EEE77AB7EE007A37EE877A544BD3ED09
:101CF000007AB4EEE77AF1EE10FA3EDD0021002022
:101D000000F09EFB4C48FFF709FD4C48FFF706FD2D
:101D10005F2000F0DBFB4FF47A7008F04DFA444B83
:101D20004FF000021A60434B0C221A6006E00021BB
:101D30000020FFF70DFD0020FFF732FE3D4B1B6832
:101D400007EE903AB8EEE77A394BD3ED007AB4EE6D
:101D5000E77AF1EE10FAEADC01F0A2FA334B012245
:101D60001A70384B01221A60374B00221A60374B29
:101D70001B680133354A136055E07B6807EE903AE3
:101D8000F8EEE77AB3EE097A37EEC77A2C4BD3ED4B
:101D9000007AB4EEE77AF1EE10FA18D57B6807EE18
:101DA000903AF8EEE77AB3EE097A37EE877A244B69
:101DB000D3ED007AB4EEE77AF1EE10FA07DD1E4BB0
:101DC0004FF07C52DA601D4B4FF07C52DA60204BB2
:101DD000D3E9002310461946FEF706FF034600EE3E
:101DE000103A1548FFF7E4FBF0EE407AFDEEE77A93
:101DF00017EE903AFB60174BD3E9002310461946C3
:101E0000FEF7F2FE034600EE103A0C48FFF7D0FB57
:101E1000F0EE407AFDEEE77A17EE903ABB60B968D3
:101E2000F86800F00DFB1037BD4680BD1A00002099
:101E3000240200202002002084050020AC050020A0
:101E4000800500202C020020000000203402002029
:101E5000580500206005002080B584B000AF786090
:101E60007C4B1B78002B2DD07B68002B2AD07A4B23
:101E70004FF000021A60794B02221A6006E000213E
:101E80000020FFF765FC0020FFF78AFD734B1B68FD
:101E900007EE903AB8EEE77A6F4BD3ED007AB4EEE6
:101EA000E77AF1EE10FAEADC01F0FAF98C2000F0A2
:101EB0000DFB40F2EE2008F07FF9FFF79BFC654B2D
:101EC00000221A70FFF7BCFC654B4FF07E52DA60BF
:101ED000644B4FF08142DA607B6807EE903AF8EE8F
:101EE000E77AB7EE007A37EEC77A5F4BD3ED007A28
:101EF000B4EEE77AF1EE10FA53D57B6807EE903A2C
:101F0000F8EEE77AB7EE007A37EE877A564BD3EDE4
:101F1000007AB4EEE77AF1EE10FA42DD00210020FB
:101F200000F08EFA4E48FFF7F9FB4E48FFF7F6FB3C
:101F30005F2000F0CBFA40F2EE2008F03DF9464B6E
:101F40004FF000021A60454B0C221A6006E0002197
:101F50000020FFF7FDFB0020FFF722FD3F4B1B6831
:101F600007EE903AB8EEE77A3B4BD3ED007AB4EE49
:101F7000E77AF1EE10FAEADC01F092F9354B012232
:101F80001A703A4B01221A60394B00221A60324B08
:101F90004FF000021A60374B1B680133354A13605B
:101FA00055E07B6807EE903AF8EEE77AB3EE097AEF
:101FB00037EEC77A2C4BD3ED007AB4EEE77AF1EE28
:101FC00010FA18D57B6807EE903AF8EEE77AB3EE90
:101FD000097A37EE877A244BD3ED007AB4EEE77AAC
:101FE000F1EE10FA07DD1E4B4FF07C52DA601D4B0C
:101FF0004FF07C52DA60204BD3E90023104619469B
:10200000FEF7F2FD034600EE103A1548FFF7D0FA4E
:10201000F0EE407AFDEEE77A17EE903AFB60174B50
:10202000D3E9002310461946FEF7DEFD034600EE15
:10203000103A0C48FFF7BCFAF0EE407AFDEEE77A72
:1020400017EE903ABB60B968F86800F0F9F91037FC
:10205000BD4680BD1B00002024020020200200207D
:1020600084050020AC050020800500202C02002003
:1020700000000020340200205805002060050020E8
:1020800080B584B000AF7860694B1B78002B2DD0F1
:102090007B68002B2AD0674B4FF000021A60664B1A
:1020A0000A221A6006E001210120FFF751FB0020FF
:1020B000FFF71CFD604B1B6807EE903AB8EEE77A1D
:1020C0005C4BD3ED007AB4EEE77AF1EE10FAEADC7D
:1020D00001F0E6F88C2000F0F9F940F2EE2008F06B
:1020E0006BF8FFF787FB524B00221A70FFF7A8FB33
:1020F000524B4FF07E52DA60514B4FF08142DA6022
:102100007B6807EE903AF8EEE77AB7EE007A37EEA2
:10211000C77A4C4BD3ED007AB4EEE77AF1EE10FAC1
:102120002DD57B6807EE903AF8EEE77AB7EE007AA5
:1021300037EE877A434BD3ED007AB4EEE77AF1EECF
:1021400010FA1CDD0021002000F07AF93B48FFF76F
:10215000E5FA3B48FFF7E2FA5F2000F0B7F940F2FA
:10216000EE2008F029F8324B01221A70364B01227A
:102170001A60364B1B680133344A136055E07B68A4
:1021800007EE903AF8EEE77AB3EE097A37EEC77ABF
:102190002C4BD3ED007AB4EEE77AF1EE10FA18D5B5
:1021A0007B6807EE903AF8EEE77AB3EE097A37EEFD
:1021B000877A244BD3ED007AB4EEE77AF1EE10FA89
:1021C00007DD1E4B4FF07C52DA601D4B4FF07C5206
:1021D000DA601F4BD3E9002310461946FEF704FDD1
:1021E000034600EE103A1548FFF7E2F9F0EE407AA8
:1021F000FDEEE77A17EE903AFB60164BD3E9002329
:1022000010461946FEF7F0FC034600EE103A0C4863
:10221000FFF7CEF9F0EE407AFDEEE77A17EE903A4E
:10222000BB60B968F86800F00BF91037BD4680BD97
:102230001C00002024020020200200208405002031
:10224000AC050020800500202C0200203402002074
:10225000580500206005002080B584B000AF78608C
:102260006D4B1B78002B2DD07B68002B2AD06B4B3D
:102270004FF000021A606A4B0A221A6006E0012140
:102280000120FFF765FA0020FFF730FC644B1B6864
:1022900007EE903AB8EEE77A604BD3ED007AB4EEF1
:1022A000E77AF1EE10FAEADC00F0FAFF142000F011
:1022B0000DF940F2EE2007F07FFFFFF79BFA564B37
:1022C00000221A70FFF7BCFA564B4FF08142DA60D9
:1022D000554B4FF07E52DA607B6807EE903AF8EE8D
:1022E000E77AB7EE007A37EEC77A504BD3ED007A33
:1022F000B4EEE77AF1EE10FA34D57B6807EE903A47
:10230000F8EEE77AB7EE007A37EE877A474BD3EDEF
:10231000007AB4EEE77AF1EE10FA23DD0021002016
:1023200000F08EF83F48FFF7F9F93F48FFF7F6F95C
:102330005F2000F0CBF840F2EE2007F03DFF364B77
:1023400001221A703A4B01221A60344B4FF00002FE
:102350001A60334B1E221A60364B1B680133354A14
:10236000136055E07B6807EE903AF8EEE77AB3EE3B
:10237000097A37EEC77A2D4BD3ED007AB4EEE77ABF
:10238000F1EE10FA18D57B6807EE903AF8EEE77A8E
:10239000B3EE097A37EE877A244BD3ED007AB4EEA8
:1023A000E77AF1EE10FA07DD1E4B4FF07C52DA604F
:1023B0001D4B4FF07C52DA601F4BD3E900231046CF
:1023C0001946FEF711FC034600EE103A1548FFF7D8
:1023D000EFF8F0EE407AFDEEE77A17EE903AFB6008
:1023E000164BD3E9002310461946FEF7FDFB0346C2
:1023F00000EE103A0C48FFF7DBF8F0EE407AFDEE05
:10240000E77A17EE903ABB60B968F86800F018F800
:102410001037BD4680BD00BF1D00002024020020F3
:102420002002002084050020AC050020800500204B
:102430002C020020340200205805002060050020F6
:1024400080B483B000AF786039601D4A7B68136048
:102450001C4A3B6813601A4B1B68002B04DA184BAC
:102460004FF4FA721A6008E0154B1B68B3F57A6FE7
:1024700003DD134B4FF47A621A60124B1B68002B7A
:1024800004DA104B4FF4FA721A6008E00C4B1B6828
:10249000B3F57A6F03DD0B4B4FF47A621A60084B89
:1024A0001A68094B1B685A63064B1A68064B1B686F
:1024B0009A6300BF0C37BD465DF8047B704700BFD0
:1024C000D4050020D80500208C04002080B483B0FF
:1024D00000AF0346FB71FB79B42B01D9B423FB7128
:1024E000FB79C3F1F003084A1360FB79074A1360D4
:1024F000054B1A68064B1B681A6400BF0C37BD46B3
:102500005DF8047B704700BF14000020E005002048
:102510002403002080B500AF01F06AFE00F0D2F87D
:1025200000F0C0FC00F094FC00F0EEFA00F0B0FB0C
:1025300000F0F8F900F0E2FB00F0C6F900F090FAC4
:1025400000F036FB00F01CF900F06CF90AF082FC98
:102550000023032200213E4807F071F9C82001F052
:10256000B9FE3C4A0A210A200AF042FC0AF0CCFAE1
:1025700000BF4FF48071384802F010FE0346002B74
:10258000F7D1FA220021324807F0A2FCFA220321F7
:102590002F4807F0F5FB314804F040FB002130489C
:1025A00004F020FD04222F492F4806F0FCF8DFED4F
:1025B0002F2A9FED2F2ADFED2F1A9FED2E1ADFED28
:1025C0002E0A9FED2E0A2E48FEF7BEFFDFED272ACA
:1025D0009FED272ADFED271A9FED261ADFED260A49
:1025E0009FED260A2748FEF7AFFF01210120FFF7E4
:1025F000AFF807F005FD244A0021244807F04AFD02
:102600000346234A1360234A0021234807F042FD72
:102610000346224A1360224A0021224807F03AFD6D
:102620000346214A1360214A0021214807F032FD68
:102630000346204A1360204A0021204807F02AFD63
:1026400003461F4A136007F0FFFC00BFFDE700BF11
:10265000D0020020A0030108000C02404404002026
:10266000FC030020E4050020D404002000007A458B
:1026700000007AC4000000000080BB440000FA4360
:1026800084050020AC05002044040108093300083B
:102690001C050020680401082933000820050020DB
:1026A0008C0401085D34000824050020B0040108F2
:1026B000B134000828050020D40401086937000857
:1026C0002C05002080B594B000AF07F12003302224
:1026D000002118460BF083FA07F10C0300221A6060
:1026E0005A609A60DA601A610023BB60224B1B6C4F
:1026F000214A43F0805313641F4B1B6C03F080533B
:10270000BB60BB6800237B601C4B1B681B4A43F407
:1027100080431360194B1B6803F480437B607B6824
:1027200002233B620123FB6210233B630023BB6354
:1027300007F12003184603F0C9FD0346002B01D022
:1027400001F054F90F23FB6000233B6100237B6100
:102750000023BB610023FB6107F10C030021184635
:1027600004F02CF80346002B01D001F03FF900BF24
:102770005037BD4680BD00BF0038024000700040A9
:1027800080B584B000AF3B4600221A605A609A6060
:10279000DA60214B214A1A601F4B00225A601E4BFF
:1027A00000229A601C4B00221A611B4B00221A76F1
:1027B000194B002283F82020174B0022DA62164BB7
:1027C000174A9A62144B0022DA60134B0122DA6135
:1027D000114B002283F830200F4B01225A610E4822
:1027E00001F09CFD0346002B01D001F0FFF800230F
:1027F0003B6001237B600023BB603B4619460648D3
:1028000001F06EFF0346002B01D001F0EFF800BF8E
:102810001037BD4680BD00BF4002002000200140AF
:102820000100000F80B584B000AF3B4600221A6063
:102830005A609A60DA60214B214A1A601F4B0022CD
:102840005A601E4B00229A601C4B00221A611B4BDF
:1028500000221A76194B002283F82020174B002201
:10286000DA62164B174A9A62144B0022DA60134B55
:102870000122DA61114B002283F830200F4B012234
:102880005A610E4801F04AFD0346002B01D001F0C9
:10289000ADF801233B6001237B600023BB603B4616
:1028A0001946064801F01CFF0346002B01D001F039
:1028B0009DF800BF1037BD4680BD00BF88020020D4
:1028C000002101400100000F80B500AF124B134AF8
:1028D0001A60114B124A5A600F4B00229A600E4B3D
:1028E0000022DA600C4B4FF480421A610A4B00223E
:1028F0005A61094B00229A61074B0022DA61064BAC
:1029000000221A62044802F095FC0346002B01D015
:1029100001F06CF800BF80BDD002002000540040E0
:10292000A086010080B596B000AF07F148030022F1
:102930001A605A609A60DA6007F1400300221A6058
:102940005A6007F1240300221A605A609A60DA6024
:102950001A615A619A613B1D2022002118460BF032
:102960003EF93D4B3D4A1A603B4BA0225A603A4B20
:1029700000229A60384B4FF6FF72DA60364B002225
:102980001A61354B00225A61334B00229A6132485A
:1029900004F0F4F80346002B01D001F027F84FF4BF
:1029A0008053BB6407F1480319462B4804F0C4FF69
:1029B0000346002B01D001F019F8274804F096F9DE
:1029C0000346002B01D001F011F800233B640023E3
:1029D0007B6407F1400319461F4805F027FD0346B5
:1029E000002B01D001F002F860237B620023BB6260
:1029F0000023FB6200237B630023BB630023FB6394
:102A000007F124030C221946134804F0D3FE0346B1
:102A1000002B01D000F0EAFF00237B600023BB60A5
:102A20000023FB6000233B6100237B614FF40053D4
:102A3000BB6100233B623B1D1946074805F072FD50
:102A40000346002B01D000F0D1FF034801F008FA43
:102A500000BF5837BD4680BD240300200000014060
:102A600080B58CB000AF07F10C032422002118467A
:102A70000BF0B5F83B1D00221A605A60214B4FF055
:102A800080421A601F4B00225A601E4B00229A603F
:102A90001C4B4FF6FF72DA601A4B00221A61194B79
:102AA00000229A610323FB6000233B6101237B61C9
:102AB0000023BB610A23FB6100233B6201237B628D
:102AC0000023BB620A23FB6207F10C0319460D4881
:102AD00004F0B0FB0346002B01D000F087FF002379
:102AE0007B600023BB603B1D1946064805F09EFC39
:102AF0000346002B01D000F079FF00BF3037BD4600
:102B000080BD00BF6C03002080B58CB000AF07F122
:102B10000C032422002118460BF061F83B1D002213
:102B20001A605A60204B214A1A601F4B00225A60DB
:102B30001D4B00229A601C4B4FF6FF72DA601A4B55
:102B400000221A61184B00229A610323FB600023C4
:102B50003B6101237B610023BB610A23FB610023EE
:102B60003B6201237B620023BB620A23FB6207F105
:102B70000C0319460C4804F05DFB0346002B01D002
:102B800000F034FF00237B600023BB603B1D19462F
:102B9000054805F04BFC0346002B01D000F026FF52
:102BA00000BF3037BD4680BDB403002000040040A4
:102BB00080B58AB000AF07F1180300221A605A608E
:102BC0009A60DA6007F1100300221A605A603B46EF
:102BD00000221A605A609A60DA602B4B2B4A1A6006
:102BE000294B0F225A60284B00229A60264B4FF641
:102BF000FF72DA60244B00221A61234B00229A6193
:102C0000214803F0BBFF0346002B01D000F0EEFE8D
:102C10004FF48053BB6107F1180319461A4804F0BA
:102C20008BFE0346002B01D000F0E0FE164804F0B6
:102C30007FF90346002B01D000F0D8FE00233B6152
:102C400000237B6107F1100319460F4805F0EEFBE6
:102C50000346002B01D000F0C9FE0A233B6001238C
:102C60007B600023BB600023FB603B4600221946CB
:102C7000054804F003FD0346002B01D000F0B6FE2A
:102C800000BF2837BD4680BDFC030020000800407F
:102C900080B582B000AF3B4600221A605A60154BE7
:102CA000154A1A60134B0F225A60124B00229A6089
:102CB000104B4FF6FF72DA600E4B00229A610D48FE
:102CC00003F05CFF0346002B01D000F08FFE0023D1
:102CD0003B6000237B603B461946064805F0A6FB97
:102CE0000346002B01D000F081FE00BF0837BD462F
:102CF00080BD00BF440400200010004080B596B0A5
:102D000000AF07F1480300221A605A609A60DA6047
:102D100007F1400300221A605A6007F124030022E1
:102D20001A605A609A60DA601A615A619A613B1DB2
:102D30002022002118460AF052FF434B434A1A60F2
:102D4000414B00225A60404B00229A603E4B41F6B4
:102D50001F42DA603C4B00221A613B4B00225A6151
:102D6000394B00229A61384803F008FF0346002BD4
:102D700001D000F03BFE4FF48053BB6407F14803E1
:102D80001946314804F0D8FD0346002B01D000F06D
:102D90002DFE2D4803F0AAFF0346002B01D000F0C2
:102DA00025FE00233B6400237B6407F140031946A2
:102DB000254805F03BFB0346002B01D000F016FE32
:102DC00060237B620023BB620023FB6200233B6322
:102DD00000237B630023BB630023FB6307F1240311
:102DE00000221946184804F0E5FC0346002B01D0E8
:102DF00000F0FCFD07F1240304221946124804F0F8
:102E0000D9FC0346002B01D000F0F0FD00237B60CD
:102E10000023BB600023FB6000233B6100237B6138
:102E20004FF40053BB6100233B623B1D194606482B
:102E300005F078FB0346002B01D000F0D7FD00BF62
:102E40005837BD4680BD00BF8C04002000040140FF
:102E500080B500AF114B124A1A60104B4FF4E132AB
:102E60005A600E4B00229A600C4B0022DA600B4B2A
:102E700000221A61094B0C225A61084B00229A6108
:102E8000064B0022DA61054805F0B2FB0346002B31
:102E900001D000F0ABFD00BF80BD00BFD404002016
:102EA0000048004080B58AB000AF07F1140300224B
:102EB0001A605A609A60DA601A6100233B613E4BE7
:102EC0001B6B3D4A43F0100313633B4B1B6B03F03A
:102ED00010033B613B690023FB60374B1B6B364A99
:102EE00043F001031363344B1B6B03F00103FB60DE
:102EF000FB680023BB60304B1B6B2F4A43F0080379
:102F000013632D4B1B6B03F00803BB60BB680023EE
:102F10007B60294B1B6B284A43F004031363264B49
:102F20001B6B03F004037B607B6800233B60224B38
:102F30001B6B214A43F0020313631F4B1B6B03F00F
:102F400002033B603B6800224FF4FC611B4802F027
:102F50003DF900223C211A4802F038F94FF4FC6395
:102F60007B610123BB610023FB6100233B6207F10E
:102F700014031946114801F075FF3C237B610123BE
:102F8000BB610023FB6102233B6207F11403194676
:102F90000B4801F067FF4FF480737B610023BB6136
:102FA0000023FB6107F114031946064801F05AFF9C
:102FB00000BF2837BD4680BD0038024000100240E7
:102FC00000000240000C024080B584B002AF78607F
:102FD0001A4B1B681846FDF7B7FA02460B46CDE9B7
:102FE0000023174A072117480AF062FD154A1649BF
:102FF00014480AF091FD0422144915480AF0F7FD1F
:103000000346002B06D14FF6FF7307220D491148E6
:1030100005F03EFB104B1B68012B0BD00E4B012221
:103020001A600E4B4FF000021A600422084909484A
:1030300005F0B9FB00BF0837BD4680BD3C05002048
:10304000B0030108E8050020B8030108C003010827
:10305000E4050020D40400203002002024020020D7
:1030600080B582B000AF78607B68414A934274D1EA
:103070004FF480513F4802F091F80346012B08D1EC
:1030800000213B4804F020FD03461A463A4B1A60E3
:103090001EE00021364804F017FD03461A46374B60
:1030A0001A60364B1A68344B1B689A4207DD334B63
:1030B0001A68314B1B68D31A314A136008E02E4B53
:1030C0001B68C3F580322D4B1B6813442C4A1360D8
:1030D0002A4B1A68284B1B689A4208DD274B1A684E
:1030E000254B1B68D31A1846FDF71CFA0AE0224B41
:1030F0001B68C3F57F43FF33204A12681344184608
:10310000FDF710FA18A3D3E90023FDF775FA02467C
:103110000B46104619464FF000024FF08043FDF772
:1031200095FB02460B4610461946FDF75DFD03462A
:10313000144A1360134BD3ED007A9FED137AF4EE2B
:10314000C77AF1EE10FA04DD104B1B680D4A1360CC
:1031500003E00C4B1B680D4A136000BF0837BD46E7
:1031600080BD00BFAFF300809CC420B07268A13F57
:10317000FC030020000C0240300500203405002034
:10318000380500203C0500200000C8434005002011
:1031900080B500AF1E4801F005F90A211C4801F076
:1031A00006FA1B4801F08EFA03469AB2194B1A80B0
:1031B000174801F0C9F9174B1B881846FDF7B2F9FB
:1031C0000FA3D3E90023FDF717FA02460B4610467A
:1031D0001946FDF7C1FC03461846FDF7A3F90AA3FB
:1031E000D3E90023FDF752F802460B461046194674
:1031F000FDF7DAFC03469AB2064B1A8000BF80BD89
:10320000F25D4A5D328E71BFA4703D0AD7E335404E
:1032100088020020F005002080B500AF1E4801F0B4
:10322000C1F80A211C4801F0C2F91B4801F04AFA12
:1032300003469AB2194B1A80174801F085F9174BCB
:103240001B881846FDF76EF90FA3D3E90023FDF79D
:10325000D3F902460B4610461946FDF77DFC03469E
:103260001846FDF75FF90AA3D3E90023FDF70EF82E
:1032700002460B4610461946FDF796FC03469AB2E5
:10328000064B1A8000BF80BDF25D4A5D328E71BF71
:10329000A4703D0AD7E3354040020020F20500202B
:1032A00080B500AFFEF7A6FA1148FEF737FA1148CD
:1032B000FEF734FA104B4FF000021A600F4B002259
:1032C0001A600F4B00221A600C4B1A680D4B1B68DA
:1032D0005A630B4B1A680B4B1B689A635F20FFF70E
:1032E000F5F84FF47A7006F067FF00BF80BD00BFAD
:1032F00084050020AC05002024020020D405002015
:10330000D80500208C04002080B582B000AF786022
:103310004FF48061034801F072FF962006F04CFFE5
:1033200000BFF5E70010024080B596B002AF7860AC
:1033300000233B6407F1440300221A605A609A603C
:103340000023FB6007F110032E22002118460AF02B
:1033500046FC374B1B8807F14000364A10210AF023
:10336000A7FB07F140031A4628210A2009F040FD77
:10337000314B1B681846FDF7E7F802460B4607F18C
:103380004000CDE900232D4A10210AF091FB07F1FE
:1033900040031A4614210A2009F02AFD284B1B6815
:1033A0001846FDF7D1F802460B4607F14000CDE97B
:1033B0000023244A10210AF07BFB07F140031A4640
:1033C0001E210A2009F014FD09F09EFB1E4B1B680C
:1033D00007F140001D4A10210AF06AFB07F1400383
:1033E0001A460A210A2009F003FD194B1B6807F150
:1033F0004000184A10210AF05BFB07F140031A460F
:1034000032210A2009F0F4FC0D4B1B681846FDF729
:103410009BF802460B4607F10C00CDE900230E4A4B
:1034200032210AF045FBC82006F0C6FE00BF90E737
:10343000F2050020C80301083C050020DC03010858
:1034400080050020EC03010820020020FC03010895
:10345000340200200C0401081C04010880B582B06D
:1034600000AF786000224FF400710F4801F0AEFE0B
:1034700001224FF400710C4801F0A8FE0A20FEF76B
:103480009FF900224FF40071074801F09FFE0A20C7
:1034900006F092FEFFF77CFEFFF7BEFE642006F00A
:1034A0008BFE00BFE4E700BF0010024000000000F8
:1034B00080B58AB000AF78603C21A14803F060FF7E
:1034C0003C21A04803F05CFF9D4B1B685B6AFB84BA
:1034D0009C4B1B685B6A7B8400F0F0FEF86100F097
:1034E000EDFE0246FB69D31A0A2B40F21E81944B73
:1034F0001B685B6A7B83934B1B685B6A3B83904BC7
:103500001B681B6803F01003102B14D1B7F91A20A5
:10351000B7F926309A4205DAFA8C7B8BD31A9BB224
:103520001BB206E0FA8C7B8BD31A9BB2013B9BB299
:103530001BB2BB8413E0B7F91A20B7F926309A42C0
:1035400005DD7A8BFB8CD31A9BB21BB206E07A8B1B
:10355000FB8CD31A9BB2013B9BB21BB2BB84794B51
:103560001B681B6803F01003102B14D1B7F9182047
:10357000B7F922309A4205DA7A8C3B8BD31A9BB288
:103580001BB206E07A8C3B8BD31A9BB2013B9BB2F9
:103590001BB23B8413E0B7F91820B7F922309A42E6
:1035A00005DD3A8B7B8CD31A9BB21BB206E03A8BBB
:1035B0007B8CD31A9BB2013B9BB21BB23B84B7F905
:1035C000243007EE903AF8EEE77A9FED5F7AC7EE87
:1035D000876A16EE900AFCF7B7FF02460B465B4976
:1035E000C1E90023B7F9203007EE903AF8EEE77A08
:1035F0009FED557AC7EE876A16EE900AFCF7A4FF96
:1036000002460B465249C1E9002300F057FE02462C
:10361000FB69D31A07EE903AF8EE677A9FED4D7A80
:1036200067EE877AC7ED057AB7F9243007EE903A4E
:10363000B8EEE77AD7ED057ADFED436A67EEA67A52
:10364000C7EE276A16EE900AFCF77EFF02460B468D
:103650004149C1E90023B7F9203007EE903AB8EEAE
:10366000E77AD7ED057ADFED386A67EEA67AC7EE1E
:10367000276A16EE900AFCF767FF02460B463749A9
:10368000C1E90023314BD3E900012BA3D3E9002387
:10369000FCF7B2FF02460B46104619464FF00002F7
:1036A0002F4BFCF7A9FF02460B4610461946FDF7C3
:1036B0009BFA03463B61264BD3E900011EA3D3E9E5
:1036C0000023FCF799FF02460B46104619464FF0BF
:1036D0000002234BFCF790FF02460B4610461946AA
:1036E000FDF782FA0346FB6097ED047AD7ED037A83
:1036F00037EE277AF0EE006AC7EE267AC7ED027A37
:10370000184B93ED007AD7ED027A77EE277A154BB6
:10371000C3ED007A0A4B1B685B6AFB84094B1B688C
:103720005B6A7B8400F0CAFDF861322006F044FD3C
:10373000D5E600BFAFF30080EA2E4454FB210940D8
:103740006C030020B40300200000A54448050020BD
:10375000500500206F12833A5805002060050020B4
:1037600000001A402402002080B584B000AF7860C9
:103770000C218B4803F014FB8A4B4FF000021A60B7
:103780000021894803F00CFB0421874803F008FB63
:1037900000BF4FF48071854801F000FD0346012B06
:1037A000F7D05723FB605F20FEF790FEC82006F09D
:1037B00003FD00F083FD03467D4A136000F07EFDAB
:1037C00003467C4A13607B4B1A68794B1B68D31AFB
:1037D00007EE903AF8EE677A9FED777A67EE877A90
:1037E000764BC3ED007A4FF48071704801F0D6FC3F
:1037F0000346002B02D1724B01221A60714B032247
:103800000021714806F0A0F800F058FD0346694A0F
:103810001360684B1A68664B1B68D31A07EE903A20
:10382000F8EE677A9FED647A67EE877A634BC3EDB3
:10383000007A00F043FD03465D4A1360634B1B684A
:10384000012B40F09680624B1B68012B00F09180A9
:103850000023BB605F4907F10803032218460AF002
:10386000D8F907F10803184609F080FB03465A4AC5
:1038700013605A4B1B78572B15D1574B1B6807EE1B
:10388000903AB8EEE77A564BD3ED007AB4EEE77A89
:10389000F1EE10FA07DD01210120FDF759FF0020AC
:1038A000FEF724F964E04D4B1B78442B0DD14B4BB4
:1038B0005B78312B09D101210120FDF749FFFB681D
:1038C0005B421846FEF7C8FC52E0444B1B78412B84
:1038D0000BD1424B5B78312B07D101210120FDF741
:1038E00037FFF868FEF7CCFB42E03C4B1B78442BDB
:1038F0000BD13A4B5B78302B07D100210020FDF72C
:1039000027FFF868FEF798F932E0344B1B78412B1B
:103910000DD1324B5B78302B09D100210020FDF70F
:1039200017FFFB685B421846FEF796FA20E02B4B28
:103930001B78532B15D1284B1B6807EE903AB8EE35
:10394000E77A274BD3ED007AB4EEE77AF1EE10FA7E
:1039500007DD00210020FDF7FBFE0020FEF720F828
:1039600006E01B4B01221A60184B00221A6013E07C
:1039700012E0174B1B68012B0ED1FFF791FC4FF69D
:10398000FF7305221749184804F082FE0F4B0022EE
:103990001A600F4B00221A600A2006F00DFC22E785
:1039A00024030020DC0500208C040020000C0240D1
:1039B000380200203C0200206F12833A28020020C7
:1039C0000000002068050020D00200203002002006
:1039D0002C020020E505002020020020E405002044
:1039E0002402002024040108D404002080B400AF85
:1039F00072B600BF00BFFDE780B582B000AF002304
:103A00007B60124B5B6C114A43F4804353640F4B51
:103A10005B6C03F480437B607B6800233B600B4B53
:103A20001B6C0A4A43F080531364084B1B6C03F071
:103A300080533B603B6800220F216FF0010001F0D2
:103A400048F900BF0837BD4680BD00BF00380240BE
:103A500080B58CB000AF786007F11C0300221A60BB
:103A60005A609A60DA601A617B681B682E4A93423A
:103A700028D10023BB612D4B5B6C2C4A43F480732F
:103A800053642A4B5B6C03F48073BB61BB690023F6
:103A90007B61264B1B6B254A43F001031363234BC9
:103AA0001B6B03F001037B617B690123FB61032333
:103AB0003B6200237B6207F11C0319461C4801F09E
:103AC000D1F92CE07B681B681A4A934227D1002366
:103AD0003B61164B5B6C154A43F400735364134B04
:103AE0005B6C03F400733B613B690023FB600F4B8D
:103AF0001B6B0E4A43F0010313630C4B1B6B03F06B
:103B00000103FB60FB680223FB6103233B6200238C
:103B10007B6207F11C031946054801F0A3F900BFB9
:103B20003037BD4680BD00BF002001400038024054
:103B3000000002400021014080B58AB000AF7860EB
:103B400007F1140300221A605A609A60DA601A6161
:103B50007B681B68194A93422CD100233B61184BA8
:103B60001B6B174A43F002031363154B1B6B03F0E7
:103B700002033B613B694FF440737B611223BB61DD
:103B80000023FB6103233B6204237B6207F11403E0
:103B900019460C4801F066F90023FB60084B1B6CCA
:103BA000074A43F400131364054B1B6C03F4001322
:103BB000FB60FB6800BF2837BD4680BD0054004055
:103BC000003802400004024080B58EB000AF78603B
:103BD00007F1240300221A605A609A60DA601A61C1
:103BE0007B681B684A4A93420ED100233B62494BD3
:103BF0005B6C484A43F001035364464B5B6C03F033
:103C000001033B623B6A7FE07B681B68424A934248
:103C100035D10023FB613F4B1B6C3E4A43F004034C
:103C200013643C4B1B6C03F00403FB61FB69002332
:103C3000BB61384B1B6B374A43F008031363354BAA
:103C40001B6B03F00803BB61BB694FF480537B62BD
:103C50000223BB620023FB6200233B6302237B63DE
:103C600007F1240319462D4801F0FCF80022052134
:103C70001E2001F02EF81E2001F047F844E07B687A
:103C80001B68274A93420ED100237B61214B1B6C9A
:103C9000204A43F0100313641E4B1B6C03F0100307
:103CA0007B617B6930E07B681B681E4A93422BD1A5
:103CB00000233B61174B5B6C164A43F002035364CD
:103CC000144B5B6C03F002033B613B690023FB6018
:103CD000104B1B6B0F4A43F0040313630D4B1B6B1C
:103CE00003F00403FB60FB68C0237B620223BB621A
:103CF0000023FB6200233B6303237B6307F1240360
:103D00001946094801F0AEF800BF3837BD4680BDFE
:103D1000000001400038024000080040000C024052
:103D200000100040000401400008024080B58CB043
:103D300000AF786007F11C0300221A605A609A6095
:103D4000DA601A617B681B68B3F1804F4BD10023A6
:103D5000BB613F4B1B6C3E4A43F0010313643C4B79
:103D60001B6C03F00103BB61BB6900237B61384B13
:103D70001B6B374A43F001031363354B1B6B03F096
:103D800001037B617B6900233B61314B1B6B304A34
:103D900043F0020313632E4B1B6B03F002033B61E2
:103DA0003B694FF40043FB6102233B6200237B62CB
:103DB0000023BB620123FB6207F11C03194625485F
:103DC00001F050F80823FB6102233B6200237B6271
:103DD0000023BB620123FB6207F11C0319461E4846
:103DE00001F040F830E07B681B681C4A93422BD1FD
:103DF0000023FB60164B1B6C154A43F0020313644F
:103E0000134B1B6C03F00203FB60FB680023BB60D9
:103E10000F4B1B6B0E4A43F0010313630C4B1B6BE0
:103E200003F00103BB60BB68C023FB6102233B625C
:103E300000237B620023BB620223FB6207F11C03A9
:103E40001946044801F00EF800BF3037BD4680BD6A
:103E5000003802400000024000040240000400401C
:103E600080B588B000AF786007F10C0300221A60BB
:103E70005A609A60DA601A617B681B68124A934242
:103E80001ED10023BB60114B1B6B104A43F0100383
:103E900013630E4B1B6B03F01003BB60BB684FF446
:103EA0008043FB6002233B6100237B610023BB61F5
:103EB0000123FB6107F10C031946054800F0D2FF0E
:103EC00000BF2037BD4680BD0000014000380240E1
:103ED0000010024080B58AB000AF786007F114038B
:103EE00000221A605A609A60DA601A617B681B6867
:103EF0001D4A934234D100233B611C4B1B6C1B4A6F
:103F000043F480231364194B1B6C03F480233B613F
:103F10003B690023FB60154B1B6B144A43F0040301
:103F20001363124B1B6B03F00403FB60FB684FF43D
:103F300040637B610223BB610023FB6103233B627F
:103F400007237B6207F114031946094800F08AFF32
:103F500000220521272000F0BCFE272000F0D5FE1E
:103F600000BF2837BD4680BD0048004000380240F1
:103F70000008024080B400AF00BFFDE780B400AF8E
:103F800000BFFDE780B400AF00BFFDE780B400AF25
:103F900000BFFDE780B400AF00BFFDE780B400AF15
:103FA00000BFBD465DF8047B704780B500AF00F0F0
:103FB00071F907F029FD0346012B01D008F024FB1D
:103FC00000BF80BD80B500AF024803F067FA00BFB4
:103FD00080BD00BFFC03002080B500AF024804F0A4
:103FE00007FC00BF80BD00BFD404002080B400AF38
:103FF00001231846BD465DF8047B704780B582B04A
:1040000000AF7860396009F061FE034616221A603D
:104010004FF0FF3318460837BD4680BD80B582B0EB
:1040200000AF78604FF0FF317868FFF7E7FF00BF1F
:10403000FDE780B586B000AFF860B9607A60002314
:104040007B610AE0AFF300800146BB685A1CBA608E
:10405000CAB21A707B6901337B617A697B689A42C4
:10406000F0DB7B6818461837BD4680BD80B586B04A
:1040700000AFF860B9607A6000237B6109E0BB683B
:104080005A1CBA601B781846AFF300807B69013375
:104090007B617A697B689A42F1DB7B681846183746
:1040A000BD4680BD80B483B000AF78604FF0FF3371
:1040B00018460C37BD465DF8047B704780B483B06A
:1040C00000AF786039603B684FF400525A600023BB
:1040D00018460C37BD465DF8047B704780B483B04A
:1040E00000AF7860012318460C37BD465DF8047BAD
:1040F000704780B485B000AFF860B9607A60002383
:1041000018461437BD465DF8047B704780B586B00D
:1041100000AF7860144A154BD31A7B617B693B6111
:10412000134B1B68002B02D1114B124A1A60104B23
:104130001A687B6813443A699A4207D209F0C6FDAF
:1041400003460C221A604FF0FF3309E0084B1B684E
:10415000FB60074B1A687B681344054A1360FB68D1
:1041600018461837BD4680BD00000220000400003C
:10417000F8050020A854002080B400AF064BD3F807
:104180008830054A43F47003C2F8883000BFBD464A
:104190005DF8047B704700BF00ED00E0DFF834D02D
:1041A0000D480E490E4A002302E0D458C45004338F
:1041B000C4188C42F9D30B4A0B4C002301E0136066
:1041C0000432A242FBD3FFF7D7FF09F085FDFEF7CB
:1041D000A1F970470000022000000020F801002033
:1041E00068130108F8010020A8540020FEE7000031
:1041F00080B500AF0E4B1B680D4A43F4007313608B
:104200000B4B1B680A4A43F480631360084B1B681E
:10421000074A43F480731360032000F04FFD0F2022
:1042200000F008F8FFF7E8FB0023184680BD00BF48
:10423000003C024080B582B000AF7860124B1A6833
:10424000124B1B7819464FF47A73B3FBF1F3B2FBB0
:10425000F3F3184600F067FD0346002B01D001235D
:104260000EE07B680F2B0AD8002279684FF0FF30F0
:1042700000F02FFD064A7B681360002300E0012355
:1042800018460837BD4680BD2000002028000020C9
:104290002400002080B400AF064B1B781A46064B62
:1042A0001B681344044A136000BFBD465DF8047BDD
:1042B000704700BF28000020FC05002080B400AF3C
:1042C000034B1B681846BD465DF8047B704700BF72
:1042D000FC05002080B584B000AF7860FFF7EEFFEA
:1042E000B8607B68FB60FB68B3F1FF3F05D00A4B09
:1042F0001B781A46FB681344FB6000BFFFF7DEFF24
:104300000246BB68D31AFA689A42F7D800BF00BFCA
:104310001037BD4680BD00BF2800002080B584B0A6
:1043200000AF78600023FB737B68002B01D1012371
:1043300033E07B681B6C002B09D17868FFF788FBA2
:104340007B6800225A647B68002283F83C207B68EB
:104350001B6C03F01003002B18D17B681B6C23F43B
:10436000885323F0020343F002027B681A647868E2
:1043700000F0D8FA7B6800225A647B681B6C23F03B
:10438000030343F001027B681A6401E00123FB731D
:104390007B68002283F83C20FB7B18461037BD4623
:1043A00080BD000080B485B000AF78600023BB60A2
:1043B0007B6893F83C30012B01D10223B2E07B688B
:1043C000012283F83C207B681B689B6803F0010393
:1043D000012B18D07B681B689A687B681B6842F0C9
:1043E00001029A60524B1B68524AA2FB03239A0CAB
:1043F00013465B001344BB6002E0BB68013BBB603B
:10440000BB68002BF9D17B681B689B6803F0010334
:10441000012B7AD17B681B6C23F4E06323F001034A
:1044200043F480727B681A647B681B685B6803F4E2
:104430008063002B07D07B681B6C23F4405343F44C
:1044400080527B681A647B681B6C03F48053B3F55D
:10445000805F06D17B685B6C23F006027B685A6440
:1044600002E07B6800225A647B68002283F83C20CB
:10447000314BFB607B681B686FF022021A60FB689F
:104480005B6803F01F03002B2AD17B681B682B4A53
:10449000934215D07B681B68294A934205D1264B6D
:1044A0005B6803F01F03002B0AD07B681B68254A5A
:1044B000934236D1204B5B6803F01003002B30D1C0
:1044C0007B681B689B6803F04053002B29D17B68F5
:1044D0001B689A687B681B6842F080429A6020E003
:1044E0007B681B68154A93421BD17B681B689B68DD
:1044F00003F04053002B14D17B681B689A687B68DB
:104500001B6842F080429A600BE07B681B6C43F0B2
:1045100010027B681A647B685B6C43F001027B6865
:104520005A64002318461437BD465DF8047B704773
:104530002000002083DE1B430023014000200140B7
:10454000002101400022014080B483B000AF7860B8
:104550007B6893F83C30012B01D1022321E07B687A
:10456000012283F83C207B681B689A687B681B6883
:1045700022F001029A607B681B689B6803F00103CC
:10458000002B09D17B681B6C23F4885323F00103B3
:1045900043F001027B681A647B68002283F83C20A8
:1045A000002318460C37BD465DF8047B704780B584
:1045B00084B000AF786039600023FB607B681B68C3
:1045C0009B6803F48063B3F5806F13D17B681B682D
:1045D0009B6803F48073B3F5807F0BD17B681B6C01
:1045E00043F020027B681A647B68002283F83C2039
:1045F000012363E0FFF762FEF86021E03B68B3F15E
:10460000FF3F1DD03B68002B07D0FFF757FE024647
:10461000FB68D31A3A689A4212D27B681B681B68FF
:1046200003F00203022B0BD07B681B6C43F00402E7
:104630007B681A647B68002283F83C2003233DE0FA
:104640007B681B681B6803F00203022BD6D17B68D2
:104650001B686FF012021A607B681B6C43F40072D7
:104660007B681A647B681B689B6803F04053002BCF
:1046700023D17B681B7E002B1FD17B681B68DB6A04
:1046800003F47003002B06D07B681B689B6803F45F
:104690008063002B11D17B681B6C23F480727B68D4
:1046A0001A647B681B6C03F48053002B05D17B6874
:1046B0001B6C43F001027B681A6400231846103714
:1046C000BD4680BD80B483B000AF78607B681B6856
:1046D000DB6C18460C37BD465DF8047B7047000064
:1046E00080B485B000AF786039600023BB607B6820
:1046F00093F83C30012B01D1022305E17B680122B4
:1047000083F83C203B681B68092B25D97B681B6814
:10471000D9683B681B689BB21A4613465B0013447A
:104720001E3B072202FA03F3DA437B681B680A4048
:10473000DA607B681B68D9683B689A683B681B68CD
:104740009BB2184603465B0003441E3B9A407B68BD
:104750001B680A43DA6022E07B681B6819693B68C2
:104760001B689BB21A4613465B001344072202FAE9
:1047700003F3DA437B681B680A401A617B681B6895
:1047800019693B689A683B681B689BB218460346E8
:104790005B0003449A407B681B680A431A613B68CC
:1047A0005B68062B24D87B681B68596B3B685A688A
:1047B00013469B001344053B1F2202FA03F3DA431E
:1047C0007B681B680A405A637B681B68596B3B68AF
:1047D0001B689BB218463B685A6813469B001344FB
:1047E000053B00FA03F27B681B680A435A634CE0FE
:1047F0003B685B680C2B24D87B681B68196B3B6893
:104800005A6813469B001344233B1F2202FA03F30A
:10481000DA437B681B680A401A637B681B68196B64
:104820003B681B689BB218463B685A6813469B005E
:104830001344233B00FA03F27B681B680A431A63A4
:1048400023E07B681B68D96A3B685A6813469B0063
:104850001344413B1F2202FA03F3DA437B681B68CF
:104860000A40DA627B681B68D96A3B681B689BB2A6
:1048700018463B685A6813469B001344413B00FAB4
:1048800003F27B681B680A43DA62224BFB607B6899
:104890001B68214A934209D13B681B68122B05D142
:1048A000FB685B6843F48002FB685A607B681B68A6
:1048B000194A934223D13B681B68102B03D03B68F5
:1048C0001B68112B1BD1FB685B6843F40002FB687B
:1048D0005A603B681B68102B11D1104B1B68104AA3
:1048E000A2FB03239A0C13469B0013445B00BB609E
:1048F00002E0BB68013BBB60BB68002BF9D17B6861
:10490000002283F83C20002318461437BD465DF88A
:10491000047B70470023014000200140200000205C
:1049200083DE1B4380B485B000AF7860794BFB60B9
:10493000FB685B6823F44032FB685A60FB685A6886
:104940007B685B681A43FB685A607B681B685A681F
:104950007B681B6822F480725A607B681B68596808
:104960007B681B691A027B681B680A435A607B6874
:104970001B685A687B681B6822F040725A607B682B
:104980001B6859687B689A687B681B680A435A6091
:104990007B681B689A687B681B6822F400629A60D7
:1049A0007B681B6899687B68DA687B681B680A43C8
:1049B0009A607B689B6A584A934222D07B681B6846
:1049C0009A687B681B6822F070629A607B681B683B
:1049D00099687B689A6A7B681B680A439A607B685F
:1049E0001B689A687B681B6822F040529A607B685B
:1049F0001B6899687B68DA6A7B681B680A439A605F
:104A00000FE07B681B689A687B681B6822F0706205
:104A10009A607B681B689A687B681B6822F040522A
:104A20009A607B681B689A687B681B6822F00202A8
:104A30009A607B681B6899687B681B7E5A007B685C
:104A40001B680A439A607B6893F82030002B1BD0C8
:104A50007B681B685A687B681B6842F400625A6076
:104A60007B681B685A687B681B6822F460425A6046
:104A70007B681B6859687B685B6A013B5A037B68EB
:104A80001B680A435A6007E07B681B685A687B68AA
:104A90001B6822F400625A607B681B68DA6A7B68D4
:104AA0001B6822F47002DA627B681B68D96A7B6833
:104AB000DB69013B1A057B681B680A43DA627B6885
:104AC0001B689A687B681B6822F400729A607B6896
:104AD0001B6899687B6893F830305A027B681B68C2
:104AE0000A439A607B681B689A687B681B6822F49B
:104AF00080629A607B681B6899687B685B699A0230
:104B00007B681B680A439A6000BF1437BD465DF896
:104B1000047B7047002301400100000F80B485B082
:104B200000AF78607B6803F00703FB600C4BDB6829
:104B3000BB60BA684FF6FF031340BB60FB681A0204
:104B4000BB68134343F0BF6343F40033BB60044AC4
:104B5000BB68D36000BF1437BD465DF8047B704767
:104B600000ED00E080B400AF044BDB681B0A03F0EB
:104B700007031846BD465DF8047B704700ED00E072
:104B800080B483B000AF0346FB7197F90730002B68
:104B90000BDBFB7903F01F02074997F907305B092C
:104BA000012000FA02F241F8232000BF0C37BD4675
:104BB0005DF8047B704700BF00E100E080B483B083
:104BC00000AF03463960FB7197F90730002B0ADB11
:104BD0003B68DAB20C4997F907301201D2B20B44A4
:104BE00083F800230AE03B68DAB20849FB7903F056
:104BF0000F03043B1201D2B20B441A7600BF0C37EC
:104C0000BD465DF8047B704700E100E000ED00E088
:104C100080B489B000AFF860B9607A60FB6803F0D7
:104C20000703FB61FB69C3F10703042B28BF0423BF
:104C3000BB61FB690433062B02D9FB69033B00E02F
:104C400000237B614FF0FF32BB6902FA03F3DA43C2
:104C5000BB681A407B699A404FF0FF317B6901FACB
:104C600003F3D9437B680B40134318462437BD46F2
:104C70005DF8047B7047000080B582B000AF7860BB
:104C80007B68013BB3F1807F01D301230FE00A4A27
:104C90007B68013B53600F214FF0FF30FFF78EFF21
:104CA000054B00229A60044B07221A600023184625
:104CB0000837BD4680BD00BF10E000E080B582B07F
:104CC00000AF78607868FFF729FF00BF0837BD465E
:104CD00080BD80B586B000AF0346B9607A60FB73D3
:104CE00000237B61FFF73EFF78617A68B9687869D5
:104CF000FFF78EFF024697F90F3011461846FFF76F
:104D00005DFF00BF1837BD4680BD80B582B000AFE3
:104D10000346FB7197F907301846FFF731FF00BFD4
:104D20000837BD4680BD80B582B000AF7860786836
:104D3000FFF7A2FF034618460837BD4680BD80B581
:104D400084B000AF78607B689B6DFB60FFF7B6FABC
:104D5000B8607B6893F83530DBB2022B08D07B68F3
:104D600080225A657B68002283F83420012352E0B8
:104D70007B681B681A687B681B6822F016021A6041
:104D80007B681B685A697B681B6822F080025A6145
:104D90007B681B6C002B03D17B689B6C002B07D0BE
:104DA0007B681B681A687B681B6822F008021A601F
:104DB0007B681B681A687B681B6822F001021A6016
:104DC00013E0FFF77BFA0246BB68D31A052B0CD918
:104DD0007B6820225A657B68032283F835207B6834
:104DE000002283F83420032315E07B681B681B68CE
:104DF00003F00103002BE4D17B68DB6D3F229A4076
:104E0000FB689A607B68012283F835207B6800226A
:104E100083F83420002318461037BD4680BD80B487
:104E200083B000AF78607B6893F83530DBB2022B3B
:104E300004D07B6880225A6501230CE07B68052240
:104E400083F835207B681B681A687B681B6822F032
:104E500001021A60002318460C37BD465DF8047B3A
:104E60007047000080B489B000AF786039600023DB
:104E70007B6100233B610023BB610023FB616BE18D
:104E80000122FB6902FA03F37B613B681B687A69C4
:104E900013403B613A697B699A4240F05A813B6812
:104EA0005B6803F00303012B05D03B685B6803F0EC
:104EB0000303022B30D17B689B68BB61FB695B00FD
:104EC000032202FA03F3DB43BA691340BB613B6878
:104ED000DA68FB695B0002FA03F3BA691343BB614A
:104EE0007B68BA699A607B685B68BB610122FB6979
:104EF00002FA03F3DB43BA691340BB613B685B68AA
:104F00001B0903F00102FB6902FA03F3BA691343B8
:104F1000BB617B68BA695A603B685B6803F0030356
:104F2000032B17D07B68DB68BB61FB695B00032246
:104F300002FA03F3DB43BA691340BB613B689A682A
:104F4000FB695B0002FA03F3BA691343BB617B6838
:104F5000BA69DA603B685B6803F00303022B23D174
:104F6000FB69DA087B68083253F82230BB61FB69C1
:104F700003F007039B000F2202FA03F3DB43BA6935
:104F80001340BB613B681A69FB6903F007039B0090
:104F900002FA03F3BA691343BB61FB69DA087B6861
:104FA0000832B96943F822107B681B68BB61FB6952
:104FB0005B00032202FA03F3DB43BA691340BB61CF
:104FC0003B685B6803F00302FB695B0002FA03F3D2
:104FD000BA691343BB617B68BA691A603B685B6856
:104FE00003F44033002B00F0B4800023FB60604BDF
:104FF0005B6C5F4A43F4804353645D4B5B6C03F42A
:105000008043FB60FB685B4AFB699B08023352F8F4
:105010002330BB61FB6903F003039B000F2202FAFC
:1050200003F3DB43BA691340BB617B68524A934286
:105030002BD07B68514A934225D07B68504A9342DB
:105040001FD07B684F4A934219D07B684E4A9342E7
:1050500013D07B684D4A93420DD07B684C4A9342F3
:1050600007D07B684B4A934201D107230EE0082307
:105070000CE006230AE0052308E0042306E00323EE
:1050800004E0022302E0012300E00023FA6902F0B9
:10509000030292009340BA691343BB613549FB692F
:1050A0009B080233BA6941F823203B4B9B68BB61E4
:1050B0003B69DB43BA691340BB613B685B6803F43F
:1050C0008013002B03D0BA693B691343BB61324A9A
:1050D000BB699360304BDB68BB613B69DB43BA69FA
:1050E0001340BB613B685B6803F40013002B03D0E3
:1050F000BA693B691343BB61274ABB69D360264B3E
:105100005B68BB613B69DB43BA691340BB613B68C9
:105110005B6803F40033002B03D0BA693B69134387
:10512000BB611D4ABB6953601B4B1B68BB613B697C
:10513000DB43BA691340BB613B685B6803F48033AF
:10514000002B03D0BA693B691343BB61124ABB69A8
:105150001360FB690133FB61FB690F2B7FF690AE97
:1051600000BF00BF2437BD465DF8047B704700BF19
:1051700000380240003801400000024000040240B4
:1051800000080240000C02400010024000140240DF
:1051900000180240001C0240003C014080B485B071
:1051A00000AF78600B467B807B681A697B88134070
:1051B000002B02D00123FB7301E00023FB73FB7B78
:1051C00018461437BD465DF8047B704780B483B041
:1051D00000AF78600B467B8013467B707B78002B9A
:1051E00003D07A887B689A6103E07B881A047B6825
:1051F0009A6100BF0C37BD465DF8047B704780B4F0
:1052000085B000AF78600B467B807B685B69FB6094
:105210007A88FB6813401A04FB68D9437B880B40EB
:105220001A437B689A6100BF1437BD465DF8047B62
:105230007047000080B584B000AF78607B68002BB9
:1052400001D101232BE17B6893F83D30DBB2002BC9
:1052500006D17B68002283F83C207868FEF76CFC5E
:105260007B68242283F83D207B681B681A687B6872
:105270001B6822F001021A607B681B681A687B6851
:105280001B6842F400421A607B681B681A687B68DE
:105290001B6822F400421A6001F048FCF8607B6849
:1052A0005B68814A934207D8FB68804A934294BF67
:1052B00001230023DBB206E0FB687D4A934294BFE2
:1052C00001230023DBB2002B01D00123E7E0FB68C0
:1052D000784AA2FB03239B0CBB607B681B685B685E
:1052E00023F03F017B681B68BA680A435A607B68F9
:1052F0001B681B6A23F03F017B685B686A4A934224
:1053000002D8BB68013309E0BB684FF4967202FB18
:1053100003F3694AA2FB03239B0901337A681268ED
:105320000B4313627B681B68DB6923F44F4222F056
:10533000FF027B685B685C498B4219D8FB68591E89
:105340007B685B685B00B1FBF3F3591C40F6FC73B0
:105350000B40002B0AD0FB68591E7B685B685B0022
:10536000B1FBF3F30133C3F30B0351E004234FE02C
:105370007B689B68002B11D1FB68581E7B685968BD
:105380000B465B000B44B0FBF3F30133C3F30B0399
:10539000002B0CBF01230023DBB212E0FB68581E78
:1053A0007B6859680B469B000B4499000B44B0FB8B
:1053B000F3F30133C3F30B03002B0CBF01230023D2
:1053C000DBB2002B01D0012322E07B689B68002B1D
:1053D0000ED1FB68581E7B6859680B465B000B4476
:1053E000B0FBF3F30133C3F30B0343F400430FE0CB
:1053F000FB68581E7B6859680B469B000B4499005C
:105400000B44B0FBF3F30133C3F30B0343F440430A
:10541000796809681343CB617B681B681B6823F0BC
:10542000C0017B68DA697B681B6A1A437B681B686A
:105430000A431A607B681B689B6823F4034323F0CC
:10544000FF037A6811697A68D26811437A68126832
:105450000B4393607B681B68DB6823F0FF017B686C
:105460005A697B689B691A437B681B680A43DA6048
:105470007B681B681A687B681B6842F001021A602F
:105480007B6800221A647B68202283F83D207B68B9
:1054900000221A637B68002283F83E20002318460E
:1054A0001037BD4680BD00BFA08601007F841E006E
:1054B000FF083D0083DE1B43D34D621080B588B0EA
:1054C00002AFF860084611461A4603467B810B4638
:1054D0003B811346FB80FEF7F1FE7861FB6893F891
:1054E0003D30DBB2202B40F0D9807B69009319233B
:1054F00001226D49F86800F08BFC0346002B01D0B7
:105500000223CCE0FB6893F83C30012B01D102234D
:10551000C5E0FB68012283F83C20FB681B681B6820
:1055200003F00103012B07D0FB681B681A68FB68B6
:105530001B6842F001021A60FB681B681A68FB686E
:105540001B6822F400621A60FB68212283F83D2068
:10555000FB68402283F83E20FB6800221A64FB6847
:105560003A6A5A62FB68BA8C5A85FB685B8D9AB2BC
:10557000FB681A85FB684D4ADA62F8883A897989AE
:105580007B690193BB6A00930346F86800F0C2FA96
:105590000346002B52D0012381E07A69B96AF8688A
:1055A00000F050FD0346002B0DD0FB681B6C042B54
:1055B00007D1FB681B681A68FB681B6842F400721D
:1055C0001A6001236BE0FB685B6A1A78FB681B6852
:1055D0001A61FB685B6A5A1CFB685A62FB681B8D88
:1055E000013B9AB2FB681A85FB685B8D9BB2013B5D
:1055F0009AB2FB685A85FB681B685B6903F0040379
:10560000042B1BD1FB681B8D002B17D0FB685B6A3A
:105610001A78FB681B681A61FB685B6A5A1CFB6896
:105620005A62FB681B8D013B9AB2FB681A85FB68C6
:105630005B8D9BB2013B9AB2FB685A85FB681B8D60
:10564000002BAAD17A69B96AF86800F043FD0346D5
:10565000002B0DD0FB681B6C042B07D1FB681B686B
:105660001A68FB681B6842F400721A60012316E096
:10567000FB681B681A68FB681B6842F400721A60BA
:10568000FB68202283F83D20FB68002283F83E203F
:10569000FB68002283F83C20002300E00223184628
:1056A0001837BD4680BD00BF020010000000FFFF9C
:1056B00080B58CB002AFF860084611461A46034622
:1056C0007B810B463B811346FB80FEF7F7FD78623A
:1056D000FB6893F83D30DBB2202B40F014827B6AEC
:1056E0000093192301227B49F86800F091FB0346DF
:1056F000002B01D0022307E2FB6893F83C30012B1A
:1057000001D1022300E2FB68012283F83C20FB6800
:105710001B681B6803F00103012B07D0FB681B68A3
:105720001A68FB681B6842F001021A60FB681B687C
:105730001A68FB681B6822F400621A60FB68222268
:1057400083F83D20FB68402283F83E20FB6800225E
:105750001A64FB683A6B5A62FB68BA8E5A85FB681A
:105760005B8D9AB2FB681A85FB685B4ADA62F8883F
:105770003A8979897B6A0193BB6B00930346F86889
:1057800000F05EFA0346002B01D00123BCE1FB6868
:105790001B8D002B13D100233B62FB681B685B69E8
:1057A0003B62FB681B689B693B623B6AFB681B684A
:1057B0001A68FB681B6842F400721A6090E1FB688B
:1057C0001B8D012B1BD1FB681B681A68FB681B68CB
:1057D00022F480621A600023FB61FB681B685B692E
:1057E000FB61FB681B689B69FB61FB69FB681B68CD
:1057F0001A68FB681B6842F400721A6070E1FB686B
:105800001B8D022B1BD1FB681B681A68FB681B6889
:1058100022F480621A60FB681B681A68FB681B68C8
:1058200042F400621A600023BB61FB681B685B697D
:10583000BB61FB681B689B69BB61BB6950E10023CE
:105840007B61FB681B685B697B61FB681B689B690C
:105850007B617B6944E1FB681B8D032B00F2F180C7
:10586000FB681B8D012B23D17A6AB96BF86800F0B5
:1058700079FC0346002B01D0012345E1FB681B683E
:105880001A69FB685B6AD2B21A70FB685B6A5A1CC1
:10589000FB685A62FB681B8D013B9AB2FB681A8554
:1058A000FB685B8D9BB2013B9AB2FB685A8517E19E
:1058B000FB681B8D022B4ED17B6A0093BB6B0022D1
:1058C0000649F86800F0A4FA0346002B08D001232B
:1058D0001AE100BF020010000000FFFF04000100F9
:1058E000FB681B681A68FB681B6842F400721A6048
:1058F000FB681B681A69FB685B6AD2B21A70FB68A6
:105900005B6A5A1CFB685A62FB681B8D013B9AB2AA
:10591000FB681A85FB685B8D9BB2013B9AB2FB6802
:105920005A85FB681B681A69FB685B6AD2B21A70F9
:10593000FB685B6A5A1CFB685A62FB681B8D013B63
:105940009AB2FB681A85FB685B8D9BB2013B9AB2E9
:10595000FB685A85C4E07B6A0093BB6B00226C49EC
:10596000F86800F055FA0346002B01D00123CBE084
:10597000FB681B681A68FB681B6822F480621A6067
:10598000FB681B681A69FB685B6AD2B21A70FB6815
:105990005B6A5A1CFB685A62FB681B8D013B9AB21A
:1059A000FB681A85FB685B8D9BB2013B9AB2FB6872
:1059B0005A857B6A0093BB6B00225549F86800F05A
:1059C00027FA0346002B01D001239DE0FB681B68EA
:1059D0001A68FB681B6842F400721A60FB681B6857
:1059E0001A69FB685B6AD2B21A70FB685B6A5A1C60
:1059F000FB685A62FB681B8D013B9AB2FB681A85F3
:105A0000FB685B8D9BB2013B9AB2FB685A85FB68D1
:105A10001B681A69FB685B6AD2B21A70FB685B6A22
:105A20005A1CFB685A62FB681B8D013B9AB2FB68EB
:105A30001A85FB685B8D9BB2013B9AB2FB685A8565
:105A40004EE07A6AB96BF86800F08CFB0346002BD5
:105A500001D0012358E0FB681B681A69FB685B6A88
:105A6000D2B21A70FB685B6A5A1CFB685A62FB6808
:105A70001B8D013B9AB2FB681A85FB685B8D9BB25C
:105A8000013B9AB2FB685A85FB681B685B6903F0AF
:105A90000403042B24D1FB681B8D032B07D1FB6867
:105AA0001B681A68FB681B6822F480621A60FB6836
:105AB0001B681A69FB685B6AD2B21A70FB685B6A82
:105AC0005A1CFB685A62FB681B8D013B9AB2FB684B
:105AD0001A85FB685B8D9BB2013B9AB2FB685A85C5
